{
  "_format": "hh-sol-artifact-1",
  "contractName": "WishlistNFT",
  "sourceName": "contracts/Wishlist.sol",
  "abi": [
    {
      "inputs": [
        {
          "internalType": "address",
          "name": "_hasher",
          "type": "address"
        },
        {
          "internalType": "address",
          "name": "_plonkVerifier",
          "type": "address"
        }
      ],
      "stateMutability": "nonpayable",
      "type": "constructor"
    },
    {
      "inputs": [
        {
          "internalType": "address",
          "name": "sender",
          "type": "address"
        },
        {
          "internalType": "uint256",
          "name": "tokenId",
          "type": "uint256"
        },
        {
          "internalType": "address",
          "name": "owner",
          "type": "address"
        }
      ],
      "name": "ERC721IncorrectOwner",
      "type": "error"
    },
    {
      "inputs": [
        {
          "internalType": "address",
          "name": "operator",
          "type": "address"
        },
        {
          "internalType": "uint256",
          "name": "tokenId",
          "type": "uint256"
        }
      ],
      "name": "ERC721InsufficientApproval",
      "type": "error"
    },
    {
      "inputs": [
        {
          "internalType": "address",
          "name": "approver",
          "type": "address"
        }
      ],
      "name": "ERC721InvalidApprover",
      "type": "error"
    },
    {
      "inputs": [
        {
          "internalType": "address",
          "name": "operator",
          "type": "address"
        }
      ],
      "name": "ERC721InvalidOperator",
      "type": "error"
    },
    {
      "inputs": [
        {
          "internalType": "address",
          "name": "owner",
          "type": "address"
        }
      ],
      "name": "ERC721InvalidOwner",
      "type": "error"
    },
    {
      "inputs": [
        {
          "internalType": "address",
          "name": "receiver",
          "type": "address"
        }
      ],
      "name": "ERC721InvalidReceiver",
      "type": "error"
    },
    {
      "inputs": [
        {
          "internalType": "address",
          "name": "sender",
          "type": "address"
        }
      ],
      "name": "ERC721InvalidSender",
      "type": "error"
    },
    {
      "inputs": [
        {
          "internalType": "uint256",
          "name": "tokenId",
          "type": "uint256"
        }
      ],
      "name": "ERC721NonexistentToken",
      "type": "error"
    },
    {
      "anonymous": false,
      "inputs": [
        {
          "indexed": true,
          "internalType": "address",
          "name": "owner",
          "type": "address"
        },
        {
          "indexed": true,
          "internalType": "address",
          "name": "approved",
          "type": "address"
        },
        {
          "indexed": true,
          "internalType": "uint256",
          "name": "tokenId",
          "type": "uint256"
        }
      ],
      "name": "Approval",
      "type": "event"
    },
    {
      "anonymous": false,
      "inputs": [
        {
          "indexed": true,
          "internalType": "address",
          "name": "owner",
          "type": "address"
        },
        {
          "indexed": true,
          "internalType": "address",
          "name": "operator",
          "type": "address"
        },
        {
          "indexed": false,
          "internalType": "bool",
          "name": "approved",
          "type": "bool"
        }
      ],
      "name": "ApprovalForAll",
      "type": "event"
    },
    {
      "anonymous": false,
      "inputs": [
        {
          "indexed": true,
          "internalType": "uint256",
          "name": "itemId",
          "type": "uint256"
        },
        {
          "indexed": true,
          "internalType": "address",
          "name": "recipient",
          "type": "address"
        }
      ],
      "name": "NFTMinted",
      "type": "event"
    },
    {
      "anonymous": false,
      "inputs": [
        {
          "indexed": true,
          "internalType": "address",
          "name": "from",
          "type": "address"
        },
        {
          "indexed": true,
          "internalType": "address",
          "name": "to",
          "type": "address"
        },
        {
          "indexed": true,
          "internalType": "uint256",
          "name": "tokenId",
          "type": "uint256"
        }
      ],
      "name": "Transfer",
      "type": "event"
    },
    {
      "anonymous": false,
      "inputs": [
        {
          "indexed": true,
          "internalType": "uint256",
          "name": "itemId",
          "type": "uint256"
        },
        {
          "indexed": false,
          "internalType": "uint8",
          "name": "amount",
          "type": "uint8"
        },
        {
          "indexed": true,
          "internalType": "address",
          "name": "fulfiller",
          "type": "address"
        }
      ],
      "name": "WishlistFulfilled",
      "type": "event"
    },
    {
      "anonymous": false,
      "inputs": [
        {
          "indexed": true,
          "internalType": "uint256",
          "name": "itemId",
          "type": "uint256"
        },
        {
          "indexed": false,
          "internalType": "uint8",
          "name": "price",
          "type": "uint8"
        },
        {
          "indexed": true,
          "internalType": "address",
          "name": "recipient",
          "type": "address"
        }
      ],
      "name": "WishlistItemAdded",
      "type": "event"
    },
    {
      "anonymous": false,
      "inputs": [
        {
          "indexed": false,
          "internalType": "uint256",
          "name": "root",
          "type": "uint256"
        },
        {
          "indexed": false,
          "internalType": "uint256[10]",
          "name": "hashPairings",
          "type": "uint256[10]"
        },
        {
          "indexed": false,
          "internalType": "uint8[10]",
          "name": "pairDirection",
          "type": "uint8[10]"
        },
        {
          "indexed": false,
          "internalType": "uint256",
          "name": "denomination",
          "type": "uint256"
        }
      ],
      "name": "commitmentEvent",
      "type": "event"
    },
    {
      "inputs": [
        {
          "internalType": "uint256",
          "name": "itemId",
          "type": "uint256"
        },
        {
          "internalType": "uint8",
          "name": "price",
          "type": "uint8"
        },
        {
          "internalType": "address",
          "name": "recipient",
          "type": "address"
        }
      ],
      "name": "addWishlistItem",
      "outputs": [],
      "stateMutability": "nonpayable",
      "type": "function"
    },
    {
      "inputs": [
        {
          "internalType": "address",
          "name": "to",
          "type": "address"
        },
        {
          "internalType": "uint256",
          "name": "tokenId",
          "type": "uint256"
        }
      ],
      "name": "approve",
      "outputs": [],
      "stateMutability": "nonpayable",
      "type": "function"
    },
    {
      "inputs": [
        {
          "internalType": "address",
          "name": "owner",
          "type": "address"
        }
      ],
      "name": "balanceOf",
      "outputs": [
        {
          "internalType": "uint256",
          "name": "",
          "type": "uint256"
        }
      ],
      "stateMutability": "view",
      "type": "function"
    },
    {
      "inputs": [
        {
          "internalType": "uint256",
          "name": "_commitment",
          "type": "uint256"
        }
      ],
      "name": "commitmentStorage",
      "outputs": [],
      "stateMutability": "payable",
      "type": "function"
    },
    {
      "inputs": [
        {
          "internalType": "uint256",
          "name": "",
          "type": "uint256"
        }
      ],
      "name": "commitments",
      "outputs": [
        {
          "internalType": "bool",
          "name": "",
          "type": "bool"
        }
      ],
      "stateMutability": "view",
      "type": "function"
    },
    {
      "inputs": [],
      "name": "denomination",
      "outputs": [
        {
          "internalType": "uint256",
          "name": "",
          "type": "uint256"
        }
      ],
      "stateMutability": "view",
      "type": "function"
    },
    {
      "inputs": [
        {
          "internalType": "uint256",
          "name": "itemId",
          "type": "uint256"
        },
        {
          "internalType": "uint8",
          "name": "amount",
          "type": "uint8"
        }
      ],
      "name": "fulfillWishlist",
      "outputs": [],
      "stateMutability": "payable",
      "type": "function"
    },
    {
      "inputs": [
        {
          "internalType": "uint256",
          "name": "",
          "type": "uint256"
        }
      ],
      "name": "fulfillmentAmounts",
      "outputs": [
        {
          "internalType": "uint8",
          "name": "",
          "type": "uint8"
        }
      ],
      "stateMutability": "view",
      "type": "function"
    },
    {
      "inputs": [
        {
          "internalType": "uint256",
          "name": "tokenId",
          "type": "uint256"
        }
      ],
      "name": "getApproved",
      "outputs": [
        {
          "internalType": "address",
          "name": "",
          "type": "address"
        }
      ],
      "stateMutability": "view",
      "type": "function"
    },
    {
      "inputs": [
        {
          "internalType": "address",
          "name": "owner",
          "type": "address"
        },
        {
          "internalType": "address",
          "name": "operator",
          "type": "address"
        }
      ],
      "name": "isApprovedForAll",
      "outputs": [
        {
          "internalType": "bool",
          "name": "",
          "type": "bool"
        }
      ],
      "stateMutability": "view",
      "type": "function"
    },
    {
      "inputs": [
        {
          "internalType": "uint256",
          "name": "",
          "type": "uint256"
        }
      ],
      "name": "itemRecipients",
      "outputs": [
        {
          "internalType": "address",
          "name": "",
          "type": "address"
        }
      ],
      "stateMutability": "view",
      "type": "function"
    },
    {
      "inputs": [
        {
          "internalType": "uint256",
          "name": "",
          "type": "uint256"
        }
      ],
      "name": "mintedItems",
      "outputs": [
        {
          "internalType": "bool",
          "name": "",
          "type": "bool"
        }
      ],
      "stateMutability": "view",
      "type": "function"
    },
    {
      "inputs": [],
      "name": "name",
      "outputs": [
        {
          "internalType": "string",
          "name": "",
          "type": "string"
        }
      ],
      "stateMutability": "view",
      "type": "function"
    },
    {
      "inputs": [],
      "name": "nextLeafIdx",
      "outputs": [
        {
          "internalType": "uint256",
          "name": "",
          "type": "uint256"
        }
      ],
      "stateMutability": "view",
      "type": "function"
    },
    {
      "inputs": [
        {
          "internalType": "uint256",
          "name": "",
          "type": "uint256"
        }
      ],
      "name": "nullifierHashes",
      "outputs": [
        {
          "internalType": "bool",
          "name": "",
          "type": "bool"
        }
      ],
      "stateMutability": "view",
      "type": "function"
    },
    {
      "inputs": [
        {
          "internalType": "uint256",
          "name": "tokenId",
          "type": "uint256"
        }
      ],
      "name": "ownerOf",
      "outputs": [
        {
          "internalType": "address",
          "name": "",
          "type": "address"
        }
      ],
      "stateMutability": "view",
      "type": "function"
    },
    {
      "inputs": [
        {
          "internalType": "uint256",
          "name": "",
          "type": "uint256"
        }
      ],
      "name": "roots",
      "outputs": [
        {
          "internalType": "bool",
          "name": "",
          "type": "bool"
        }
      ],
      "stateMutability": "view",
      "type": "function"
    },
    {
      "inputs": [
        {
          "internalType": "address",
          "name": "from",
          "type": "address"
        },
        {
          "internalType": "address",
          "name": "to",
          "type": "address"
        },
        {
          "internalType": "uint256",
          "name": "tokenId",
          "type": "uint256"
        }
      ],
      "name": "safeTransferFrom",
      "outputs": [],
      "stateMutability": "nonpayable",
      "type": "function"
    },
    {
      "inputs": [
        {
          "internalType": "address",
          "name": "from",
          "type": "address"
        },
        {
          "internalType": "address",
          "name": "to",
          "type": "address"
        },
        {
          "internalType": "uint256",
          "name": "tokenId",
          "type": "uint256"
        },
        {
          "internalType": "bytes",
          "name": "data",
          "type": "bytes"
        }
      ],
      "name": "safeTransferFrom",
      "outputs": [],
      "stateMutability": "nonpayable",
      "type": "function"
    },
    {
      "inputs": [
        {
          "internalType": "address",
          "name": "operator",
          "type": "address"
        },
        {
          "internalType": "bool",
          "name": "approved",
          "type": "bool"
        }
      ],
      "name": "setApprovalForAll",
      "outputs": [],
      "stateMutability": "nonpayable",
      "type": "function"
    },
    {
      "inputs": [
        {
          "internalType": "bytes4",
          "name": "interfaceId",
          "type": "bytes4"
        }
      ],
      "name": "supportsInterface",
      "outputs": [
        {
          "internalType": "bool",
          "name": "",
          "type": "bool"
        }
      ],
      "stateMutability": "view",
      "type": "function"
    },
    {
      "inputs": [],
      "name": "symbol",
      "outputs": [
        {
          "internalType": "string",
          "name": "",
          "type": "string"
        }
      ],
      "stateMutability": "view",
      "type": "function"
    },
    {
      "inputs": [
        {
          "internalType": "uint256",
          "name": "tokenId",
          "type": "uint256"
        }
      ],
      "name": "tokenURI",
      "outputs": [
        {
          "internalType": "string",
          "name": "",
          "type": "string"
        }
      ],
      "stateMutability": "view",
      "type": "function"
    },
    {
      "inputs": [
        {
          "internalType": "address",
          "name": "from",
          "type": "address"
        },
        {
          "internalType": "address",
          "name": "to",
          "type": "address"
        },
        {
          "internalType": "uint256",
          "name": "tokenId",
          "type": "uint256"
        }
      ],
      "name": "transferFrom",
      "outputs": [],
      "stateMutability": "nonpayable",
      "type": "function"
    },
    {
      "inputs": [],
      "name": "treeLevel",
      "outputs": [
        {
          "internalType": "uint256",
          "name": "",
          "type": "uint256"
        }
      ],
      "stateMutability": "view",
      "type": "function"
    },
    {
      "inputs": [
        {
          "internalType": "uint256[24]",
          "name": "_proof",
          "type": "uint256[24]"
        },
        {
          "internalType": "uint256[3]",
          "name": "_pubSignals",
          "type": "uint256[3]"
        }
      ],
      "name": "verifyPlonk",
      "outputs": [],
      "stateMutability": "payable",
      "type": "function"
    },
    {
      "inputs": [
        {
          "internalType": "uint256",
          "name": "",
          "type": "uint256"
        }
      ],
      "name": "wishlistItems",
      "outputs": [
        {
          "internalType": "uint8",
          "name": "",
          "type": "uint8"
        }
      ],
      "stateMutability": "view",
      "type": "function"
    }
  ],
  "bytecode": "0x600a600d819055670de0b6b3a7640000600e556000600f556101c06040527f8cfd904a1564f728bad463e11678c335bbe7bb55e73a07588b14f8bd04545c3d60809081527f3a362132ff01c0f19143e7526b28c6fdcabecaad0dfcdfdf6d8f23483b99438460a0527fcafc0f3216abfccb1134117a825ba2e17388c9b09877b1fee9873697c41de04460c0527f52d21251f1b6967a0505130ebea06b9d8e8cb000abe492df5259d6678b0e215360e0527f1548db067f3cf9a942c70c5ce0b6048806dd74e2b709f1d30e7a191548943a9d610100527f1ea1a9099c5691137f1d3d1830867cdd75c536dff279663aefb7b49f7798f4cb610120527f772dac99aed444be6218c8da12c933163e165b31f1099b7869f4ec29ba4da1c7610140527fc1c6314026af83a766e1ad18d985ac243fadcf9c07932757904500e6cff80b98610160527fa23d32762958399632e9e0b52d049042041484a30974a83254af4e50893ad991610180527f7ae8404bbd3493825346a185473e48d1015672145bef4cd06002212e65ed18ce6101a0526200019c916014919062000267565b50348015620001aa57600080fd5b50604051620024c7380380620024c7833981016040819052620001cd91620002de565b6040518060400160405280600b81526020016a15da5cda1b1a5cdd13919560aa1b8152506040518060400160405280600481526020016315d3919560e21b81525081600090816200021f9190620003bb565b5060016200022e8282620003bb565b5050600a80546001600160a01b039485166001600160a01b031991821617909155600c8054939094169216919091179091555062000487565b82600a810192821562000298579160200282015b82811115620002985782518255916020019190600101906200027b565b50620002a6929150620002aa565b5090565b5b80821115620002a65760008155600101620002ab565b80516001600160a01b0381168114620002d957600080fd5b919050565b60008060408385031215620002f257600080fd5b620002fd83620002c1565b91506200030d60208401620002c1565b90509250929050565b634e487b7160e01b600052604160045260246000fd5b600181811c908216806200034157607f821691505b6020821081036200036257634e487b7160e01b600052602260045260246000fd5b50919050565b601f821115620003b657600081815260208120601f850160051c81016020861015620003915750805b601f850160051c820191505b81811015620003b2578281556001016200039d565b5050505b505050565b81516001600160401b03811115620003d757620003d762000316565b620003ef81620003e884546200032c565b8462000368565b602080601f8311600181146200042757600084156200040e5750858301515b600019600386901b1c1916600185901b178555620003b2565b600085815260208120601f198616915b82811015620004585788860151825594840194600190910190840162000437565b5085821015620004775787850151600019600388901b60f8161c191681555b5050505050600190811b01905550565b61203080620004976000396000f3fe60806040526004361061019c5760003560e01c80636352211e116100ec578063a22cb4651161008a578063c2b40ae411610064578063c2b40ae4146104d2578063c87b56dd14610502578063dad46ced14610522578063e985e9c51461055857600080fd5b8063a22cb4651461047c578063b88d4fde1461049c578063b8e79564146104bc57600080fd5b80636b5d45ae116100c65780636b5d45ae1461041157806370a08231146104315780638bca6d161461045157806395d89b411461046757600080fd5b80636352211e146103ae578063665bd421146103ce5780636a81beb3146103fe57600080fd5b806323b872dd1161015957806345e0523f1161013357806345e0523f146103055780634755c7461461032957806349ce89971461033c57806352d5d0ee1461036c57600080fd5b806323b872dd1461029557806340042a8e146102b557806342842e0e146102e557600080fd5b806301ffc9a7146101a157806306fdde03146101d6578063081812fc146101f8578063095ea7b3146102305780631db140ba146102525780631f79a1e914610265575b600080fd5b3480156101ad57600080fd5b506101c16101bc366004611904565b610578565b60405190151581526020015b60405180910390f35b3480156101e257600080fd5b506101eb6105ca565b6040516101cd9190611971565b34801561020457600080fd5b50610218610213366004611984565b61065c565b6040516001600160a01b0390911681526020016101cd565b34801561023c57600080fd5b5061025061024b3660046119b9565b610685565b005b6102506102603660046119e3565b610694565b34801561027157600080fd5b506101c1610280366004611984565b60126020526000908152604090205460ff1681565b3480156102a157600080fd5b506102506102b0366004611a28565b6108c4565b3480156102c157600080fd5b506101c16102d0366004611984565b60086020526000908152604090205460ff1681565b3480156102f157600080fd5b50610250610300366004611a28565b61094f565b34801561031157600080fd5b5061031b600f5481565b6040519081526020016101cd565b610250610337366004611a75565b61096f565b34801561034857600080fd5b506101c1610357366004611984565b60136020526000908152604090205460ff1681565b34801561037857600080fd5b5061039c610387366004611984565b60076020526000908152604090205460ff1681565b60405160ff90911681526020016101cd565b3480156103ba57600080fd5b506102186103c9366004611984565b610b33565b3480156103da57600080fd5b5061039c6103e9366004611984565b60066020526000908152604090205460ff1681565b61025061040c366004611984565b610b3e565b34801561041d57600080fd5b5061025061042c366004611aa1565b610e77565b34801561043d57600080fd5b5061031b61044c366004611add565b610fa0565b34801561045d57600080fd5b5061031b600e5481565b34801561047357600080fd5b506101eb610fe8565b34801561048857600080fd5b50610250610497366004611af8565b610ff7565b3480156104a857600080fd5b506102506104b7366004611b4a565b611002565b3480156104c857600080fd5b5061031b600d5481565b3480156104de57600080fd5b506101c16104ed366004611984565b60106020526000908152604090205460ff1681565b34801561050e57600080fd5b506101eb61051d366004611984565b61101a565b34801561052e57600080fd5b5061021861053d366004611984565b6009602052600090815260409020546001600160a01b031681565b34801561056457600080fd5b506101c1610573366004611c26565b61108f565b60006001600160e01b031982166380ac58cd60e01b14806105a957506001600160e01b03198216635b5e139f60e01b145b806105c457506301ffc9a760e01b6001600160e01b03198316145b92915050565b6060600080546105d990611c50565b80601f016020809104026020016040519081016040528092919081815260200182805461060590611c50565b80156106525780601f1061062757610100808354040283529160200191610652565b820191906000526020600020905b81548152906001019060200180831161063557829003601f168201915b5050505050905090565b6000610667826110bd565b506000828152600460205260409020546001600160a01b03166105c4565b6106908282336110f6565b5050565b60208082013560008181526012909252604091829020548335928401359060ff16156106f75760405162461bcd60e51b815260206004820152600d60248201526c185b1c9958591e4b5cdc195b9d609a1b60448201526064015b60405180910390fd5b60008381526010602052604090205460ff166107405760405162461bcd60e51b81526020600482015260086024820152671b9bdb8b5c9bdbdd60c21b60448201526064016106ee565b600c54604080516060810182528581526020810185905280820184905290516000926001600160a01b03169161077b91899190602401611ca0565b60408051601f198184030181529181526020820180516001600160e01b0316630eac01ff60e11b179052516107b09190611cdb565b6000604051808303816000865af19150503d80600081146107ed576040519150601f19603f3d011682016040523d82523d6000602084013e6107f2565b606091505b50509050806108435760405162461bcd60e51b815260206004820152601c60248201527f696e76616c6964207a65726f206b6e6f776c656467652070726f6f660000000060448201526064016106ee565b60008381526012602052604090819020805460ff19166001908117909155600e5491516323aae3a360e11b81526004810185905260248101919091523091634755c746916044016000604051808303818588803b1580156108a357600080fd5b505af11580156108b7573d6000803e3d6000fd5b5050505050505050505050565b6001600160a01b0382166108ee57604051633250574960e11b8152600060048201526024016106ee565b60006108fb838333611103565b9050836001600160a01b0316816001600160a01b031614610949576040516364283d7b60e01b81526001600160a01b03808616600483015260248201849052821660448201526064016106ee565b50505050565b61096a83838360405180602001604052806000815250611002565b505050565b60008281526006602052604090205460ff166109c45760405162461bcd60e51b8152602060048201526014602482015273125d195b481b9bdd081a5b881dda5cda1b1a5cdd60621b60448201526064016106ee565b60008281526008602052604090205460ff1615610a195760405162461bcd60e51b8152602060048201526013602482015272125d195b48185b1c9958591e481b5a5b9d1959606a1b60448201526064016106ee565b610a2e60ff8216670de0b6b3a7640000611d0d565b67ffffffffffffffff163414610a7f5760405162461bcd60e51b8152602060048201526016602482015275125b98dbdc9c9958dd08115d1a195c88185b5bdd5b9d60521b60448201526064016106ee565b60008281526007602052604081208054839290610aa090849060ff16611d39565b92506101000a81548160ff021916908360ff160217905550336001600160a01b0316827fa7b89af353380e12b2c4f0e865f9af5848bd917ea72978858a547bafb2c8cad483604051610afb919060ff91909116815260200190565b60405180910390a360008281526006602090815260408083205460079092529091205460ff91821691161061069057610690826111fc565b60006105c4826110bd565b60008181526013602052604090205460ff1615610b9d5760405162461bcd60e51b815260206004820152601960248201527f6475706c696361746520636f6d6d69746d656e7420686173680000000000000060448201526064016106ee565b600d54610bab906002611e36565b600f5410610bee5760405162461bcd60e51b815260206004820152601060248201526f1d1a19481d1c9959481a5cc8199d5b1b60821b60448201526064016106ee565b6000610bf86118ae565b610c006118ae565b600f5484600080610c0f6118cd565b60005b600d548160ff161015610ddb57610c2a600287611e58565b600003610ca95784935060148160ff16600a8110610c4a57610c4a611c8a565b0154925060148160ff16600a8110610c6457610c64611c8a565b0154888260ff16600a8110610c7b57610c7b611c8a565b602002015260008760ff8316600a8110610c9757610c97611c8a565b60ff9092166020929092020152610cff565b60ff8116600081815260116020526040902054945085935084908990600a8110610cd557610cd5611c8a565b602002015260018760ff8316600a8110610cf157610cf1611c8a565b60ff90921660209290920201525b60ff81166000908152601160205260408120869055849083906020020152828260016020020181815250506000600a60009054906101000a90046001600160a01b03166001600160a01b031663d622e5a4620249f0858e6040518463ffffffff1660e01b8152600401610d73929190611e6c565b6020604051808303818786fa158015610d90573d6000803e3d6000fd5b50505050506040513d601f19601f82011682018060405250810190610db59190611ea4565b9550859050610dc5600288611ebd565b9650508080610dd390611ed1565b915050610c12565b506000848152601060205260408120805460ff19166001908117909155600f8054969a508a9691929091610e10908490611ef0565b909155505060008981526013602052604090819020805460ff19166001179055517f896663b5db78d158499a6a38a2f114f6098cbe51422e4528677a4f0beb096e2f90610e64908a908a908a903490611f03565b60405180910390a1505050505050505050565b60008381526008602052604090205460ff1615610ecc5760405162461bcd60e51b81526020600482015260136024820152724974656d20616c72656164792065786973747360681b60448201526064016106ee565b6001600160a01b038116610f225760405162461bcd60e51b815260206004820152601960248201527f496e76616c696420726563697069656e7420616464726573730000000000000060448201526064016106ee565b6000838152600660209081526040808320805460ff191660ff8716908117909155600983529281902080546001600160a01b0319166001600160a01b03861690811790915590519283529185917f3c56e6863acfa01555065fd061b878cd3dbf54409e9f648f60254a945c805af591015b60405180910390a3505050565b60006001600160a01b038216610fcc576040516322718ad960e21b8152600060048201526024016106ee565b506001600160a01b031660009081526003602052604090205490565b6060600180546105d990611c50565b61069033838361131a565b61100d8484846108c4565b61094933858585856113b1565b6060611025826110bd565b50600061103d60408051602081019091526000815290565b9050600081511161105d5760405180602001604052806000815250611088565b80611067846114dc565b604051602001611078929190611f71565b6040516020818303038152906040525b9392505050565b6001600160a01b03918216600090815260056020908152604080832093909416825291909152205460ff1690565b6000818152600260205260408120546001600160a01b0316806105c457604051637e27328960e01b8152600481018490526024016106ee565b61096a838383600161156f565b6000828152600260205260408120546001600160a01b039081169083161561113057611130818486611675565b6001600160a01b0381161561116e5761114d60008560008061156f565b6001600160a01b038116600090815260036020526040902080546000190190555b6001600160a01b0385161561119d576001600160a01b0385166000908152600360205260409020805460010190555b60008481526002602052604080822080546001600160a01b0319166001600160a01b0389811691821790925591518793918516917fddf252ad1be2c89b69c2b068fc378daa952ba7f163c4a11628f55a4df523b3ef91a4949350505050565b60008181526008602052604090205460ff161561125b5760405162461bcd60e51b815260206004820181905260248201527f4e465420616c7265616479206d696e74656420666f722074686973206974656d60448201526064016106ee565b6000818152600960205260409020546001600160a01b0316806112c05760405162461bcd60e51b815260206004820152601f60248201527f526563697069656e74206e6f742073657420666f722074686973206974656d0060448201526064016106ee565b6112ca81836116d9565b600082815260086020526040808220805460ff19166001179055516001600160a01b0383169184917f0176f203df400d7bd5f1b1c9ef36c16709bf3b5d9fd35f000a6bae32393f66c39190a35050565b6001600160a01b03821661134c57604051630b61174360e31b81526001600160a01b03831660048201526024016106ee565b6001600160a01b03838116600081815260056020908152604080832094871680845294825291829020805460ff191686151590811790915591519182527f17307eab39ab6107e8899845ad3d59bd9653f200f220920489ca2b5937696c319101610f93565b6001600160a01b0383163b156114d557604051630a85bd0160e11b81526001600160a01b0384169063150b7a02906113f3908890889087908790600401611fa0565b6020604051808303816000875af192505050801561142e575060408051601f3d908101601f1916820190925261142b91810190611fdd565b60015b611497573d80801561145c576040519150601f19603f3d011682016040523d82523d6000602084013e611461565b606091505b50805160000361148f57604051633250574960e11b81526001600160a01b03851660048201526024016106ee565b805181602001fd5b6001600160e01b03198116630a85bd0160e11b146114d357604051633250574960e11b81526001600160a01b03851660048201526024016106ee565b505b5050505050565b606060006114e9836116f3565b600101905060008167ffffffffffffffff81111561150957611509611b34565b6040519080825280601f01601f191660200182016040528015611533576020820181803683370190505b5090508181016020015b600019016f181899199a1a9b1b9c1cb0b131b232b360811b600a86061a8153600a850494508461153d57509392505050565b808061158357506001600160a01b03821615155b15611645576000611593846110bd565b90506001600160a01b038316158015906115bf5750826001600160a01b0316816001600160a01b031614155b80156115d257506115d0818461108f565b155b156115fb5760405163a9fbf51f60e01b81526001600160a01b03841660048201526024016106ee565b81156116435783856001600160a01b0316826001600160a01b03167f8c5be1e5ebec7d5bd14f71427d1e84f3dd0314c0f7b2291e5b200ac8c7c3b92560405160405180910390a45b505b5050600090815260046020526040902080546001600160a01b0319166001600160a01b0392909216919091179055565b6116808383836117cb565b61096a576001600160a01b0383166116ae57604051637e27328960e01b8152600481018290526024016106ee565b60405163177e802f60e01b81526001600160a01b0383166004820152602481018290526044016106ee565b610690828260405180602001604052806000815250611831565b60008072184f03e93ff9f4daa797ed6e38ed64bf6a1f0160401b83106117325772184f03e93ff9f4daa797ed6e38ed64bf6a1f0160401b830492506040015b6d04ee2d6d415b85acef8100000000831061175e576d04ee2d6d415b85acef8100000000830492506020015b662386f26fc10000831061177c57662386f26fc10000830492506010015b6305f5e1008310611794576305f5e100830492506008015b61271083106117a857612710830492506004015b606483106117ba576064830492506002015b600a83106105c45760010192915050565b60006001600160a01b038316158015906118295750826001600160a01b0316846001600160a01b031614806118055750611805848461108f565b8061182957506000828152600460205260409020546001600160a01b038481169116145b949350505050565b61183b8383611849565b61096a3360008585856113b1565b6001600160a01b03821661187357604051633250574960e11b8152600060048201526024016106ee565b600061188183836000611103565b90506001600160a01b0381161561096a576040516339e3563760e11b8152600060048201526024016106ee565b604051806101400160405280600a906020820280368337509192915050565b60405180604001604052806002906020820280368337509192915050565b6001600160e01b03198116811461190157600080fd5b50565b60006020828403121561191657600080fd5b8135611088816118eb565b60005b8381101561193c578181015183820152602001611924565b50506000910152565b6000815180845261195d816020860160208601611921565b601f01601f19169290920160200192915050565b6020815260006110886020830184611945565b60006020828403121561199657600080fd5b5035919050565b80356001600160a01b03811681146119b457600080fd5b919050565b600080604083850312156119cc57600080fd5b6119d58361199d565b946020939093013593505050565b6000806103608084860312156119f857600080fd5b610300840185811115611a0a57600080fd5b849350858286011115611a1c57600080fd5b80925050509250929050565b600080600060608486031215611a3d57600080fd5b611a468461199d565b9250611a546020850161199d565b9150604084013590509250925092565b803560ff811681146119b457600080fd5b60008060408385031215611a8857600080fd5b82359150611a9860208401611a64565b90509250929050565b600080600060608486031215611ab657600080fd5b83359250611ac660208501611a64565b9150611ad46040850161199d565b90509250925092565b600060208284031215611aef57600080fd5b6110888261199d565b60008060408385031215611b0b57600080fd5b611b148361199d565b915060208301358015158114611b2957600080fd5b809150509250929050565b634e487b7160e01b600052604160045260246000fd5b60008060008060808587031215611b6057600080fd5b611b698561199d565b9350611b776020860161199d565b925060408501359150606085013567ffffffffffffffff80821115611b9b57600080fd5b818701915087601f830112611baf57600080fd5b813581811115611bc157611bc1611b34565b604051601f8201601f19908116603f01168101908382118183101715611be957611be9611b34565b816040528281528a6020848701011115611c0257600080fd5b82602086016020830137600060208483010152809550505050505092959194509250565b60008060408385031215611c3957600080fd5b611c428361199d565b9150611a986020840161199d565b600181811c90821680611c6457607f821691505b602082108103611c8457634e487b7160e01b600052602260045260246000fd5b50919050565b634e487b7160e01b600052603260045260246000fd5b61036081016103008085843782018360005b6003811015611cd1578151835260209283019290910190600101611cb2565b5050509392505050565b60008251611ced818460208701611921565b9190910192915050565b634e487b7160e01b600052601160045260246000fd5b67ffffffffffffffff818116838216028082169190828114611d3157611d31611cf7565b505092915050565b60ff81811683821601908111156105c4576105c4611cf7565b600181815b80851115611d8d578160001904821115611d7357611d73611cf7565b80851615611d8057918102915b93841c9390800290611d57565b509250929050565b600082611da4575060016105c4565b81611db1575060006105c4565b8160018114611dc75760028114611dd157611ded565b60019150506105c4565b60ff841115611de257611de2611cf7565b50506001821b6105c4565b5060208310610133831016604e8410600b8410161715611e10575081810a6105c4565b611e1a8383611d52565b8060001904821115611e2e57611e2e611cf7565b029392505050565b60006110888383611d95565b634e487b7160e01b600052601260045260246000fd5b600082611e6757611e67611e42565b500690565b60608101818460005b6002811015611e94578151835260209283019290910190600101611e75565b5050508260408301529392505050565b600060208284031215611eb657600080fd5b5051919050565b600082611ecc57611ecc611e42565b500490565b600060ff821660ff8103611ee757611ee7611cf7565b60010192915050565b808201808211156105c4576105c4611cf7565b8481526102c0810160208083018660005b600a811015611f3157815183529183019190830190600101611f14565b50505061016083018560005b600a811015611f5d57815160ff1683529183019190830190600101611f3d565b50505050826102a083015295945050505050565b60008351611f83818460208801611921565b835190830190611f97818360208801611921565b01949350505050565b6001600160a01b0385811682528416602082015260408101839052608060608201819052600090611fd390830184611945565b9695505050505050565b600060208284031215611fef57600080fd5b8151611088816118eb56fea264697066735822122075cee4ab5d3516a3e115da6950996325f89529dd80930e6e0da7cd9d2f5ed68764736f6c63430008140033",
  "linkReferences": {},
  "deployedLinkReferences": {}
}