{
  "_format": "hh-sol-artifact-1",
  "contractName": "WishlistNFT",
  "sourceName": "contracts/Wishlist.sol",
  "abi": [
    {
      "inputs": [
        {
          "internalType": "address",
          "name": "_hasher",
          "type": "address"
        },
        {
          "internalType": "address",
          "name": "_plonkVerifier",
          "type": "address"
        }
      ],
      "stateMutability": "nonpayable",
      "type": "constructor"
    },
    {
      "inputs": [
        {
          "internalType": "address",
          "name": "sender",
          "type": "address"
        },
        {
          "internalType": "uint256",
          "name": "tokenId",
          "type": "uint256"
        },
        {
          "internalType": "address",
          "name": "owner",
          "type": "address"
        }
      ],
      "name": "ERC721IncorrectOwner",
      "type": "error"
    },
    {
      "inputs": [
        {
          "internalType": "address",
          "name": "operator",
          "type": "address"
        },
        {
          "internalType": "uint256",
          "name": "tokenId",
          "type": "uint256"
        }
      ],
      "name": "ERC721InsufficientApproval",
      "type": "error"
    },
    {
      "inputs": [
        {
          "internalType": "address",
          "name": "approver",
          "type": "address"
        }
      ],
      "name": "ERC721InvalidApprover",
      "type": "error"
    },
    {
      "inputs": [
        {
          "internalType": "address",
          "name": "operator",
          "type": "address"
        }
      ],
      "name": "ERC721InvalidOperator",
      "type": "error"
    },
    {
      "inputs": [
        {
          "internalType": "address",
          "name": "owner",
          "type": "address"
        }
      ],
      "name": "ERC721InvalidOwner",
      "type": "error"
    },
    {
      "inputs": [
        {
          "internalType": "address",
          "name": "receiver",
          "type": "address"
        }
      ],
      "name": "ERC721InvalidReceiver",
      "type": "error"
    },
    {
      "inputs": [
        {
          "internalType": "address",
          "name": "sender",
          "type": "address"
        }
      ],
      "name": "ERC721InvalidSender",
      "type": "error"
    },
    {
      "inputs": [
        {
          "internalType": "uint256",
          "name": "tokenId",
          "type": "uint256"
        }
      ],
      "name": "ERC721NonexistentToken",
      "type": "error"
    },
    {
      "anonymous": false,
      "inputs": [
        {
          "indexed": true,
          "internalType": "address",
          "name": "owner",
          "type": "address"
        },
        {
          "indexed": true,
          "internalType": "address",
          "name": "approved",
          "type": "address"
        },
        {
          "indexed": true,
          "internalType": "uint256",
          "name": "tokenId",
          "type": "uint256"
        }
      ],
      "name": "Approval",
      "type": "event"
    },
    {
      "anonymous": false,
      "inputs": [
        {
          "indexed": true,
          "internalType": "address",
          "name": "owner",
          "type": "address"
        },
        {
          "indexed": true,
          "internalType": "address",
          "name": "operator",
          "type": "address"
        },
        {
          "indexed": false,
          "internalType": "bool",
          "name": "approved",
          "type": "bool"
        }
      ],
      "name": "ApprovalForAll",
      "type": "event"
    },
    {
      "anonymous": false,
      "inputs": [
        {
          "indexed": true,
          "internalType": "uint256",
          "name": "itemId",
          "type": "uint256"
        },
        {
          "indexed": true,
          "internalType": "address",
          "name": "recipient",
          "type": "address"
        }
      ],
      "name": "NFTMinted",
      "type": "event"
    },
    {
      "anonymous": false,
      "inputs": [
        {
          "indexed": true,
          "internalType": "uint256",
          "name": "itemId",
          "type": "uint256"
        },
        {
          "indexed": true,
          "internalType": "address",
          "name": "manufacturer",
          "type": "address"
        },
        {
          "indexed": false,
          "internalType": "uint256",
          "name": "value",
          "type": "uint256"
        }
      ],
      "name": "NFTRedeemed",
      "type": "event"
    },
    {
      "anonymous": false,
      "inputs": [
        {
          "indexed": true,
          "internalType": "address",
          "name": "from",
          "type": "address"
        },
        {
          "indexed": true,
          "internalType": "address",
          "name": "to",
          "type": "address"
        },
        {
          "indexed": true,
          "internalType": "uint256",
          "name": "tokenId",
          "type": "uint256"
        }
      ],
      "name": "Transfer",
      "type": "event"
    },
    {
      "anonymous": false,
      "inputs": [
        {
          "indexed": true,
          "internalType": "uint256",
          "name": "itemId",
          "type": "uint256"
        },
        {
          "indexed": false,
          "internalType": "uint8",
          "name": "amount",
          "type": "uint8"
        },
        {
          "indexed": true,
          "internalType": "address",
          "name": "fulfiller",
          "type": "address"
        }
      ],
      "name": "WishlistFulfilled",
      "type": "event"
    },
    {
      "anonymous": false,
      "inputs": [
        {
          "indexed": true,
          "internalType": "uint256",
          "name": "itemId",
          "type": "uint256"
        },
        {
          "indexed": false,
          "internalType": "uint8",
          "name": "price",
          "type": "uint8"
        },
        {
          "indexed": true,
          "internalType": "address",
          "name": "recipient",
          "type": "address"
        },
        {
          "indexed": true,
          "internalType": "address",
          "name": "manufacturer",
          "type": "address"
        }
      ],
      "name": "WishlistItemAdded",
      "type": "event"
    },
    {
      "anonymous": false,
      "inputs": [
        {
          "indexed": false,
          "internalType": "uint256",
          "name": "root",
          "type": "uint256"
        },
        {
          "indexed": false,
          "internalType": "uint256[10]",
          "name": "hashPairings",
          "type": "uint256[10]"
        },
        {
          "indexed": false,
          "internalType": "uint8[10]",
          "name": "pairDirection",
          "type": "uint8[10]"
        },
        {
          "indexed": false,
          "internalType": "uint256",
          "name": "denomination",
          "type": "uint256"
        }
      ],
      "name": "commitmentEvent",
      "type": "event"
    },
    {
      "inputs": [
        {
          "internalType": "uint256",
          "name": "itemId",
          "type": "uint256"
        },
        {
          "internalType": "uint8",
          "name": "price",
          "type": "uint8"
        },
        {
          "internalType": "address",
          "name": "recipient",
          "type": "address"
        },
        {
          "internalType": "address",
          "name": "manufacturer",
          "type": "address"
        }
      ],
      "name": "addWishlistItem",
      "outputs": [],
      "stateMutability": "nonpayable",
      "type": "function"
    },
    {
      "inputs": [
        {
          "internalType": "address",
          "name": "to",
          "type": "address"
        },
        {
          "internalType": "uint256",
          "name": "tokenId",
          "type": "uint256"
        }
      ],
      "name": "approve",
      "outputs": [],
      "stateMutability": "nonpayable",
      "type": "function"
    },
    {
      "inputs": [
        {
          "internalType": "address",
          "name": "owner",
          "type": "address"
        }
      ],
      "name": "balanceOf",
      "outputs": [
        {
          "internalType": "uint256",
          "name": "",
          "type": "uint256"
        }
      ],
      "stateMutability": "view",
      "type": "function"
    },
    {
      "inputs": [
        {
          "internalType": "uint256",
          "name": "tokenId",
          "type": "uint256"
        }
      ],
      "name": "burnAndRedeem",
      "outputs": [],
      "stateMutability": "nonpayable",
      "type": "function"
    },
    {
      "inputs": [
        {
          "internalType": "uint256",
          "name": "",
          "type": "uint256"
        }
      ],
      "name": "collectedFunds",
      "outputs": [
        {
          "internalType": "uint256",
          "name": "",
          "type": "uint256"
        }
      ],
      "stateMutability": "view",
      "type": "function"
    },
    {
      "inputs": [
        {
          "internalType": "uint256",
          "name": "_commitment",
          "type": "uint256"
        }
      ],
      "name": "commitmentStorage",
      "outputs": [],
      "stateMutability": "payable",
      "type": "function"
    },
    {
      "inputs": [
        {
          "internalType": "uint256",
          "name": "",
          "type": "uint256"
        }
      ],
      "name": "commitments",
      "outputs": [
        {
          "internalType": "bool",
          "name": "",
          "type": "bool"
        }
      ],
      "stateMutability": "view",
      "type": "function"
    },
    {
      "inputs": [],
      "name": "denomination",
      "outputs": [
        {
          "internalType": "uint256",
          "name": "",
          "type": "uint256"
        }
      ],
      "stateMutability": "view",
      "type": "function"
    },
    {
      "inputs": [
        {
          "internalType": "uint256",
          "name": "itemId",
          "type": "uint256"
        },
        {
          "internalType": "uint8",
          "name": "amount",
          "type": "uint8"
        }
      ],
      "name": "fulfillWishlist",
      "outputs": [],
      "stateMutability": "payable",
      "type": "function"
    },
    {
      "inputs": [
        {
          "internalType": "uint256",
          "name": "",
          "type": "uint256"
        }
      ],
      "name": "fulfillmentAmounts",
      "outputs": [
        {
          "internalType": "uint8",
          "name": "",
          "type": "uint8"
        }
      ],
      "stateMutability": "view",
      "type": "function"
    },
    {
      "inputs": [
        {
          "internalType": "uint256",
          "name": "tokenId",
          "type": "uint256"
        }
      ],
      "name": "getApproved",
      "outputs": [
        {
          "internalType": "address",
          "name": "",
          "type": "address"
        }
      ],
      "stateMutability": "view",
      "type": "function"
    },
    {
      "inputs": [
        {
          "internalType": "address",
          "name": "owner",
          "type": "address"
        },
        {
          "internalType": "address",
          "name": "operator",
          "type": "address"
        }
      ],
      "name": "isApprovedForAll",
      "outputs": [
        {
          "internalType": "bool",
          "name": "",
          "type": "bool"
        }
      ],
      "stateMutability": "view",
      "type": "function"
    },
    {
      "inputs": [
        {
          "internalType": "uint256",
          "name": "",
          "type": "uint256"
        }
      ],
      "name": "itemManufacturers",
      "outputs": [
        {
          "internalType": "address",
          "name": "",
          "type": "address"
        }
      ],
      "stateMutability": "view",
      "type": "function"
    },
    {
      "inputs": [
        {
          "internalType": "uint256",
          "name": "",
          "type": "uint256"
        }
      ],
      "name": "itemRecipients",
      "outputs": [
        {
          "internalType": "address",
          "name": "",
          "type": "address"
        }
      ],
      "stateMutability": "view",
      "type": "function"
    },
    {
      "inputs": [
        {
          "internalType": "uint256",
          "name": "",
          "type": "uint256"
        }
      ],
      "name": "itemValues",
      "outputs": [
        {
          "internalType": "uint256",
          "name": "",
          "type": "uint256"
        }
      ],
      "stateMutability": "view",
      "type": "function"
    },
    {
      "inputs": [
        {
          "internalType": "uint256",
          "name": "",
          "type": "uint256"
        }
      ],
      "name": "mintedItems",
      "outputs": [
        {
          "internalType": "bool",
          "name": "",
          "type": "bool"
        }
      ],
      "stateMutability": "view",
      "type": "function"
    },
    {
      "inputs": [],
      "name": "name",
      "outputs": [
        {
          "internalType": "string",
          "name": "",
          "type": "string"
        }
      ],
      "stateMutability": "view",
      "type": "function"
    },
    {
      "inputs": [],
      "name": "nextLeafIdx",
      "outputs": [
        {
          "internalType": "uint256",
          "name": "",
          "type": "uint256"
        }
      ],
      "stateMutability": "view",
      "type": "function"
    },
    {
      "inputs": [
        {
          "internalType": "uint256",
          "name": "",
          "type": "uint256"
        }
      ],
      "name": "nullifierHashes",
      "outputs": [
        {
          "internalType": "bool",
          "name": "",
          "type": "bool"
        }
      ],
      "stateMutability": "view",
      "type": "function"
    },
    {
      "inputs": [
        {
          "internalType": "uint256",
          "name": "tokenId",
          "type": "uint256"
        }
      ],
      "name": "ownerOf",
      "outputs": [
        {
          "internalType": "address",
          "name": "",
          "type": "address"
        }
      ],
      "stateMutability": "view",
      "type": "function"
    },
    {
      "inputs": [
        {
          "internalType": "uint256",
          "name": "",
          "type": "uint256"
        }
      ],
      "name": "roots",
      "outputs": [
        {
          "internalType": "bool",
          "name": "",
          "type": "bool"
        }
      ],
      "stateMutability": "view",
      "type": "function"
    },
    {
      "inputs": [
        {
          "internalType": "address",
          "name": "from",
          "type": "address"
        },
        {
          "internalType": "address",
          "name": "to",
          "type": "address"
        },
        {
          "internalType": "uint256",
          "name": "tokenId",
          "type": "uint256"
        }
      ],
      "name": "safeTransferFrom",
      "outputs": [],
      "stateMutability": "nonpayable",
      "type": "function"
    },
    {
      "inputs": [
        {
          "internalType": "address",
          "name": "from",
          "type": "address"
        },
        {
          "internalType": "address",
          "name": "to",
          "type": "address"
        },
        {
          "internalType": "uint256",
          "name": "tokenId",
          "type": "uint256"
        },
        {
          "internalType": "bytes",
          "name": "data",
          "type": "bytes"
        }
      ],
      "name": "safeTransferFrom",
      "outputs": [],
      "stateMutability": "nonpayable",
      "type": "function"
    },
    {
      "inputs": [
        {
          "internalType": "address",
          "name": "operator",
          "type": "address"
        },
        {
          "internalType": "bool",
          "name": "approved",
          "type": "bool"
        }
      ],
      "name": "setApprovalForAll",
      "outputs": [],
      "stateMutability": "nonpayable",
      "type": "function"
    },
    {
      "inputs": [
        {
          "internalType": "bytes4",
          "name": "interfaceId",
          "type": "bytes4"
        }
      ],
      "name": "supportsInterface",
      "outputs": [
        {
          "internalType": "bool",
          "name": "",
          "type": "bool"
        }
      ],
      "stateMutability": "view",
      "type": "function"
    },
    {
      "inputs": [],
      "name": "symbol",
      "outputs": [
        {
          "internalType": "string",
          "name": "",
          "type": "string"
        }
      ],
      "stateMutability": "view",
      "type": "function"
    },
    {
      "inputs": [
        {
          "internalType": "uint256",
          "name": "tokenId",
          "type": "uint256"
        }
      ],
      "name": "tokenURI",
      "outputs": [
        {
          "internalType": "string",
          "name": "",
          "type": "string"
        }
      ],
      "stateMutability": "view",
      "type": "function"
    },
    {
      "inputs": [
        {
          "internalType": "address",
          "name": "from",
          "type": "address"
        },
        {
          "internalType": "address",
          "name": "to",
          "type": "address"
        },
        {
          "internalType": "uint256",
          "name": "tokenId",
          "type": "uint256"
        }
      ],
      "name": "transferFrom",
      "outputs": [],
      "stateMutability": "nonpayable",
      "type": "function"
    },
    {
      "inputs": [
        {
          "internalType": "uint256",
          "name": "tokenId",
          "type": "uint256"
        }
      ],
      "name": "transferToManufacturer",
      "outputs": [],
      "stateMutability": "nonpayable",
      "type": "function"
    },
    {
      "inputs": [],
      "name": "treeLevel",
      "outputs": [
        {
          "internalType": "uint256",
          "name": "",
          "type": "uint256"
        }
      ],
      "stateMutability": "view",
      "type": "function"
    },
    {
      "inputs": [
        {
          "internalType": "uint256[24]",
          "name": "_proof",
          "type": "uint256[24]"
        },
        {
          "internalType": "uint256[3]",
          "name": "_pubSignals",
          "type": "uint256[3]"
        }
      ],
      "name": "verifyPlonk",
      "outputs": [],
      "stateMutability": "payable",
      "type": "function"
    },
    {
      "inputs": [
        {
          "internalType": "uint256",
          "name": "",
          "type": "uint256"
        }
      ],
      "name": "wishlistItems",
      "outputs": [
        {
          "internalType": "uint8",
          "name": "",
          "type": "uint8"
        }
      ],
      "stateMutability": "view",
      "type": "function"
    }
  ],
  "bytecode": "0x600a6010819055670de0b6b3a764000060115560006012556101c06040527f8cfd904a1564f728bad463e11678c335bbe7bb55e73a07588b14f8bd04545c3d60809081527f3a362132ff01c0f19143e7526b28c6fdcabecaad0dfcdfdf6d8f23483b99438460a0527fcafc0f3216abfccb1134117a825ba2e17388c9b09877b1fee9873697c41de04460c0527f52d21251f1b6967a0505130ebea06b9d8e8cb000abe492df5259d6678b0e215360e0527f1548db067f3cf9a942c70c5ce0b6048806dd74e2b709f1d30e7a191548943a9d610100527f1ea1a9099c5691137f1d3d1830867cdd75c536dff279663aefb7b49f7798f4cb610120527f772dac99aed444be6218c8da12c933163e165b31f1099b7869f4ec29ba4da1c7610140527fc1c6314026af83a766e1ad18d985ac243fadcf9c07932757904500e6cff80b98610160527fa23d32762958399632e9e0b52d049042041484a30974a83254af4e50893ad991610180527f7ae8404bbd3493825346a185473e48d1015672145bef4cd06002212e65ed18ce6101a0526200019c916017919062000267565b50348015620001aa57600080fd5b50604051620029ec380380620029ec833981016040819052620001cd91620002de565b6040518060400160405280600b81526020016a15da5cda1b1a5cdd13919560aa1b8152506040518060400160405280600481526020016315d3919560e21b81525081600090816200021f9190620003bb565b5060016200022e8282620003bb565b5050600d80546001600160a01b039485166001600160a01b031991821617909155600f8054939094169216919091179091555062000487565b82600a810192821562000298579160200282015b82811115620002985782518255916020019190600101906200027b565b50620002a6929150620002aa565b5090565b5b80821115620002a65760008155600101620002ab565b80516001600160a01b0381168114620002d957600080fd5b919050565b60008060408385031215620002f257600080fd5b620002fd83620002c1565b91506200030d60208401620002c1565b90509250929050565b634e487b7160e01b600052604160045260246000fd5b600181811c908216806200034157607f821691505b6020821081036200036257634e487b7160e01b600052602260045260246000fd5b50919050565b601f821115620003b657600081815260208120601f850160051c81016020861015620003915750805b601f850160051c820191505b81811015620003b2578281556001016200039d565b5050505b505050565b81516001600160401b03811115620003d757620003d762000316565b620003ef81620003e884546200032c565b8462000368565b602080601f8311600181146200042757600084156200040e5750858301515b600019600386901b1c1916600185901b178555620003b2565b600085815260208120601f198616915b82811015620004585788860151825594840194600190910190840162000437565b5085821015620004775787850151600019600388901b60f8161c191681555b5050505050600190811b01905550565b61255580620004976000396000f3fe6080604052600436106101e25760003560e01c8063665bd42111610102578063a22cb46511610095578063c87b56dd11610064578063c87b56dd146105eb578063dad46ced1461060b578063e985e9c514610641578063f1e931851461066157600080fd5b8063a22cb46514610565578063b88d4fde14610585578063b8e79564146105a5578063c2b40ae4146105bb57600080fd5b806390884e0d116100d157806390884e0d146104e357806392c6811a1461050357806395d89b41146105305780639ccfd5181461054557600080fd5b8063665bd4211461046a5780636a81beb31461049a57806370a08231146104ad5780638bca6d16146104cd57600080fd5b806340042a8e1161017a57806349ce89971161014957806349ce8997146103a257806352d5d0ee146103d25780635f609c0b146104145780636352211e1461044a57600080fd5b806340042a8e1461031b57806342842e0e1461034b57806345e0523f1461036b5780634755c7461461038f57600080fd5b8063095ea7b3116101b6578063095ea7b3146102985780631db140ba146102b85780631f79a1e9146102cb57806323b872dd146102fb57600080fd5b80624e6794146101e757806301ffc9a71461020957806306fdde031461023e578063081812fc14610260575b600080fd5b3480156101f357600080fd5b50610207610202366004611dff565b61068e565b005b34801561021557600080fd5b50610229610224366004611e31565b61078e565b60405190151581526020015b60405180910390f35b34801561024a57600080fd5b506102536107e0565b6040516102359190611e9e565b34801561026c57600080fd5b5061028061027b366004611dff565b610872565b6040516001600160a01b039091168152602001610235565b3480156102a457600080fd5b506102076102b3366004611ecd565b61089b565b6102076102c6366004611ef7565b6108a6565b3480156102d757600080fd5b506102296102e6366004611dff565b60156020526000908152604090205460ff1681565b34801561030757600080fd5b50610207610316366004611f3c565b610ad1565b34801561032757600080fd5b50610229610336366004611dff565b60086020526000908152604090205460ff1681565b34801561035757600080fd5b50610207610366366004611f3c565b610b5c565b34801561037757600080fd5b5061038160125481565b604051908152602001610235565b61020761039d366004611f89565b610b7c565b3480156103ae57600080fd5b506102296103bd366004611dff565b60166020526000908152604090205460ff1681565b3480156103de57600080fd5b506104026103ed366004611dff565b60076020526000908152604090205460ff1681565b60405160ff9091168152602001610235565b34801561042057600080fd5b5061028061042f366004611dff565b600a602052600090815260409020546001600160a01b031681565b34801561045657600080fd5b50610280610465366004611dff565b610d40565b34801561047657600080fd5b50610402610485366004611dff565b60066020526000908152604090205460ff1681565b6102076104a8366004611dff565b610d4b565b3480156104b957600080fd5b506103816104c8366004611fb5565b611084565b3480156104d957600080fd5b5061038160115481565b3480156104ef57600080fd5b506102076104fe366004611dff565b6110cc565b34801561050f57600080fd5b5061038161051e366004611dff565b600b6020526000908152604090205481565b34801561053c57600080fd5b5061025361122c565b34801561055157600080fd5b50610207610560366004611fd0565b61123b565b34801561057157600080fd5b5061020761058036600461201d565b611415565b34801561059157600080fd5b506102076105a036600461206f565b611420565b3480156105b157600080fd5b5061038160105481565b3480156105c757600080fd5b506102296105d6366004611dff565b60136020526000908152604090205460ff1681565b3480156105f757600080fd5b50610253610606366004611dff565b611438565b34801561061757600080fd5b50610280610626366004611dff565b6009602052600090815260409020546001600160a01b031681565b34801561064d57600080fd5b5061022961065c36600461214b565b6114ad565b34801561066d57600080fd5b5061038161067c366004611dff565b600c6020526000908152604090205481565b6000818152600a60205260409020546001600160a01b0316806107035760405162461bcd60e51b815260206004820152602260248201527f4d616e756661637475726572206e6f742073657420666f722074686973206974604482015261656d60f01b60648201526084015b60405180910390fd5b3361070d83610d40565b6001600160a01b03161461076f5760405162461bcd60e51b815260206004820152602360248201527f4f6e6c7920746865206f776e65722063616e207472616e73666572207468652060448201526213919560ea1b60648201526084016106fa565b61078a338284604051806020016040528060008152506114db565b5050565b60006001600160e01b031982166380ac58cd60e01b14806107bf57506001600160e01b03198216635b5e139f60e01b145b806107da57506301ffc9a760e01b6001600160e01b03198316145b92915050565b6060600080546107ef90612175565b80601f016020809104026020016040519081016040528092919081815260200182805461081b90612175565b80156108685780601f1061083d57610100808354040283529160200191610868565b820191906000526020600020905b81548152906001019060200180831161084b57829003601f168201915b5050505050905090565b600061087d826114e6565b506000828152600460205260409020546001600160a01b03166107da565b61078a82823361151f565b60208082013560008181526015909252604091829020548335928401359060ff16156109045760405162461bcd60e51b815260206004820152600d60248201526c185b1c9958591e4b5cdc195b9d609a1b60448201526064016106fa565b60008381526013602052604090205460ff1661094d5760405162461bcd60e51b81526020600482015260086024820152671b9bdb8b5c9bdbdd60c21b60448201526064016106fa565b600f54604080516060810182528581526020810185905280820184905290516000926001600160a01b031691610988918991906024016121c5565b60408051601f198184030181529181526020820180516001600160e01b0316630eac01ff60e11b179052516109bd9190612200565b6000604051808303816000865af19150503d80600081146109fa576040519150601f19603f3d011682016040523d82523d6000602084013e6109ff565b606091505b5050905080610a505760405162461bcd60e51b815260206004820152601c60248201527f696e76616c6964207a65726f206b6e6f776c656467652070726f6f660000000060448201526064016106fa565b60008381526015602052604090819020805460ff1916600190811790915560115491516323aae3a360e11b81526004810185905260248101919091523091634755c746916044016000604051808303818588803b158015610ab057600080fd5b505af1158015610ac4573d6000803e3d6000fd5b5050505050505050505050565b6001600160a01b038216610afb57604051633250574960e11b8152600060048201526024016106fa565b6000610b0883833361152c565b9050836001600160a01b0316816001600160a01b031614610b56576040516364283d7b60e01b81526001600160a01b03808616600483015260248201849052821660448201526064016106fa565b50505050565b610b7783838360405180602001604052806000815250611420565b505050565b60008281526006602052604090205460ff16610bd15760405162461bcd60e51b8152602060048201526014602482015273125d195b481b9bdd081a5b881dda5cda1b1a5cdd60621b60448201526064016106fa565b60008281526008602052604090205460ff1615610c265760405162461bcd60e51b8152602060048201526013602482015272125d195b48185b1c9958591e481b5a5b9d1959606a1b60448201526064016106fa565b610c3b60ff8216670de0b6b3a7640000612232565b67ffffffffffffffff163414610c8c5760405162461bcd60e51b8152602060048201526016602482015275125b98dbdc9c9958dd08115d1a195c88185b5bdd5b9d60521b60448201526064016106fa565b60008281526007602052604081208054839290610cad90849060ff1661225e565b92506101000a81548160ff021916908360ff160217905550336001600160a01b0316827fa7b89af353380e12b2c4f0e865f9af5848bd917ea72978858a547bafb2c8cad483604051610d08919060ff91909116815260200190565b60405180910390a360008281526006602090815260408083205460079092529091205460ff91821691161061078a5761078a82611625565b60006107da826114e6565b60008181526016602052604090205460ff1615610daa5760405162461bcd60e51b815260206004820152601960248201527f6475706c696361746520636f6d6d69746d656e7420686173680000000000000060448201526064016106fa565b601054610db890600261235b565b60125410610dfb5760405162461bcd60e51b815260206004820152601060248201526f1d1a19481d1c9959481a5cc8199d5b1b60821b60448201526064016106fa565b6000610e05611dc2565b610e0d611dc2565b60125484600080610e1c611de1565b60005b6010548160ff161015610fe857610e3760028761237d565b600003610eb65784935060178160ff16600a8110610e5757610e576121af565b0154925060178160ff16600a8110610e7157610e716121af565b0154888260ff16600a8110610e8857610e886121af565b602002015260008760ff8316600a8110610ea457610ea46121af565b60ff9092166020929092020152610f0c565b60ff8116600081815260146020526040902054945085935084908990600a8110610ee257610ee26121af565b602002015260018760ff8316600a8110610efe57610efe6121af565b60ff90921660209290920201525b60ff81166000908152601460205260408120869055849083906020020152828260016020020181815250506000600d60009054906101000a90046001600160a01b03166001600160a01b031663d622e5a4620249f0858e6040518463ffffffff1660e01b8152600401610f80929190612391565b6020604051808303818786fa158015610f9d573d6000803e3d6000fd5b50505050506040513d601f19601f82011682018060405250810190610fc291906123c9565b9550859050610fd26002886123e2565b9650508080610fe0906123f6565b915050610e1f565b506000848152601360205260408120805460ff1916600190811790915560128054969a508a969192909161101d908490612415565b909155505060008981526016602052604090819020805460ff19166001179055517f896663b5db78d158499a6a38a2f114f6098cbe51422e4528677a4f0beb096e2f90611071908a908a908a903490612428565b60405180910390a1505050505050505050565b60006001600160a01b0382166110b0576040516322718ad960e21b8152600060048201526024016106fa565b506001600160a01b031660009081526003602052604090205490565b6000818152600a60205260409020546001600160a01b03163381146111445760405162461bcd60e51b815260206004820152602860248201527f4f6e6c7920746865206d616e7566616374757265722063616e2072656465656d604482015267081d1a194813919560c21b60648201526084016106fa565b61114d82611743565b6000828152600b6020526040902054478111156111ac5760405162461bcd60e51b815260206004820152601d60248201527f496e73756666696369656e7420636f6e74726163742062616c616e636500000060448201526064016106fa565b6040516001600160a01b0383169082156108fc029083906000818181858888f193505050501580156111e2573d6000803e3d6000fd5b50816001600160a01b0316837fdaebf1bed3456d9641e8a8df8491a6bc4f2499a2a2fbd9bbe6250a0a67fadf2e8360405161121f91815260200190565b60405180910390a3505050565b6060600180546107ef90612175565b60008481526008602052604090205460ff16156112905760405162461bcd60e51b81526020600482015260136024820152724974656d20616c72656164792065786973747360681b60448201526064016106fa565b6001600160a01b0382166112e65760405162461bcd60e51b815260206004820152601960248201527f496e76616c696420726563697069656e7420616464726573730000000000000060448201526064016106fa565b6001600160a01b03811661133c5760405162461bcd60e51b815260206004820152601c60248201527f496e76616c6964206d616e75666163747572657220616464726573730000000060448201526064016106fa565b6000848152600660209081526040808320805460ff881660ff1990911681179091556009835281842080546001600160a01b038089166001600160a01b031992831617909255600a909452919093208054918516919092161790556113a990670de0b6b3a7640000612232565b6000858152600b602090815260409182902067ffffffffffffffff939093169092555160ff851681526001600160a01b03808416929085169187917f7738b37b6a1e29a5626a6f19ef31492a48812a756b1b93eede06c077f8d4b176910160405180910390a450505050565b61078a33838361177e565b61142b848484610ad1565b610b563385858585611815565b6060611443826114e6565b50600061145b60408051602081019091526000815290565b9050600081511161147b57604051806020016040528060008152506114a6565b8061148584611940565b604051602001611496929190612496565b6040516020818303038152906040525b9392505050565b6001600160a01b03918216600090815260056020908152604080832093909416825291909152205460ff1690565b61142b8484846119d3565b6000818152600260205260408120546001600160a01b0316806107da57604051637e27328960e01b8152600481018490526024016106fa565b610b778383836001611a83565b6000828152600260205260408120546001600160a01b039081169083161561155957611559818486611b89565b6001600160a01b0381161561159757611576600085600080611a83565b6001600160a01b038116600090815260036020526040902080546000190190555b6001600160a01b038516156115c6576001600160a01b0385166000908152600360205260409020805460010190555b60008481526002602052604080822080546001600160a01b0319166001600160a01b0389811691821790925591518793918516917fddf252ad1be2c89b69c2b068fc378daa952ba7f163c4a11628f55a4df523b3ef91a4949350505050565b60008181526008602052604090205460ff16156116845760405162461bcd60e51b815260206004820181905260248201527f4e465420616c7265616479206d696e74656420666f722074686973206974656d60448201526064016106fa565b6000818152600960205260409020546001600160a01b0316806116e95760405162461bcd60e51b815260206004820152601f60248201527f526563697069656e74206e6f742073657420666f722074686973206974656d0060448201526064016106fa565b6116f38183611bed565b600082815260086020526040808220805460ff19166001179055516001600160a01b0383169184917f0176f203df400d7bd5f1b1c9ef36c16709bf3b5d9fd35f000a6bae32393f66c39190a35050565b6000611752600083600061152c565b90506001600160a01b03811661078a57604051637e27328960e01b8152600481018390526024016106fa565b6001600160a01b0382166117b057604051630b61174360e31b81526001600160a01b03831660048201526024016106fa565b6001600160a01b03838116600081815260056020908152604080832094871680845294825291829020805460ff191686151590811790915591519182527f17307eab39ab6107e8899845ad3d59bd9653f200f220920489ca2b5937696c31910161121f565b6001600160a01b0383163b1561193957604051630a85bd0160e11b81526001600160a01b0384169063150b7a02906118579088908890879087906004016124c5565b6020604051808303816000875af1925050508015611892575060408051601f3d908101601f1916820190925261188f91810190612502565b60015b6118fb573d8080156118c0576040519150601f19603f3d011682016040523d82523d6000602084013e6118c5565b606091505b5080516000036118f357604051633250574960e11b81526001600160a01b03851660048201526024016106fa565b805181602001fd5b6001600160e01b03198116630a85bd0160e11b1461193757604051633250574960e11b81526001600160a01b03851660048201526024016106fa565b505b5050505050565b6060600061194d83611c07565b600101905060008167ffffffffffffffff81111561196d5761196d612059565b6040519080825280601f01601f191660200182016040528015611997576020820181803683370190505b5090508181016020015b600019016f181899199a1a9b1b9c1cb0b131b232b360811b600a86061a8153600a85049450846119a157509392505050565b6001600160a01b0382166119fd57604051633250574960e11b8152600060048201526024016106fa565b6000611a0b8383600061152c565b90506001600160a01b038116611a3757604051637e27328960e01b8152600481018390526024016106fa565b836001600160a01b0316816001600160a01b031614610b56576040516364283d7b60e01b81526001600160a01b03808616600483015260248201849052821660448201526064016106fa565b8080611a9757506001600160a01b03821615155b15611b59576000611aa7846114e6565b90506001600160a01b03831615801590611ad35750826001600160a01b0316816001600160a01b031614155b8015611ae65750611ae481846114ad565b155b15611b0f5760405163a9fbf51f60e01b81526001600160a01b03841660048201526024016106fa565b8115611b575783856001600160a01b0316826001600160a01b03167f8c5be1e5ebec7d5bd14f71427d1e84f3dd0314c0f7b2291e5b200ac8c7c3b92560405160405180910390a45b505b5050600090815260046020526040902080546001600160a01b0319166001600160a01b0392909216919091179055565b611b94838383611cdf565b610b77576001600160a01b038316611bc257604051637e27328960e01b8152600481018290526024016106fa565b60405163177e802f60e01b81526001600160a01b0383166004820152602481018290526044016106fa565b61078a828260405180602001604052806000815250611d45565b60008072184f03e93ff9f4daa797ed6e38ed64bf6a1f0160401b8310611c465772184f03e93ff9f4daa797ed6e38ed64bf6a1f0160401b830492506040015b6d04ee2d6d415b85acef81000000008310611c72576d04ee2d6d415b85acef8100000000830492506020015b662386f26fc100008310611c9057662386f26fc10000830492506010015b6305f5e1008310611ca8576305f5e100830492506008015b6127108310611cbc57612710830492506004015b60648310611cce576064830492506002015b600a83106107da5760010192915050565b60006001600160a01b03831615801590611d3d5750826001600160a01b0316846001600160a01b03161480611d195750611d1984846114ad565b80611d3d57506000828152600460205260409020546001600160a01b038481169116145b949350505050565b611d4f8383611d5d565b610b77336000858585611815565b6001600160a01b038216611d8757604051633250574960e11b8152600060048201526024016106fa565b6000611d958383600061152c565b90506001600160a01b03811615610b77576040516339e3563760e11b8152600060048201526024016106fa565b604051806101400160405280600a906020820280368337509192915050565b60405180604001604052806002906020820280368337509192915050565b600060208284031215611e1157600080fd5b5035919050565b6001600160e01b031981168114611e2e57600080fd5b50565b600060208284031215611e4357600080fd5b81356114a681611e18565b60005b83811015611e69578181015183820152602001611e51565b50506000910152565b60008151808452611e8a816020860160208601611e4e565b601f01601f19169290920160200192915050565b6020815260006114a66020830184611e72565b80356001600160a01b0381168114611ec857600080fd5b919050565b60008060408385031215611ee057600080fd5b611ee983611eb1565b946020939093013593505050565b600080610360808486031215611f0c57600080fd5b610300840185811115611f1e57600080fd5b849350858286011115611f3057600080fd5b80925050509250929050565b600080600060608486031215611f5157600080fd5b611f5a84611eb1565b9250611f6860208501611eb1565b9150604084013590509250925092565b803560ff81168114611ec857600080fd5b60008060408385031215611f9c57600080fd5b82359150611fac60208401611f78565b90509250929050565b600060208284031215611fc757600080fd5b6114a682611eb1565b60008060008060808587031215611fe657600080fd5b84359350611ff660208601611f78565b925061200460408601611eb1565b915061201260608601611eb1565b905092959194509250565b6000806040838503121561203057600080fd5b61203983611eb1565b91506020830135801515811461204e57600080fd5b809150509250929050565b634e487b7160e01b600052604160045260246000fd5b6000806000806080858703121561208557600080fd5b61208e85611eb1565b935061209c60208601611eb1565b925060408501359150606085013567ffffffffffffffff808211156120c057600080fd5b818701915087601f8301126120d457600080fd5b8135818111156120e6576120e6612059565b604051601f8201601f19908116603f0116810190838211818310171561210e5761210e612059565b816040528281528a602084870101111561212757600080fd5b82602086016020830137600060208483010152809550505050505092959194509250565b6000806040838503121561215e57600080fd5b61216783611eb1565b9150611fac60208401611eb1565b600181811c9082168061218957607f821691505b6020821081036121a957634e487b7160e01b600052602260045260246000fd5b50919050565b634e487b7160e01b600052603260045260246000fd5b61036081016103008085843782018360005b60038110156121f65781518352602092830192909101906001016121d7565b5050509392505050565b60008251612212818460208701611e4e565b9190910192915050565b634e487b7160e01b600052601160045260246000fd5b67ffffffffffffffff8181168382160280821691908281146122565761225661221c565b505092915050565b60ff81811683821601908111156107da576107da61221c565b600181815b808511156122b25781600019048211156122985761229861221c565b808516156122a557918102915b93841c939080029061227c565b509250929050565b6000826122c9575060016107da565b816122d6575060006107da565b81600181146122ec57600281146122f657612312565b60019150506107da565b60ff8411156123075761230761221c565b50506001821b6107da565b5060208310610133831016604e8410600b8410161715612335575081810a6107da565b61233f8383612277565b80600019048211156123535761235361221c565b029392505050565b60006114a683836122ba565b634e487b7160e01b600052601260045260246000fd5b60008261238c5761238c612367565b500690565b60608101818460005b60028110156123b957815183526020928301929091019060010161239a565b5050508260408301529392505050565b6000602082840312156123db57600080fd5b5051919050565b6000826123f1576123f1612367565b500490565b600060ff821660ff810361240c5761240c61221c565b60010192915050565b808201808211156107da576107da61221c565b8481526102c0810160208083018660005b600a81101561245657815183529183019190830190600101612439565b50505061016083018560005b600a81101561248257815160ff1683529183019190830190600101612462565b50505050826102a083015295945050505050565b600083516124a8818460208801611e4e565b8351908301906124bc818360208801611e4e565b01949350505050565b6001600160a01b03858116825284166020820152604081018390526080606082018190526000906124f890830184611e72565b9695505050505050565b60006020828403121561251457600080fd5b81516114a681611e1856fea26469706673582212204954943e41e89f18d62582d7c6a65bec91dbb29852c2a65f30f30c40fe04ce4a64736f6c63430008140033",
  "linkReferences": {},
  "deployedLinkReferences": {}
}