{"contracts/PlonkVerifier.sol":{"PlonkVerifier":{"abi":[{"inputs":[{"internalType":"uint256[24]","name":"_proof","type":"uint256[24]"},{"internalType":"uint256[3]","name":"_pubSignals","type":"uint256[3]"}],"name":"verifyProof","outputs":[{"internalType":"bool","name":"","type":"bool"}],"stateMutability":"view","type":"function"}],"evm":{"bytecode":{"linkReferences":{},"object":"608060405234801561001057600080fd5b50611699806100206000396000f3fe608060405234801561001057600080fd5b506004361061002b5760003560e01c80631d5803fe14610030575b600080fd5b61004361003e3660046115be565b610057565b604051901515815260200160405180910390f35b600061154f565b600080600184846000805b821561008b575092938183058581029091039350909181830290039081610069565b505050600181111561009c57600080fd5b505060008112156100aa5783015b9392505050565b60405181602084028301815160208301925060005b828410156100f7578185526000805160206116248339815191528451830991506020850194506020840193506100c6565b61010f6000805160206116248339815191528361005e565b91506020850394506020840393508592505b828411156101665760008051602061162483398151915285518309905060008051602061162483398151915284518309818552601f1995860195909401939150610121565b5090915250505050565b600080516020611624833981519152811061018f576000805260206000f35b50565b61019e61024435610170565b6101aa61026435610170565b6101b661028435610170565b6101c26102a435610170565b6101ce6102c435610170565b6101da6102e435610170565b565b604080517f078aee29c2d491508ad9e85c6e2f370c5feef3c87b3040c6896e38d6073fff1a81527f16d95e3c9cac35714d7d14eace8721eb155ae3df0c11ef8a6dde64b30e8a3a2160208083019182527f12d0c23feb5a79992276df8545e2adf5b25da13943b467d5fa64834da975cdaf8385019081527f1fe33f4cbbbffc02f982595707a91d8c4184132b6ec71795e0a21246f739801e606085019081527f0e363253319f1cff8a98dc9cbee4fa399fc9eb773d2c1fc831fd7e776e14dae36080808701919091527ede5e5af4a05792b0a26c54725e59813f96d1152c05cedf14286c66132fe83560a08701527f27f19877b57d62d703a2eab653fef3a216e51cf2fde40b5d69c6735ceb5f99dd60c08701527f158844b456c28ae28b139d1a1352162366b77cd182f0b2ead776fce874107cf260e08701527f14b1b0ed8623e7fa1424fc0154962962ef7924aeb175d0b2f1e112af9d6653df6101008701527f2aab49b0893da539e52ef4b4499f1d2a1fc428df775e2015146e42d465eaceaa6101208701527f305ee94f6735cdc0ee5d823526227e40fea3c67e0656be269e63db0e96fd2eb86101408701527f2b2f9dc82d7ea98a2124112f0e01fe494cc80095084f4758ff9852f7a9bd3ee16101608701527f0fbdf0441ba745557d6d2a93088b4972d414805d6e0bca9e5d558c6002aa80116101808701527f1828fe134f7ed9375752b02aaa06bf5435c4352500221990c25192f96f7f0dc36101a08701527f1037b05695357029391af4b0e071bfeb960a1c42a4f646db583f4ba69676bd736101c08701527f17b3b81528a9791fc17b04f39cd27e7012eef75192bbbdc0f669b9ef1a14079e6101e0870152883561020087015288840135610220870152888701356102408701526004356102608701526024356102808701526044356102a08701526064356102c08701526084356102e087015260a43561030087015261032086206000805160206116248339815191529081900689860181815295909520819006978901978852848752965190945260c43590915260e435905290822083900680855290929091908280096102c08501528181526101043560208201526020610104013560408201526101443560608201526020610144013560808201526101843560a08201526020610184013560c082015260008051602061162483398151915260e082200691508160608501528181526102443560208201526102643560408201526102843560608201526102a43560808201526102c43560a08201526102e43560c082015260008051602061162483398151915260e08220068060c086015260008051602061162483398151915283850960a0860152600080516020611624833981519152838409925060008051602061162483398151915283840992506000805160206116248339815191528384099250600080516020611624833981519152838409925060008051602061162483398151915283840992506000805160206116248339815191528384099250600080516020611624833981519152838409925060008051602061162483398151915283840992506000805160206116248339815191528384099250600080516020611624833981519152838409925060008051602061162483398151915283840992506000805160206116248339815191528384099250826080860152600080516020611624833981519152806001850301069250826102e08601528261030086015260008051602061162483398151915281820992508260e0860152600080516020611624833981519152818409925082610100860152600080516020611624833981519152818409925082610120860152600080516020611624833981519152818409610140860152506101c43581526101e435602082015261020435604082015261022435606082015260809020600080516020611624833981519152900661016090930192909252505050565b60016000805160206116248339815191528060008051602061162483398151915283606086015103010661100009610320830152600080516020611624833981519152600080516020611644833981519152820990506000805160206116248339815191528060008051602061162483398151915283606086015103010661100009610340830152600080516020611624833981519152600080516020611644833981519152820990506000805160206116248339815191528060008051602061162483398151915283606086015103010661100009610360830152610872600461030084016100b1565b6102e0820151600191506000805160206116248339815191528161032085015109610320840152600080516020611624833981519152600080516020611644833981519152830991506000805160206116248339815191528082610340860151098309610340840152600080516020611624833981519152600080516020611644833981519152830991506000805160206116248339815191528082610360860151098309610360840152505050565b600060008051602061162483398151915280600080516020611624833981519152600086013561032086015109830301069050600080516020611624833981519152806000805160206116248339815191526020860135610340860151098303010690506000805160206116248339815191528060008051602061162483398151915260408601356103608601510983030106905080610180830152505050565b6101808101516000805160206116248339815191526102c083015161032084015109600080516020611624833981519152806102a4356020860151096102443508600080516020611624833981519152604085015182089050600080516020611624833981519152806102c4356020870151096102643508600080516020611624833981519152604086015182089050600080516020611624833981519152604086015161028435086000805160206116248339815191528160008051602061162483398151915284860909925050506000805160206116248339815191526102e43582099050600080516020611624833981519152600085015182099050600080516020611624833981519152808360008051602061162483398151915203068408925060008051602061162483398151915280826000805160206116248339815191520306840892505050806101a08301525050565b6040518151815260208201516020820152825160408201526020830151606082015260408260808360066107d05a03fa905080610b5c576000805260206000f35b505050565b50505050565b600060405183815284602082015285604082015260408160608360076107d05a03fa915081610b9a576000805260206000f35b825160408201526020830151606082015260408360808360066107d05a03fa91505080610bcb576000805260206000f35b5050505050565b600060405183815284602082015285604082015260408360608360076107d05a03fa91505080610bcb576000805260206000f35b610b5c836020840151845184610bd2565b6101c0810160408201516040516101008101604052610c7b7f2aab49b0893da539e52ef4b4499f1d2a1fc428df775e2015146e42d465eaceaa7f14b1b0ed8623e7fa1424fc0154962962ef7924aeb175d0b2f1e112af9d6653df8590815260200152565b610cde6000805160206116248339815191526102643561024435097f16d95e3c9cac35714d7d14eace8721eb155ae3df0c11ef8a6dde64b30e8a3a217f078aee29c2d491508ad9e85c6e2f370c5feef3c87b3040c6896e38d6073fff1a86610b67565b610d2d610244357f1fe33f4cbbbffc02f982595707a91d8c4184132b6ec71795e0a21246f739801e7f12d0c23feb5a79992276df8545e2adf5b25da13943b467d5fa64834da975cdaf86610b67565b610d7b610264357ede5e5af4a05792b0a26c54725e59813f96d1152c05cedf14286c66132fe8357f0e363253319f1cff8a98dc9cbee4fa399fc9eb773d2c1fc831fd7e776e14dae386610b67565b610dca610284357f158844b456c28ae28b139d1a1352162366b77cd182f0b2ead776fce874107cf27f27f19877b57d62d703a2eab653fef3a216e51cf2fde40b5d69c6735ceb5f99dd86610b67565b60a08401516000805160206116248339815191528360008051602061162483398151915283610244350808600080516020611624833981519152846000805160206116248339815191528060028609610264350808600080516020611624833981519152856000805160206116248339815191528060038709610284350808925060008051602061162483398151915260008801516000805160206116248339815191528560008051602061162483398151915285870909096000805160206116248339815191526102c08901516103208a01510960c43560c087015260e43560e0870152610ee46000805160206116248339815191526101608b01516000805160206116248339815191528486080860c0880188610c06565b505060008051602061162483398151915285600080516020611624833981519152806102a43560208c015109610244350808915060008051602061162483398151915285600080516020611624833981519152806102c43560208c01510961026435080890506000805160206116248339815191526102e43560008051602061162483398151915260208a015160008b015109099250610feb60008051602061162483398151915284600080516020611624833981519152848609097f17b3b81528a9791fc17b04f39cd27e7012eef75192bbbdc0f669b9ef1a14079e7f1037b05695357029391af4b0e071bfeb960a1c42a4f646db583f4ba69676bd7360408801610bd2565b5050506101043560808201526101243560a082015261101c6080850151602061014401356101443560808501610b67565b6080840151600080516020611624833981519152908009915061104a826101a4356101843560808501610b67565b6110666102e085015160a0830151608084015160808501610bd2565b60008051602061160483398151915260206040830101516000805160206116048339815191520306602060408301015260008051602061160483398151915260a0820151600080516020611604833981519152030660a08201526110ca8184610b1b565b6110d76040820184610b1b565b610b616080820184610b1b565b6101c081015161020082019081526101e082015161022083015260c08201516111139060243560043584610b67565b60e08201516111289060643560443584610b67565b61010082015161113e9060a43560843584610b67565b61118f6101208301517f2b2f9dc82d7ea98a2124112f0e01fe494cc80095084f4758ff9852f7a9bd3ee17f305ee94f6735cdc0ee5d823526227e40fea3c67e0656be269e63db0e96fd2eb884610b67565b6111e06101408301517f1828fe134f7ed9375752b02aaa06bf5435c4352500221990c25192f96f7f0dc37f0fbdf0441ba745557d6d2a93088b4972d414805d6e0bca9e5d558c6002aa801184610b67565b5050565b6000805160206116248339815191526101a082015160008051602061162483398151915203066000805160206116248339815191528060c08401516102443509820890506000805160206116248339815191528060e084015161026435098208905060008051602061162483398151915280610100840151610284350982089050600080516020611624833981519152806101208401516102a4350982089050600080516020611624833981519152806101408401516102c4350982089050600080516020611624833981519152806101608401516102e43509820890506111e081600260016102408601610bd2565b6000604051610240810160405261018081016101c0820161020083016113066101c48481358152602091820135910152565b6102043582526102243560208301526113256101608701518386610c06565b61132f8385610b1b565b6000805160206116048339815191526020850151600080516020611604833981519152030660208501527f0740b53fca626942bd02a8f1fad4fa5e7f5f4e1e3c3333d40320279792200e7160408501527f0d5d891207c890a1973217abfc68f60a487a6bbbb3c3a6449fd527e08ed5d80e60608501527f07506314691a8fb33acfd543f138bad018b405d9cd9ea8686e668ea0ef87cb5c60808501527f2640ec0df7ab25b1e5c3d05ad749dde45f169fe2a365c5c93bc95d16efef22ff60a085015261140360608701518460c08701610c06565b60008051602061162483398151915260608701516101608801510992506000805160206116248339815191526000805160206116448339815191528409925061144d838383610c06565b61145a8160c08601610b1b565b50505061146e610200840160c08301610b1b565b6102608301805160008051602061160483398151915290810306905261149b610240840160c08301610b1b565b7f198e9393920d483a7260bfb731fb5d25f1aa493335a9e71297e485b7aef312c26101008201527f1800deef121f1e76426a00665e5c4479674322d4f75edadd46debd5cd992f6ed6101208201527f090689d0585ff075ec9e99ad690c3395bc4b313370b38ef355acdadcd122975b6101408201527f12c85ea5db8c6deb4aab71808dcb408fe3d1e7690c43d37b4ce6cc0166fa7daa6101608201526020816101808360086107d05a03fa90511692915050565b6040516103808101604052611562610192565b61156c83826101dc565b61157581610787565b61157f8382610922565b611588816109c3565b61159181610c17565b61159a816110e4565b6115a3816111e4565b6115ac816112d4565b61038082036040528060005260206000f35b6000806103608084860312156115d357600080fd5b6103008401858111156115e557600080fd5b8493508582860111156115f757600080fd5b8092505050925092905056fe30644e72e131a029b85045b68181585d97816a916871ca8d3c208c16d87cfd4730644e72e131a029b85045b68181585d2833e84879b9709143e1f593f00000010931d596de2fd10f01ddd073fd5a90a976f169c76f039bb91c4775720042d43aa264697066735822122037ee392ba3202b17515887c8a2867f9c6464c9ea1bc080de1560867d4361b7fd64736f6c63430008140033","opcodes":"PUSH1 0x80 PUSH1 0x40 MSTORE CALLVALUE DUP1 ISZERO PUSH2 0x10 JUMPI PUSH1 0x0 DUP1 REVERT JUMPDEST POP PUSH2 0x1699 DUP1 PUSH2 0x20 PUSH1 0x0 CODECOPY PUSH1 0x0 RETURN INVALID PUSH1 0x80 PUSH1 0x40 MSTORE CALLVALUE DUP1 ISZERO PUSH2 0x10 JUMPI PUSH1 0x0 DUP1 REVERT JUMPDEST POP PUSH1 0x4 CALLDATASIZE LT PUSH2 0x2B JUMPI PUSH1 0x0 CALLDATALOAD PUSH1 0xE0 SHR DUP1 PUSH4 0x1D5803FE EQ PUSH2 0x30 JUMPI JUMPDEST PUSH1 0x0 DUP1 REVERT JUMPDEST PUSH2 0x43 PUSH2 0x3E CALLDATASIZE PUSH1 0x4 PUSH2 0x15BE JUMP JUMPDEST PUSH2 0x57 JUMP JUMPDEST PUSH1 0x40 MLOAD SWAP1 ISZERO ISZERO DUP2 MSTORE PUSH1 0x20 ADD PUSH1 0x40 MLOAD DUP1 SWAP2 SUB SWAP1 RETURN JUMPDEST PUSH1 0x0 PUSH2 0x154F JUMP JUMPDEST PUSH1 0x0 DUP1 PUSH1 0x1 DUP5 DUP5 PUSH1 0x0 DUP1 JUMPDEST DUP3 ISZERO PUSH2 0x8B JUMPI POP SWAP3 SWAP4 DUP2 DUP4 SDIV DUP6 DUP2 MUL SWAP1 SWAP2 SUB SWAP4 POP SWAP1 SWAP2 DUP2 DUP4 MUL SWAP1 SUB SWAP1 DUP2 PUSH2 0x69 JUMP JUMPDEST POP POP POP PUSH1 0x1 DUP2 GT ISZERO PUSH2 0x9C JUMPI PUSH1 0x0 DUP1 REVERT JUMPDEST POP POP PUSH1 0x0 DUP2 SLT ISZERO PUSH2 0xAA JUMPI DUP4 ADD JUMPDEST SWAP4 SWAP3 POP POP POP JUMP JUMPDEST PUSH1 0x40 MLOAD DUP2 PUSH1 0x20 DUP5 MUL DUP4 ADD DUP2 MLOAD PUSH1 0x20 DUP4 ADD SWAP3 POP PUSH1 0x0 JUMPDEST DUP3 DUP5 LT ISZERO PUSH2 0xF7 JUMPI DUP2 DUP6 MSTORE PUSH1 0x0 DUP1 MLOAD PUSH1 0x20 PUSH2 0x1624 DUP4 CODECOPY DUP2 MLOAD SWAP2 MSTORE DUP5 MLOAD DUP4 MULMOD SWAP2 POP PUSH1 0x20 DUP6 ADD SWAP5 POP PUSH1 0x20 DUP5 ADD SWAP4 POP PUSH2 0xC6 JUMP JUMPDEST PUSH2 0x10F PUSH1 0x0 DUP1 MLOAD PUSH1 0x20 PUSH2 0x1624 DUP4 CODECOPY DUP2 MLOAD SWAP2 MSTORE DUP4 PUSH2 0x5E JUMP JUMPDEST SWAP2 POP PUSH1 0x20 DUP6 SUB SWAP5 POP PUSH1 0x20 DUP5 SUB SWAP4 POP DUP6 SWAP3 POP JUMPDEST DUP3 DUP5 GT ISZERO PUSH2 0x166 JUMPI PUSH1 0x0 DUP1 MLOAD PUSH1 0x20 PUSH2 0x1624 DUP4 CODECOPY DUP2 MLOAD SWAP2 MSTORE DUP6 MLOAD DUP4 MULMOD SWAP1 POP PUSH1 0x0 DUP1 MLOAD PUSH1 0x20 PUSH2 0x1624 DUP4 CODECOPY DUP2 MLOAD SWAP2 MSTORE DUP5 MLOAD DUP4 MULMOD DUP2 DUP6 MSTORE PUSH1 0x1F NOT SWAP6 DUP7 ADD SWAP6 SWAP1 SWAP5 ADD SWAP4 SWAP2 POP PUSH2 0x121 JUMP JUMPDEST POP SWAP1 SWAP2 MSTORE POP POP POP POP JUMP JUMPDEST PUSH1 0x0 DUP1 MLOAD PUSH1 0x20 PUSH2 0x1624 DUP4 CODECOPY DUP2 MLOAD SWAP2 MSTORE DUP2 LT PUSH2 0x18F JUMPI PUSH1 0x0 DUP1 MSTORE PUSH1 0x20 PUSH1 0x0 RETURN JUMPDEST POP JUMP JUMPDEST PUSH2 0x19E PUSH2 0x244 CALLDATALOAD PUSH2 0x170 JUMP JUMPDEST PUSH2 0x1AA PUSH2 0x264 CALLDATALOAD PUSH2 0x170 JUMP JUMPDEST PUSH2 0x1B6 PUSH2 0x284 CALLDATALOAD PUSH2 0x170 JUMP JUMPDEST PUSH2 0x1C2 PUSH2 0x2A4 CALLDATALOAD PUSH2 0x170 JUMP JUMPDEST PUSH2 0x1CE PUSH2 0x2C4 CALLDATALOAD PUSH2 0x170 JUMP JUMPDEST PUSH2 0x1DA PUSH2 0x2E4 CALLDATALOAD PUSH2 0x170 JUMP JUMPDEST JUMP JUMPDEST PUSH1 0x40 DUP1 MLOAD PUSH32 0x78AEE29C2D491508AD9E85C6E2F370C5FEEF3C87B3040C6896E38D6073FFF1A DUP2 MSTORE PUSH32 0x16D95E3C9CAC35714D7D14EACE8721EB155AE3DF0C11EF8A6DDE64B30E8A3A21 PUSH1 0x20 DUP1 DUP4 ADD SWAP2 DUP3 MSTORE PUSH32 0x12D0C23FEB5A79992276DF8545E2ADF5B25DA13943B467D5FA64834DA975CDAF DUP4 DUP6 ADD SWAP1 DUP2 MSTORE PUSH32 0x1FE33F4CBBBFFC02F982595707A91D8C4184132B6EC71795E0A21246F739801E PUSH1 0x60 DUP6 ADD SWAP1 DUP2 MSTORE PUSH32 0xE363253319F1CFF8A98DC9CBEE4FA399FC9EB773D2C1FC831FD7E776E14DAE3 PUSH1 0x80 DUP1 DUP8 ADD SWAP2 SWAP1 SWAP2 MSTORE PUSH31 0xDE5E5AF4A05792B0A26C54725E59813F96D1152C05CEDF14286C66132FE835 PUSH1 0xA0 DUP8 ADD MSTORE PUSH32 0x27F19877B57D62D703A2EAB653FEF3A216E51CF2FDE40B5D69C6735CEB5F99DD PUSH1 0xC0 DUP8 ADD MSTORE PUSH32 0x158844B456C28AE28B139D1A1352162366B77CD182F0B2EAD776FCE874107CF2 PUSH1 0xE0 DUP8 ADD MSTORE PUSH32 0x14B1B0ED8623E7FA1424FC0154962962EF7924AEB175D0B2F1E112AF9D6653DF PUSH2 0x100 DUP8 ADD MSTORE PUSH32 0x2AAB49B0893DA539E52EF4B4499F1D2A1FC428DF775E2015146E42D465EACEAA PUSH2 0x120 DUP8 ADD MSTORE PUSH32 0x305EE94F6735CDC0EE5D823526227E40FEA3C67E0656BE269E63DB0E96FD2EB8 PUSH2 0x140 DUP8 ADD MSTORE PUSH32 0x2B2F9DC82D7EA98A2124112F0E01FE494CC80095084F4758FF9852F7A9BD3EE1 PUSH2 0x160 DUP8 ADD MSTORE PUSH32 0xFBDF0441BA745557D6D2A93088B4972D414805D6E0BCA9E5D558C6002AA8011 PUSH2 0x180 DUP8 ADD MSTORE PUSH32 0x1828FE134F7ED9375752B02AAA06BF5435C4352500221990C25192F96F7F0DC3 PUSH2 0x1A0 DUP8 ADD MSTORE PUSH32 0x1037B05695357029391AF4B0E071BFEB960A1C42A4F646DB583F4BA69676BD73 PUSH2 0x1C0 DUP8 ADD MSTORE PUSH32 0x17B3B81528A9791FC17B04F39CD27E7012EEF75192BBBDC0F669B9EF1A14079E PUSH2 0x1E0 DUP8 ADD MSTORE DUP9 CALLDATALOAD PUSH2 0x200 DUP8 ADD MSTORE DUP9 DUP5 ADD CALLDATALOAD PUSH2 0x220 DUP8 ADD MSTORE DUP9 DUP8 ADD CALLDATALOAD PUSH2 0x240 DUP8 ADD MSTORE PUSH1 0x4 CALLDATALOAD PUSH2 0x260 DUP8 ADD MSTORE PUSH1 0x24 CALLDATALOAD PUSH2 0x280 DUP8 ADD MSTORE PUSH1 0x44 CALLDATALOAD PUSH2 0x2A0 DUP8 ADD MSTORE PUSH1 0x64 CALLDATALOAD PUSH2 0x2C0 DUP8 ADD MSTORE PUSH1 0x84 CALLDATALOAD PUSH2 0x2E0 DUP8 ADD MSTORE PUSH1 0xA4 CALLDATALOAD PUSH2 0x300 DUP8 ADD MSTORE PUSH2 0x320 DUP7 KECCAK256 PUSH1 0x0 DUP1 MLOAD PUSH1 0x20 PUSH2 0x1624 DUP4 CODECOPY DUP2 MLOAD SWAP2 MSTORE SWAP1 DUP2 SWAP1 MOD DUP10 DUP7 ADD DUP2 DUP2 MSTORE SWAP6 SWAP1 SWAP6 KECCAK256 DUP2 SWAP1 MOD SWAP8 DUP10 ADD SWAP8 DUP9 MSTORE DUP5 DUP8 MSTORE SWAP7 MLOAD SWAP1 SWAP5 MSTORE PUSH1 0xC4 CALLDATALOAD SWAP1 SWAP2 MSTORE PUSH1 0xE4 CALLDATALOAD SWAP1 MSTORE SWAP1 DUP3 KECCAK256 DUP4 SWAP1 MOD DUP1 DUP6 MSTORE SWAP1 SWAP3 SWAP1 SWAP2 SWAP1 DUP3 DUP1 MULMOD PUSH2 0x2C0 DUP6 ADD MSTORE DUP2 DUP2 MSTORE PUSH2 0x104 CALLDATALOAD PUSH1 0x20 DUP3 ADD MSTORE PUSH1 0x20 PUSH2 0x104 ADD CALLDATALOAD PUSH1 0x40 DUP3 ADD MSTORE PUSH2 0x144 CALLDATALOAD PUSH1 0x60 DUP3 ADD MSTORE PUSH1 0x20 PUSH2 0x144 ADD CALLDATALOAD PUSH1 0x80 DUP3 ADD MSTORE PUSH2 0x184 CALLDATALOAD PUSH1 0xA0 DUP3 ADD MSTORE PUSH1 0x20 PUSH2 0x184 ADD CALLDATALOAD PUSH1 0xC0 DUP3 ADD MSTORE PUSH1 0x0 DUP1 MLOAD PUSH1 0x20 PUSH2 0x1624 DUP4 CODECOPY DUP2 MLOAD SWAP2 MSTORE PUSH1 0xE0 DUP3 KECCAK256 MOD SWAP2 POP DUP2 PUSH1 0x60 DUP6 ADD MSTORE DUP2 DUP2 MSTORE PUSH2 0x244 CALLDATALOAD PUSH1 0x20 DUP3 ADD MSTORE PUSH2 0x264 CALLDATALOAD PUSH1 0x40 DUP3 ADD MSTORE PUSH2 0x284 CALLDATALOAD PUSH1 0x60 DUP3 ADD MSTORE PUSH2 0x2A4 CALLDATALOAD PUSH1 0x80 DUP3 ADD MSTORE PUSH2 0x2C4 CALLDATALOAD PUSH1 0xA0 DUP3 ADD MSTORE PUSH2 0x2E4 CALLDATALOAD PUSH1 0xC0 DUP3 ADD MSTORE PUSH1 0x0 DUP1 MLOAD PUSH1 0x20 PUSH2 0x1624 DUP4 CODECOPY DUP2 MLOAD SWAP2 MSTORE PUSH1 0xE0 DUP3 KECCAK256 MOD DUP1 PUSH1 0xC0 DUP7 ADD MSTORE PUSH1 0x0 DUP1 MLOAD PUSH1 0x20 PUSH2 0x1624 DUP4 CODECOPY DUP2 MLOAD SWAP2 MSTORE DUP4 DUP6 MULMOD PUSH1 0xA0 DUP7 ADD MSTORE PUSH1 0x0 DUP1 MLOAD PUSH1 0x20 PUSH2 0x1624 DUP4 CODECOPY DUP2 MLOAD SWAP2 MSTORE DUP4 DUP5 MULMOD SWAP3 POP PUSH1 0x0 DUP1 MLOAD PUSH1 0x20 PUSH2 0x1624 DUP4 CODECOPY DUP2 MLOAD SWAP2 MSTORE DUP4 DUP5 MULMOD SWAP3 POP PUSH1 0x0 DUP1 MLOAD PUSH1 0x20 PUSH2 0x1624 DUP4 CODECOPY DUP2 MLOAD SWAP2 MSTORE DUP4 DUP5 MULMOD SWAP3 POP PUSH1 0x0 DUP1 MLOAD PUSH1 0x20 PUSH2 0x1624 DUP4 CODECOPY DUP2 MLOAD SWAP2 MSTORE DUP4 DUP5 MULMOD SWAP3 POP PUSH1 0x0 DUP1 MLOAD PUSH1 0x20 PUSH2 0x1624 DUP4 CODECOPY DUP2 MLOAD SWAP2 MSTORE DUP4 DUP5 MULMOD SWAP3 POP PUSH1 0x0 DUP1 MLOAD PUSH1 0x20 PUSH2 0x1624 DUP4 CODECOPY DUP2 MLOAD SWAP2 MSTORE DUP4 DUP5 MULMOD SWAP3 POP PUSH1 0x0 DUP1 MLOAD PUSH1 0x20 PUSH2 0x1624 DUP4 CODECOPY DUP2 MLOAD SWAP2 MSTORE DUP4 DUP5 MULMOD SWAP3 POP PUSH1 0x0 DUP1 MLOAD PUSH1 0x20 PUSH2 0x1624 DUP4 CODECOPY DUP2 MLOAD SWAP2 MSTORE DUP4 DUP5 MULMOD SWAP3 POP PUSH1 0x0 DUP1 MLOAD PUSH1 0x20 PUSH2 0x1624 DUP4 CODECOPY DUP2 MLOAD SWAP2 MSTORE DUP4 DUP5 MULMOD SWAP3 POP PUSH1 0x0 DUP1 MLOAD PUSH1 0x20 PUSH2 0x1624 DUP4 CODECOPY DUP2 MLOAD SWAP2 MSTORE DUP4 DUP5 MULMOD SWAP3 POP PUSH1 0x0 DUP1 MLOAD PUSH1 0x20 PUSH2 0x1624 DUP4 CODECOPY DUP2 MLOAD SWAP2 MSTORE DUP4 DUP5 MULMOD SWAP3 POP PUSH1 0x0 DUP1 MLOAD PUSH1 0x20 PUSH2 0x1624 DUP4 CODECOPY DUP2 MLOAD SWAP2 MSTORE DUP4 DUP5 MULMOD SWAP3 POP DUP3 PUSH1 0x80 DUP7 ADD MSTORE PUSH1 0x0 DUP1 MLOAD PUSH1 0x20 PUSH2 0x1624 DUP4 CODECOPY DUP2 MLOAD SWAP2 MSTORE DUP1 PUSH1 0x1 DUP6 SUB ADD MOD SWAP3 POP DUP3 PUSH2 0x2E0 DUP7 ADD MSTORE DUP3 PUSH2 0x300 DUP7 ADD MSTORE PUSH1 0x0 DUP1 MLOAD PUSH1 0x20 PUSH2 0x1624 DUP4 CODECOPY DUP2 MLOAD SWAP2 MSTORE DUP2 DUP3 MULMOD SWAP3 POP DUP3 PUSH1 0xE0 DUP7 ADD MSTORE PUSH1 0x0 DUP1 MLOAD PUSH1 0x20 PUSH2 0x1624 DUP4 CODECOPY DUP2 MLOAD SWAP2 MSTORE DUP2 DUP5 MULMOD SWAP3 POP DUP3 PUSH2 0x100 DUP7 ADD MSTORE PUSH1 0x0 DUP1 MLOAD PUSH1 0x20 PUSH2 0x1624 DUP4 CODECOPY DUP2 MLOAD SWAP2 MSTORE DUP2 DUP5 MULMOD SWAP3 POP DUP3 PUSH2 0x120 DUP7 ADD MSTORE PUSH1 0x0 DUP1 MLOAD PUSH1 0x20 PUSH2 0x1624 DUP4 CODECOPY DUP2 MLOAD SWAP2 MSTORE DUP2 DUP5 MULMOD PUSH2 0x140 DUP7 ADD MSTORE POP PUSH2 0x1C4 CALLDATALOAD DUP2 MSTORE PUSH2 0x1E4 CALLDATALOAD PUSH1 0x20 DUP3 ADD MSTORE PUSH2 0x204 CALLDATALOAD PUSH1 0x40 DUP3 ADD MSTORE PUSH2 0x224 CALLDATALOAD PUSH1 0x60 DUP3 ADD MSTORE PUSH1 0x80 SWAP1 KECCAK256 PUSH1 0x0 DUP1 MLOAD PUSH1 0x20 PUSH2 0x1624 DUP4 CODECOPY DUP2 MLOAD SWAP2 MSTORE SWAP1 MOD PUSH2 0x160 SWAP1 SWAP4 ADD SWAP3 SWAP1 SWAP3 MSTORE POP POP POP JUMP JUMPDEST PUSH1 0x1 PUSH1 0x0 DUP1 MLOAD PUSH1 0x20 PUSH2 0x1624 DUP4 CODECOPY DUP2 MLOAD SWAP2 MSTORE DUP1 PUSH1 0x0 DUP1 MLOAD PUSH1 0x20 PUSH2 0x1624 DUP4 CODECOPY DUP2 MLOAD SWAP2 MSTORE DUP4 PUSH1 0x60 DUP7 ADD MLOAD SUB ADD MOD PUSH2 0x1000 MULMOD PUSH2 0x320 DUP4 ADD MSTORE PUSH1 0x0 DUP1 MLOAD PUSH1 0x20 PUSH2 0x1624 DUP4 CODECOPY DUP2 MLOAD SWAP2 MSTORE PUSH1 0x0 DUP1 MLOAD PUSH1 0x20 PUSH2 0x1644 DUP4 CODECOPY DUP2 MLOAD SWAP2 MSTORE DUP3 MULMOD SWAP1 POP PUSH1 0x0 DUP1 MLOAD PUSH1 0x20 PUSH2 0x1624 DUP4 CODECOPY DUP2 MLOAD SWAP2 MSTORE DUP1 PUSH1 0x0 DUP1 MLOAD PUSH1 0x20 PUSH2 0x1624 DUP4 CODECOPY DUP2 MLOAD SWAP2 MSTORE DUP4 PUSH1 0x60 DUP7 ADD MLOAD SUB ADD MOD PUSH2 0x1000 MULMOD PUSH2 0x340 DUP4 ADD MSTORE PUSH1 0x0 DUP1 MLOAD PUSH1 0x20 PUSH2 0x1624 DUP4 CODECOPY DUP2 MLOAD SWAP2 MSTORE PUSH1 0x0 DUP1 MLOAD PUSH1 0x20 PUSH2 0x1644 DUP4 CODECOPY DUP2 MLOAD SWAP2 MSTORE DUP3 MULMOD SWAP1 POP PUSH1 0x0 DUP1 MLOAD PUSH1 0x20 PUSH2 0x1624 DUP4 CODECOPY DUP2 MLOAD SWAP2 MSTORE DUP1 PUSH1 0x0 DUP1 MLOAD PUSH1 0x20 PUSH2 0x1624 DUP4 CODECOPY DUP2 MLOAD SWAP2 MSTORE DUP4 PUSH1 0x60 DUP7 ADD MLOAD SUB ADD MOD PUSH2 0x1000 MULMOD PUSH2 0x360 DUP4 ADD MSTORE PUSH2 0x872 PUSH1 0x4 PUSH2 0x300 DUP5 ADD PUSH2 0xB1 JUMP JUMPDEST PUSH2 0x2E0 DUP3 ADD MLOAD PUSH1 0x1 SWAP2 POP PUSH1 0x0 DUP1 MLOAD PUSH1 0x20 PUSH2 0x1624 DUP4 CODECOPY DUP2 MLOAD SWAP2 MSTORE DUP2 PUSH2 0x320 DUP6 ADD MLOAD MULMOD PUSH2 0x320 DUP5 ADD MSTORE PUSH1 0x0 DUP1 MLOAD PUSH1 0x20 PUSH2 0x1624 DUP4 CODECOPY DUP2 MLOAD SWAP2 MSTORE PUSH1 0x0 DUP1 MLOAD PUSH1 0x20 PUSH2 0x1644 DUP4 CODECOPY DUP2 MLOAD SWAP2 MSTORE DUP4 MULMOD SWAP2 POP PUSH1 0x0 DUP1 MLOAD PUSH1 0x20 PUSH2 0x1624 DUP4 CODECOPY DUP2 MLOAD SWAP2 MSTORE DUP1 DUP3 PUSH2 0x340 DUP7 ADD MLOAD MULMOD DUP4 MULMOD PUSH2 0x340 DUP5 ADD MSTORE PUSH1 0x0 DUP1 MLOAD PUSH1 0x20 PUSH2 0x1624 DUP4 CODECOPY DUP2 MLOAD SWAP2 MSTORE PUSH1 0x0 DUP1 MLOAD PUSH1 0x20 PUSH2 0x1644 DUP4 CODECOPY DUP2 MLOAD SWAP2 MSTORE DUP4 MULMOD SWAP2 POP PUSH1 0x0 DUP1 MLOAD PUSH1 0x20 PUSH2 0x1624 DUP4 CODECOPY DUP2 MLOAD SWAP2 MSTORE DUP1 DUP3 PUSH2 0x360 DUP7 ADD MLOAD MULMOD DUP4 MULMOD PUSH2 0x360 DUP5 ADD MSTORE POP POP POP JUMP JUMPDEST PUSH1 0x0 PUSH1 0x0 DUP1 MLOAD PUSH1 0x20 PUSH2 0x1624 DUP4 CODECOPY DUP2 MLOAD SWAP2 MSTORE DUP1 PUSH1 0x0 DUP1 MLOAD PUSH1 0x20 PUSH2 0x1624 DUP4 CODECOPY DUP2 MLOAD SWAP2 MSTORE PUSH1 0x0 DUP7 ADD CALLDATALOAD PUSH2 0x320 DUP7 ADD MLOAD MULMOD DUP4 SUB ADD MOD SWAP1 POP PUSH1 0x0 DUP1 MLOAD PUSH1 0x20 PUSH2 0x1624 DUP4 CODECOPY DUP2 MLOAD SWAP2 MSTORE DUP1 PUSH1 0x0 DUP1 MLOAD PUSH1 0x20 PUSH2 0x1624 DUP4 CODECOPY DUP2 MLOAD SWAP2 MSTORE PUSH1 0x20 DUP7 ADD CALLDATALOAD PUSH2 0x340 DUP7 ADD MLOAD MULMOD DUP4 SUB ADD MOD SWAP1 POP PUSH1 0x0 DUP1 MLOAD PUSH1 0x20 PUSH2 0x1624 DUP4 CODECOPY DUP2 MLOAD SWAP2 MSTORE DUP1 PUSH1 0x0 DUP1 MLOAD PUSH1 0x20 PUSH2 0x1624 DUP4 CODECOPY DUP2 MLOAD SWAP2 MSTORE PUSH1 0x40 DUP7 ADD CALLDATALOAD PUSH2 0x360 DUP7 ADD MLOAD MULMOD DUP4 SUB ADD MOD SWAP1 POP DUP1 PUSH2 0x180 DUP4 ADD MSTORE POP POP POP JUMP JUMPDEST PUSH2 0x180 DUP2 ADD MLOAD PUSH1 0x0 DUP1 MLOAD PUSH1 0x20 PUSH2 0x1624 DUP4 CODECOPY DUP2 MLOAD SWAP2 MSTORE PUSH2 0x2C0 DUP4 ADD MLOAD PUSH2 0x320 DUP5 ADD MLOAD MULMOD PUSH1 0x0 DUP1 MLOAD PUSH1 0x20 PUSH2 0x1624 DUP4 CODECOPY DUP2 MLOAD SWAP2 MSTORE DUP1 PUSH2 0x2A4 CALLDATALOAD PUSH1 0x20 DUP7 ADD MLOAD MULMOD PUSH2 0x244 CALLDATALOAD ADDMOD PUSH1 0x0 DUP1 MLOAD PUSH1 0x20 PUSH2 0x1624 DUP4 CODECOPY DUP2 MLOAD SWAP2 MSTORE PUSH1 0x40 DUP6 ADD MLOAD DUP3 ADDMOD SWAP1 POP PUSH1 0x0 DUP1 MLOAD PUSH1 0x20 PUSH2 0x1624 DUP4 CODECOPY DUP2 MLOAD SWAP2 MSTORE DUP1 PUSH2 0x2C4 CALLDATALOAD PUSH1 0x20 DUP8 ADD MLOAD MULMOD PUSH2 0x264 CALLDATALOAD ADDMOD PUSH1 0x0 DUP1 MLOAD PUSH1 0x20 PUSH2 0x1624 DUP4 CODECOPY DUP2 MLOAD SWAP2 MSTORE PUSH1 0x40 DUP7 ADD MLOAD DUP3 ADDMOD SWAP1 POP PUSH1 0x0 DUP1 MLOAD PUSH1 0x20 PUSH2 0x1624 DUP4 CODECOPY DUP2 MLOAD SWAP2 MSTORE PUSH1 0x40 DUP7 ADD MLOAD PUSH2 0x284 CALLDATALOAD ADDMOD PUSH1 0x0 DUP1 MLOAD PUSH1 0x20 PUSH2 0x1624 DUP4 CODECOPY DUP2 MLOAD SWAP2 MSTORE DUP2 PUSH1 0x0 DUP1 MLOAD PUSH1 0x20 PUSH2 0x1624 DUP4 CODECOPY DUP2 MLOAD SWAP2 MSTORE DUP5 DUP7 MULMOD MULMOD SWAP3 POP POP POP PUSH1 0x0 DUP1 MLOAD PUSH1 0x20 PUSH2 0x1624 DUP4 CODECOPY DUP2 MLOAD SWAP2 MSTORE PUSH2 0x2E4 CALLDATALOAD DUP3 MULMOD SWAP1 POP PUSH1 0x0 DUP1 MLOAD PUSH1 0x20 PUSH2 0x1624 DUP4 CODECOPY DUP2 MLOAD SWAP2 MSTORE PUSH1 0x0 DUP6 ADD MLOAD DUP3 MULMOD SWAP1 POP PUSH1 0x0 DUP1 MLOAD PUSH1 0x20 PUSH2 0x1624 DUP4 CODECOPY DUP2 MLOAD SWAP2 MSTORE DUP1 DUP4 PUSH1 0x0 DUP1 MLOAD PUSH1 0x20 PUSH2 0x1624 DUP4 CODECOPY DUP2 MLOAD SWAP2 MSTORE SUB MOD DUP5 ADDMOD SWAP3 POP PUSH1 0x0 DUP1 MLOAD PUSH1 0x20 PUSH2 0x1624 DUP4 CODECOPY DUP2 MLOAD SWAP2 MSTORE DUP1 DUP3 PUSH1 0x0 DUP1 MLOAD PUSH1 0x20 PUSH2 0x1624 DUP4 CODECOPY DUP2 MLOAD SWAP2 MSTORE SUB MOD DUP5 ADDMOD SWAP3 POP POP POP DUP1 PUSH2 0x1A0 DUP4 ADD MSTORE POP POP JUMP JUMPDEST PUSH1 0x40 MLOAD DUP2 MLOAD DUP2 MSTORE PUSH1 0x20 DUP3 ADD MLOAD PUSH1 0x20 DUP3 ADD MSTORE DUP3 MLOAD PUSH1 0x40 DUP3 ADD MSTORE PUSH1 0x20 DUP4 ADD MLOAD PUSH1 0x60 DUP3 ADD MSTORE PUSH1 0x40 DUP3 PUSH1 0x80 DUP4 PUSH1 0x6 PUSH2 0x7D0 GAS SUB STATICCALL SWAP1 POP DUP1 PUSH2 0xB5C JUMPI PUSH1 0x0 DUP1 MSTORE PUSH1 0x20 PUSH1 0x0 RETURN JUMPDEST POP POP POP JUMP JUMPDEST POP POP POP POP JUMP JUMPDEST PUSH1 0x0 PUSH1 0x40 MLOAD DUP4 DUP2 MSTORE DUP5 PUSH1 0x20 DUP3 ADD MSTORE DUP6 PUSH1 0x40 DUP3 ADD MSTORE PUSH1 0x40 DUP2 PUSH1 0x60 DUP4 PUSH1 0x7 PUSH2 0x7D0 GAS SUB STATICCALL SWAP2 POP DUP2 PUSH2 0xB9A JUMPI PUSH1 0x0 DUP1 MSTORE PUSH1 0x20 PUSH1 0x0 RETURN JUMPDEST DUP3 MLOAD PUSH1 0x40 DUP3 ADD MSTORE PUSH1 0x20 DUP4 ADD MLOAD PUSH1 0x60 DUP3 ADD MSTORE PUSH1 0x40 DUP4 PUSH1 0x80 DUP4 PUSH1 0x6 PUSH2 0x7D0 GAS SUB STATICCALL SWAP2 POP POP DUP1 PUSH2 0xBCB JUMPI PUSH1 0x0 DUP1 MSTORE PUSH1 0x20 PUSH1 0x0 RETURN JUMPDEST POP POP POP POP POP JUMP JUMPDEST PUSH1 0x0 PUSH1 0x40 MLOAD DUP4 DUP2 MSTORE DUP5 PUSH1 0x20 DUP3 ADD MSTORE DUP6 PUSH1 0x40 DUP3 ADD MSTORE PUSH1 0x40 DUP4 PUSH1 0x60 DUP4 PUSH1 0x7 PUSH2 0x7D0 GAS SUB STATICCALL SWAP2 POP POP DUP1 PUSH2 0xBCB JUMPI PUSH1 0x0 DUP1 MSTORE PUSH1 0x20 PUSH1 0x0 RETURN JUMPDEST PUSH2 0xB5C DUP4 PUSH1 0x20 DUP5 ADD MLOAD DUP5 MLOAD DUP5 PUSH2 0xBD2 JUMP JUMPDEST PUSH2 0x1C0 DUP2 ADD PUSH1 0x40 DUP3 ADD MLOAD PUSH1 0x40 MLOAD PUSH2 0x100 DUP2 ADD PUSH1 0x40 MSTORE PUSH2 0xC7B PUSH32 0x2AAB49B0893DA539E52EF4B4499F1D2A1FC428DF775E2015146E42D465EACEAA PUSH32 0x14B1B0ED8623E7FA1424FC0154962962EF7924AEB175D0B2F1E112AF9D6653DF DUP6 SWAP1 DUP2 MSTORE PUSH1 0x20 ADD MSTORE JUMP JUMPDEST PUSH2 0xCDE PUSH1 0x0 DUP1 MLOAD PUSH1 0x20 PUSH2 0x1624 DUP4 CODECOPY DUP2 MLOAD SWAP2 MSTORE PUSH2 0x264 CALLDATALOAD PUSH2 0x244 CALLDATALOAD MULMOD PUSH32 0x16D95E3C9CAC35714D7D14EACE8721EB155AE3DF0C11EF8A6DDE64B30E8A3A21 PUSH32 0x78AEE29C2D491508AD9E85C6E2F370C5FEEF3C87B3040C6896E38D6073FFF1A DUP7 PUSH2 0xB67 JUMP JUMPDEST PUSH2 0xD2D PUSH2 0x244 CALLDATALOAD PUSH32 0x1FE33F4CBBBFFC02F982595707A91D8C4184132B6EC71795E0A21246F739801E PUSH32 0x12D0C23FEB5A79992276DF8545E2ADF5B25DA13943B467D5FA64834DA975CDAF DUP7 PUSH2 0xB67 JUMP JUMPDEST PUSH2 0xD7B PUSH2 0x264 CALLDATALOAD PUSH31 0xDE5E5AF4A05792B0A26C54725E59813F96D1152C05CEDF14286C66132FE835 PUSH32 0xE363253319F1CFF8A98DC9CBEE4FA399FC9EB773D2C1FC831FD7E776E14DAE3 DUP7 PUSH2 0xB67 JUMP JUMPDEST PUSH2 0xDCA PUSH2 0x284 CALLDATALOAD PUSH32 0x158844B456C28AE28B139D1A1352162366B77CD182F0B2EAD776FCE874107CF2 PUSH32 0x27F19877B57D62D703A2EAB653FEF3A216E51CF2FDE40B5D69C6735CEB5F99DD DUP7 PUSH2 0xB67 JUMP JUMPDEST PUSH1 0xA0 DUP5 ADD MLOAD PUSH1 0x0 DUP1 MLOAD PUSH1 0x20 PUSH2 0x1624 DUP4 CODECOPY DUP2 MLOAD SWAP2 MSTORE DUP4 PUSH1 0x0 DUP1 MLOAD PUSH1 0x20 PUSH2 0x1624 DUP4 CODECOPY DUP2 MLOAD SWAP2 MSTORE DUP4 PUSH2 0x244 CALLDATALOAD ADDMOD ADDMOD PUSH1 0x0 DUP1 MLOAD PUSH1 0x20 PUSH2 0x1624 DUP4 CODECOPY DUP2 MLOAD SWAP2 MSTORE DUP5 PUSH1 0x0 DUP1 MLOAD PUSH1 0x20 PUSH2 0x1624 DUP4 CODECOPY DUP2 MLOAD SWAP2 MSTORE DUP1 PUSH1 0x2 DUP7 MULMOD PUSH2 0x264 CALLDATALOAD ADDMOD ADDMOD PUSH1 0x0 DUP1 MLOAD PUSH1 0x20 PUSH2 0x1624 DUP4 CODECOPY DUP2 MLOAD SWAP2 MSTORE DUP6 PUSH1 0x0 DUP1 MLOAD PUSH1 0x20 PUSH2 0x1624 DUP4 CODECOPY DUP2 MLOAD SWAP2 MSTORE DUP1 PUSH1 0x3 DUP8 MULMOD PUSH2 0x284 CALLDATALOAD ADDMOD ADDMOD SWAP3 POP PUSH1 0x0 DUP1 MLOAD PUSH1 0x20 PUSH2 0x1624 DUP4 CODECOPY DUP2 MLOAD SWAP2 MSTORE PUSH1 0x0 DUP9 ADD MLOAD PUSH1 0x0 DUP1 MLOAD PUSH1 0x20 PUSH2 0x1624 DUP4 CODECOPY DUP2 MLOAD SWAP2 MSTORE DUP6 PUSH1 0x0 DUP1 MLOAD PUSH1 0x20 PUSH2 0x1624 DUP4 CODECOPY DUP2 MLOAD SWAP2 MSTORE DUP6 DUP8 MULMOD MULMOD MULMOD PUSH1 0x0 DUP1 MLOAD PUSH1 0x20 PUSH2 0x1624 DUP4 CODECOPY DUP2 MLOAD SWAP2 MSTORE PUSH2 0x2C0 DUP10 ADD MLOAD PUSH2 0x320 DUP11 ADD MLOAD MULMOD PUSH1 0xC4 CALLDATALOAD PUSH1 0xC0 DUP8 ADD MSTORE PUSH1 0xE4 CALLDATALOAD PUSH1 0xE0 DUP8 ADD MSTORE PUSH2 0xEE4 PUSH1 0x0 DUP1 MLOAD PUSH1 0x20 PUSH2 0x1624 DUP4 CODECOPY DUP2 MLOAD SWAP2 MSTORE PUSH2 0x160 DUP12 ADD MLOAD PUSH1 0x0 DUP1 MLOAD PUSH1 0x20 PUSH2 0x1624 DUP4 CODECOPY DUP2 MLOAD SWAP2 MSTORE DUP5 DUP7 ADDMOD ADDMOD PUSH1 0xC0 DUP9 ADD DUP9 PUSH2 0xC06 JUMP JUMPDEST POP POP PUSH1 0x0 DUP1 MLOAD PUSH1 0x20 PUSH2 0x1624 DUP4 CODECOPY DUP2 MLOAD SWAP2 MSTORE DUP6 PUSH1 0x0 DUP1 MLOAD PUSH1 0x20 PUSH2 0x1624 DUP4 CODECOPY DUP2 MLOAD SWAP2 MSTORE DUP1 PUSH2 0x2A4 CALLDATALOAD PUSH1 0x20 DUP13 ADD MLOAD MULMOD PUSH2 0x244 CALLDATALOAD ADDMOD ADDMOD SWAP2 POP PUSH1 0x0 DUP1 MLOAD PUSH1 0x20 PUSH2 0x1624 DUP4 CODECOPY DUP2 MLOAD SWAP2 MSTORE DUP6 PUSH1 0x0 DUP1 MLOAD PUSH1 0x20 PUSH2 0x1624 DUP4 CODECOPY DUP2 MLOAD SWAP2 MSTORE DUP1 PUSH2 0x2C4 CALLDATALOAD PUSH1 0x20 DUP13 ADD MLOAD MULMOD PUSH2 0x264 CALLDATALOAD ADDMOD ADDMOD SWAP1 POP PUSH1 0x0 DUP1 MLOAD PUSH1 0x20 PUSH2 0x1624 DUP4 CODECOPY DUP2 MLOAD SWAP2 MSTORE PUSH2 0x2E4 CALLDATALOAD PUSH1 0x0 DUP1 MLOAD PUSH1 0x20 PUSH2 0x1624 DUP4 CODECOPY DUP2 MLOAD SWAP2 MSTORE PUSH1 0x20 DUP11 ADD MLOAD PUSH1 0x0 DUP12 ADD MLOAD MULMOD MULMOD SWAP3 POP PUSH2 0xFEB PUSH1 0x0 DUP1 MLOAD PUSH1 0x20 PUSH2 0x1624 DUP4 CODECOPY DUP2 MLOAD SWAP2 MSTORE DUP5 PUSH1 0x0 DUP1 MLOAD PUSH1 0x20 PUSH2 0x1624 DUP4 CODECOPY DUP2 MLOAD SWAP2 MSTORE DUP5 DUP7 MULMOD MULMOD PUSH32 0x17B3B81528A9791FC17B04F39CD27E7012EEF75192BBBDC0F669B9EF1A14079E PUSH32 0x1037B05695357029391AF4B0E071BFEB960A1C42A4F646DB583F4BA69676BD73 PUSH1 0x40 DUP9 ADD PUSH2 0xBD2 JUMP JUMPDEST POP POP POP PUSH2 0x104 CALLDATALOAD PUSH1 0x80 DUP3 ADD MSTORE PUSH2 0x124 CALLDATALOAD PUSH1 0xA0 DUP3 ADD MSTORE PUSH2 0x101C PUSH1 0x80 DUP6 ADD MLOAD PUSH1 0x20 PUSH2 0x144 ADD CALLDATALOAD PUSH2 0x144 CALLDATALOAD PUSH1 0x80 DUP6 ADD PUSH2 0xB67 JUMP JUMPDEST PUSH1 0x80 DUP5 ADD MLOAD PUSH1 0x0 DUP1 MLOAD PUSH1 0x20 PUSH2 0x1624 DUP4 CODECOPY DUP2 MLOAD SWAP2 MSTORE SWAP1 DUP1 MULMOD SWAP2 POP PUSH2 0x104A DUP3 PUSH2 0x1A4 CALLDATALOAD PUSH2 0x184 CALLDATALOAD PUSH1 0x80 DUP6 ADD PUSH2 0xB67 JUMP JUMPDEST PUSH2 0x1066 PUSH2 0x2E0 DUP6 ADD MLOAD PUSH1 0xA0 DUP4 ADD MLOAD PUSH1 0x80 DUP5 ADD MLOAD PUSH1 0x80 DUP6 ADD PUSH2 0xBD2 JUMP JUMPDEST PUSH1 0x0 DUP1 MLOAD PUSH1 0x20 PUSH2 0x1604 DUP4 CODECOPY DUP2 MLOAD SWAP2 MSTORE PUSH1 0x20 PUSH1 0x40 DUP4 ADD ADD MLOAD PUSH1 0x0 DUP1 MLOAD PUSH1 0x20 PUSH2 0x1604 DUP4 CODECOPY DUP2 MLOAD SWAP2 MSTORE SUB MOD PUSH1 0x20 PUSH1 0x40 DUP4 ADD ADD MSTORE PUSH1 0x0 DUP1 MLOAD PUSH1 0x20 PUSH2 0x1604 DUP4 CODECOPY DUP2 MLOAD SWAP2 MSTORE PUSH1 0xA0 DUP3 ADD MLOAD PUSH1 0x0 DUP1 MLOAD PUSH1 0x20 PUSH2 0x1604 DUP4 CODECOPY DUP2 MLOAD SWAP2 MSTORE SUB MOD PUSH1 0xA0 DUP3 ADD MSTORE PUSH2 0x10CA DUP2 DUP5 PUSH2 0xB1B JUMP JUMPDEST PUSH2 0x10D7 PUSH1 0x40 DUP3 ADD DUP5 PUSH2 0xB1B JUMP JUMPDEST PUSH2 0xB61 PUSH1 0x80 DUP3 ADD DUP5 PUSH2 0xB1B JUMP JUMPDEST PUSH2 0x1C0 DUP2 ADD MLOAD PUSH2 0x200 DUP3 ADD SWAP1 DUP2 MSTORE PUSH2 0x1E0 DUP3 ADD MLOAD PUSH2 0x220 DUP4 ADD MSTORE PUSH1 0xC0 DUP3 ADD MLOAD PUSH2 0x1113 SWAP1 PUSH1 0x24 CALLDATALOAD PUSH1 0x4 CALLDATALOAD DUP5 PUSH2 0xB67 JUMP JUMPDEST PUSH1 0xE0 DUP3 ADD MLOAD PUSH2 0x1128 SWAP1 PUSH1 0x64 CALLDATALOAD PUSH1 0x44 CALLDATALOAD DUP5 PUSH2 0xB67 JUMP JUMPDEST PUSH2 0x100 DUP3 ADD MLOAD PUSH2 0x113E SWAP1 PUSH1 0xA4 CALLDATALOAD PUSH1 0x84 CALLDATALOAD DUP5 PUSH2 0xB67 JUMP JUMPDEST PUSH2 0x118F PUSH2 0x120 DUP4 ADD MLOAD PUSH32 0x2B2F9DC82D7EA98A2124112F0E01FE494CC80095084F4758FF9852F7A9BD3EE1 PUSH32 0x305EE94F6735CDC0EE5D823526227E40FEA3C67E0656BE269E63DB0E96FD2EB8 DUP5 PUSH2 0xB67 JUMP JUMPDEST PUSH2 0x11E0 PUSH2 0x140 DUP4 ADD MLOAD PUSH32 0x1828FE134F7ED9375752B02AAA06BF5435C4352500221990C25192F96F7F0DC3 PUSH32 0xFBDF0441BA745557D6D2A93088B4972D414805D6E0BCA9E5D558C6002AA8011 DUP5 PUSH2 0xB67 JUMP JUMPDEST POP POP JUMP JUMPDEST PUSH1 0x0 DUP1 MLOAD PUSH1 0x20 PUSH2 0x1624 DUP4 CODECOPY DUP2 MLOAD SWAP2 MSTORE PUSH2 0x1A0 DUP3 ADD MLOAD PUSH1 0x0 DUP1 MLOAD PUSH1 0x20 PUSH2 0x1624 DUP4 CODECOPY DUP2 MLOAD SWAP2 MSTORE SUB MOD PUSH1 0x0 DUP1 MLOAD PUSH1 0x20 PUSH2 0x1624 DUP4 CODECOPY DUP2 MLOAD SWAP2 MSTORE DUP1 PUSH1 0xC0 DUP5 ADD MLOAD PUSH2 0x244 CALLDATALOAD MULMOD DUP3 ADDMOD SWAP1 POP PUSH1 0x0 DUP1 MLOAD PUSH1 0x20 PUSH2 0x1624 DUP4 CODECOPY DUP2 MLOAD SWAP2 MSTORE DUP1 PUSH1 0xE0 DUP5 ADD MLOAD PUSH2 0x264 CALLDATALOAD MULMOD DUP3 ADDMOD SWAP1 POP PUSH1 0x0 DUP1 MLOAD PUSH1 0x20 PUSH2 0x1624 DUP4 CODECOPY DUP2 MLOAD SWAP2 MSTORE DUP1 PUSH2 0x100 DUP5 ADD MLOAD PUSH2 0x284 CALLDATALOAD MULMOD DUP3 ADDMOD SWAP1 POP PUSH1 0x0 DUP1 MLOAD PUSH1 0x20 PUSH2 0x1624 DUP4 CODECOPY DUP2 MLOAD SWAP2 MSTORE DUP1 PUSH2 0x120 DUP5 ADD MLOAD PUSH2 0x2A4 CALLDATALOAD MULMOD DUP3 ADDMOD SWAP1 POP PUSH1 0x0 DUP1 MLOAD PUSH1 0x20 PUSH2 0x1624 DUP4 CODECOPY DUP2 MLOAD SWAP2 MSTORE DUP1 PUSH2 0x140 DUP5 ADD MLOAD PUSH2 0x2C4 CALLDATALOAD MULMOD DUP3 ADDMOD SWAP1 POP PUSH1 0x0 DUP1 MLOAD PUSH1 0x20 PUSH2 0x1624 DUP4 CODECOPY DUP2 MLOAD SWAP2 MSTORE DUP1 PUSH2 0x160 DUP5 ADD MLOAD PUSH2 0x2E4 CALLDATALOAD MULMOD DUP3 ADDMOD SWAP1 POP PUSH2 0x11E0 DUP2 PUSH1 0x2 PUSH1 0x1 PUSH2 0x240 DUP7 ADD PUSH2 0xBD2 JUMP JUMPDEST PUSH1 0x0 PUSH1 0x40 MLOAD PUSH2 0x240 DUP2 ADD PUSH1 0x40 MSTORE PUSH2 0x180 DUP2 ADD PUSH2 0x1C0 DUP3 ADD PUSH2 0x200 DUP4 ADD PUSH2 0x1306 PUSH2 0x1C4 DUP5 DUP2 CALLDATALOAD DUP2 MSTORE PUSH1 0x20 SWAP2 DUP3 ADD CALLDATALOAD SWAP2 ADD MSTORE JUMP JUMPDEST PUSH2 0x204 CALLDATALOAD DUP3 MSTORE PUSH2 0x224 CALLDATALOAD PUSH1 0x20 DUP4 ADD MSTORE PUSH2 0x1325 PUSH2 0x160 DUP8 ADD MLOAD DUP4 DUP7 PUSH2 0xC06 JUMP JUMPDEST PUSH2 0x132F DUP4 DUP6 PUSH2 0xB1B JUMP JUMPDEST PUSH1 0x0 DUP1 MLOAD PUSH1 0x20 PUSH2 0x1604 DUP4 CODECOPY DUP2 MLOAD SWAP2 MSTORE PUSH1 0x20 DUP6 ADD MLOAD PUSH1 0x0 DUP1 MLOAD PUSH1 0x20 PUSH2 0x1604 DUP4 CODECOPY DUP2 MLOAD SWAP2 MSTORE SUB MOD PUSH1 0x20 DUP6 ADD MSTORE PUSH32 0x740B53FCA626942BD02A8F1FAD4FA5E7F5F4E1E3C3333D40320279792200E71 PUSH1 0x40 DUP6 ADD MSTORE PUSH32 0xD5D891207C890A1973217ABFC68F60A487A6BBBB3C3A6449FD527E08ED5D80E PUSH1 0x60 DUP6 ADD MSTORE PUSH32 0x7506314691A8FB33ACFD543F138BAD018B405D9CD9EA8686E668EA0EF87CB5C PUSH1 0x80 DUP6 ADD MSTORE PUSH32 0x2640EC0DF7AB25B1E5C3D05AD749DDE45F169FE2A365C5C93BC95D16EFEF22FF PUSH1 0xA0 DUP6 ADD MSTORE PUSH2 0x1403 PUSH1 0x60 DUP8 ADD MLOAD DUP5 PUSH1 0xC0 DUP8 ADD PUSH2 0xC06 JUMP JUMPDEST PUSH1 0x0 DUP1 MLOAD PUSH1 0x20 PUSH2 0x1624 DUP4 CODECOPY DUP2 MLOAD SWAP2 MSTORE PUSH1 0x60 DUP8 ADD MLOAD PUSH2 0x160 DUP9 ADD MLOAD MULMOD SWAP3 POP PUSH1 0x0 DUP1 MLOAD PUSH1 0x20 PUSH2 0x1624 DUP4 CODECOPY DUP2 MLOAD SWAP2 MSTORE PUSH1 0x0 DUP1 MLOAD PUSH1 0x20 PUSH2 0x1644 DUP4 CODECOPY DUP2 MLOAD SWAP2 MSTORE DUP5 MULMOD SWAP3 POP PUSH2 0x144D DUP4 DUP4 DUP4 PUSH2 0xC06 JUMP JUMPDEST PUSH2 0x145A DUP2 PUSH1 0xC0 DUP7 ADD PUSH2 0xB1B JUMP JUMPDEST POP POP POP PUSH2 0x146E PUSH2 0x200 DUP5 ADD PUSH1 0xC0 DUP4 ADD PUSH2 0xB1B JUMP JUMPDEST PUSH2 0x260 DUP4 ADD DUP1 MLOAD PUSH1 0x0 DUP1 MLOAD PUSH1 0x20 PUSH2 0x1604 DUP4 CODECOPY DUP2 MLOAD SWAP2 MSTORE SWAP1 DUP2 SUB MOD SWAP1 MSTORE PUSH2 0x149B PUSH2 0x240 DUP5 ADD PUSH1 0xC0 DUP4 ADD PUSH2 0xB1B JUMP JUMPDEST PUSH32 0x198E9393920D483A7260BFB731FB5D25F1AA493335A9E71297E485B7AEF312C2 PUSH2 0x100 DUP3 ADD MSTORE PUSH32 0x1800DEEF121F1E76426A00665E5C4479674322D4F75EDADD46DEBD5CD992F6ED PUSH2 0x120 DUP3 ADD MSTORE PUSH32 0x90689D0585FF075EC9E99AD690C3395BC4B313370B38EF355ACDADCD122975B PUSH2 0x140 DUP3 ADD MSTORE PUSH32 0x12C85EA5DB8C6DEB4AAB71808DCB408FE3D1E7690C43D37B4CE6CC0166FA7DAA PUSH2 0x160 DUP3 ADD MSTORE PUSH1 0x20 DUP2 PUSH2 0x180 DUP4 PUSH1 0x8 PUSH2 0x7D0 GAS SUB STATICCALL SWAP1 MLOAD AND SWAP3 SWAP2 POP POP JUMP JUMPDEST PUSH1 0x40 MLOAD PUSH2 0x380 DUP2 ADD PUSH1 0x40 MSTORE PUSH2 0x1562 PUSH2 0x192 JUMP JUMPDEST PUSH2 0x156C DUP4 DUP3 PUSH2 0x1DC JUMP JUMPDEST PUSH2 0x1575 DUP2 PUSH2 0x787 JUMP JUMPDEST PUSH2 0x157F DUP4 DUP3 PUSH2 0x922 JUMP JUMPDEST PUSH2 0x1588 DUP2 PUSH2 0x9C3 JUMP JUMPDEST PUSH2 0x1591 DUP2 PUSH2 0xC17 JUMP JUMPDEST PUSH2 0x159A DUP2 PUSH2 0x10E4 JUMP JUMPDEST PUSH2 0x15A3 DUP2 PUSH2 0x11E4 JUMP JUMPDEST PUSH2 0x15AC DUP2 PUSH2 0x12D4 JUMP JUMPDEST PUSH2 0x380 DUP3 SUB PUSH1 0x40 MSTORE DUP1 PUSH1 0x0 MSTORE PUSH1 0x20 PUSH1 0x0 RETURN JUMPDEST PUSH1 0x0 DUP1 PUSH2 0x360 DUP1 DUP5 DUP7 SUB SLT ISZERO PUSH2 0x15D3 JUMPI PUSH1 0x0 DUP1 REVERT JUMPDEST PUSH2 0x300 DUP5 ADD DUP6 DUP2 GT ISZERO PUSH2 0x15E5 JUMPI PUSH1 0x0 DUP1 REVERT JUMPDEST DUP5 SWAP4 POP DUP6 DUP3 DUP7 ADD GT ISZERO PUSH2 0x15F7 JUMPI PUSH1 0x0 DUP1 REVERT JUMPDEST DUP1 SWAP3 POP POP POP SWAP3 POP SWAP3 SWAP1 POP JUMP INVALID ADDRESS PUSH5 0x4E72E131A0 0x29 0xB8 POP GASLIMIT 0xB6 DUP2 DUP2 PC 0x5D SWAP8 DUP2 PUSH11 0x916871CA8D3C208C16D87C REVERT SELFBALANCE ADDRESS PUSH5 0x4E72E131A0 0x29 0xB8 POP GASLIMIT 0xB6 DUP2 DUP2 PC 0x5D 0x28 CALLER 0xE8 BASEFEE PUSH26 0xB9709143E1F593F00000010931D596DE2FD10F01DDD073FD5A90 0xA9 PUSH23 0xF169C76F039BB91C4775720042D43AA264697066735822 SLT KECCAK256 CALLDATACOPY 0xEE CODECOPY 0x2B LOG3 KECCAK256 0x2B OR MLOAD PC DUP8 0xC8 LOG2 DUP7 PUSH32 0x9C6464C9EA1BC080DE1560867D4361B7FD64736F6C6343000814003300000000 "},"methodIdentifiers":{"verifyProof(uint256[24],uint256[3])":"1d5803fe"}}}}}