{"contracts/mimc5Sponge.sol":{"Hasher":{"abi":[{"inputs":[{"internalType":"uint256[2]","name":"_ins","type":"uint256[2]"},{"internalType":"uint256","name":"_k","type":"uint256"}],"name":"MiMC5Sponge","outputs":[{"internalType":"uint256","name":"h","type":"uint256"}],"stateMutability":"view","type":"function"}],"evm":{"bytecode":{"linkReferences":{},"object":"7f30644e72e131a029b85045b68181585d2833e84879b9709143e1f593f0000001600090815561030060405260809081527f0166e2fe0ef3b56226cdd1098934d565a02c591cab43f06cfe72ca93cd1eb5dd60a0527fbc78a9b2ef37752d64b2324cadf305ac355f681c89ae6c650637bebe1139bbdd60c0527f762dcc70494b205bb71386cf958a1e5750208be69e4992d51b3af371c4c7df2860e0527f83a87b06b0adb53de910b97532abc44b7f4fa4a83b83fbe0751afc48521fabb2610100527ffef8fbfc768aa195768be184e7dce735bdb3c01bb8f9371ae8c978145c826a8e610120527f30d97c83a145bc2ee25ba2b70d7711bfd06cde9d14c5d04e18ecc1532e0a557f610140527f218c208ce82bd1ef19323fa905889a631ac094040dc69704713fe50c7dc3272e610160527fca205eeacd826d091fb55a0d41df8c991127b221f09650a3210e59817a5e97b7610180527fb6102467ad90f3bf9868b8c2dfe3d13465aeb0027321589a6caebd973d8c68ee6101a0527f7fc9ffa166e0de68d0504a1a2233372f282fe59d2f279cbd61b817ece7b331236101c0527fd5f31a9837ce9ad07203edf348865ca0119af1c38d642ad97d57630abd0d16126101e0527f872040ffa33ff124b88d0f1cb21a6bc700c32283a0671d42024ab41076542c1c610200527f97be92bf1db0dc8efb33ae16aeb5a27ecf88212c5cec2b2289f8b00de04dbdec610220527f890f11cc148674f6340dd32fd8c81d0aba13fe66f97d0cb0cdb6e499236af0ab610240527f4f1859692bb45cee6a47b11fab2ec1c35fce6dbdc09f132bfa1810151b9a80e5610260527fe115f3eace8ef073c87d0b35959fe98158502abbd3a145bde3ad234c5108628e610280527fc90f5cda081f1497088c6d441582e4a8428d5dfaa211e5076dd95e47fcf08ab26102a0527fbefdade267013cb0845e25b28d36b17e3f69b2685be012ccafa21df4fd125d956102c0527f3f0f2b60be883daa264a546cf42d746f211f4daecdeea4a4ee3e44965283f5766102e0526102fa90600190601461030d565b5034801561030757600080fd5b50610360565b826014810192821561033b579160200282015b8281111561033b578251825591602001919060010190610320565b5061034792915061034b565b5090565b5b80821115610347576000815560010161034c565b6102c78061036f6000396000f3fe608060405234801561001057600080fd5b506004361061002b5760003560e01c8063d622e5a414610030575b600080fd5b61004361003e3660046101b3565b610055565b60405190815260200160405180910390f35b60008080805b60028160ff1610156100b7576000548061007757610077610238565b868260ff166002811061008c5761008c61024e565b6020020151840892506100a08383876100c1565b9093509150806100af81610264565b91505061005b565b5090949350505050565b6000806014858583808080805b8760ff168160ff16101561018a57600054806100ec576100ec610238565b8b870894506000548061010157610101610238565b60018260ff16601481106101175761011761024e565b0154860894506000548061012d5761012d610238565b85860993506000548061014257610142610238565b84850992506000548061015757610157610238565b85840994508591506000548061016f5761016f610238565b8588089550819650808061018290610264565b9150506100ce565b50949b939a509298505050505050505050565b634e487b7160e01b600052604160045260246000fd5b600080606083850312156101c657600080fd5b83601f8401126101d557600080fd5b6040516040810181811067ffffffffffffffff821117156101f8576101f861019d565b806040525080604085018681111561020f57600080fd5b855b81811015610229578035835260209283019201610211565b50919691359550909350505050565b634e487b7160e01b600052601260045260246000fd5b634e487b7160e01b600052603260045260246000fd5b600060ff821660ff810361028857634e487b7160e01b600052601160045260246000fd5b6001019291505056fea26469706673582212200991dcb386a173a1e364ab6050079addd9d7beb5e93402fdff51286725cfd15964736f6c63430008140033","opcodes":"PUSH32 0x30644E72E131A029B85045B68181585D2833E84879B9709143E1F593F0000001 PUSH1 0x0 SWAP1 DUP2 SSTORE PUSH2 0x300 PUSH1 0x40 MSTORE PUSH1 0x80 SWAP1 DUP2 MSTORE PUSH32 0x166E2FE0EF3B56226CDD1098934D565A02C591CAB43F06CFE72CA93CD1EB5DD PUSH1 0xA0 MSTORE PUSH32 0xBC78A9B2EF37752D64B2324CADF305AC355F681C89AE6C650637BEBE1139BBDD PUSH1 0xC0 MSTORE PUSH32 0x762DCC70494B205BB71386CF958A1E5750208BE69E4992D51B3AF371C4C7DF28 PUSH1 0xE0 MSTORE PUSH32 0x83A87B06B0ADB53DE910B97532ABC44B7F4FA4A83B83FBE0751AFC48521FABB2 PUSH2 0x100 MSTORE PUSH32 0xFEF8FBFC768AA195768BE184E7DCE735BDB3C01BB8F9371AE8C978145C826A8E PUSH2 0x120 MSTORE PUSH32 0x30D97C83A145BC2EE25BA2B70D7711BFD06CDE9D14C5D04E18ECC1532E0A557F PUSH2 0x140 MSTORE PUSH32 0x218C208CE82BD1EF19323FA905889A631AC094040DC69704713FE50C7DC3272E PUSH2 0x160 MSTORE PUSH32 0xCA205EEACD826D091FB55A0D41DF8C991127B221F09650A3210E59817A5E97B7 PUSH2 0x180 MSTORE PUSH32 0xB6102467AD90F3BF9868B8C2DFE3D13465AEB0027321589A6CAEBD973D8C68EE PUSH2 0x1A0 MSTORE PUSH32 0x7FC9FFA166E0DE68D0504A1A2233372F282FE59D2F279CBD61B817ECE7B33123 PUSH2 0x1C0 MSTORE PUSH32 0xD5F31A9837CE9AD07203EDF348865CA0119AF1C38D642AD97D57630ABD0D1612 PUSH2 0x1E0 MSTORE PUSH32 0x872040FFA33FF124B88D0F1CB21A6BC700C32283A0671D42024AB41076542C1C PUSH2 0x200 MSTORE PUSH32 0x97BE92BF1DB0DC8EFB33AE16AEB5A27ECF88212C5CEC2B2289F8B00DE04DBDEC PUSH2 0x220 MSTORE PUSH32 0x890F11CC148674F6340DD32FD8C81D0ABA13FE66F97D0CB0CDB6E499236AF0AB PUSH2 0x240 MSTORE PUSH32 0x4F1859692BB45CEE6A47B11FAB2EC1C35FCE6DBDC09F132BFA1810151B9A80E5 PUSH2 0x260 MSTORE PUSH32 0xE115F3EACE8EF073C87D0B35959FE98158502ABBD3A145BDE3AD234C5108628E PUSH2 0x280 MSTORE PUSH32 0xC90F5CDA081F1497088C6D441582E4A8428D5DFAA211E5076DD95E47FCF08AB2 PUSH2 0x2A0 MSTORE PUSH32 0xBEFDADE267013CB0845E25B28D36B17E3F69B2685BE012CCAFA21DF4FD125D95 PUSH2 0x2C0 MSTORE PUSH32 0x3F0F2B60BE883DAA264A546CF42D746F211F4DAECDEEA4A4EE3E44965283F576 PUSH2 0x2E0 MSTORE PUSH2 0x2FA SWAP1 PUSH1 0x1 SWAP1 PUSH1 0x14 PUSH2 0x30D JUMP JUMPDEST POP CALLVALUE DUP1 ISZERO PUSH2 0x307 JUMPI PUSH1 0x0 DUP1 REVERT JUMPDEST POP PUSH2 0x360 JUMP JUMPDEST DUP3 PUSH1 0x14 DUP2 ADD SWAP3 DUP3 ISZERO PUSH2 0x33B JUMPI SWAP2 PUSH1 0x20 MUL DUP3 ADD JUMPDEST DUP3 DUP2 GT ISZERO PUSH2 0x33B JUMPI DUP3 MLOAD DUP3 SSTORE SWAP2 PUSH1 0x20 ADD SWAP2 SWAP1 PUSH1 0x1 ADD SWAP1 PUSH2 0x320 JUMP JUMPDEST POP PUSH2 0x347 SWAP3 SWAP2 POP PUSH2 0x34B JUMP JUMPDEST POP SWAP1 JUMP JUMPDEST JUMPDEST DUP1 DUP3 GT ISZERO PUSH2 0x347 JUMPI PUSH1 0x0 DUP2 SSTORE PUSH1 0x1 ADD PUSH2 0x34C JUMP JUMPDEST PUSH2 0x2C7 DUP1 PUSH2 0x36F PUSH1 0x0 CODECOPY PUSH1 0x0 RETURN INVALID PUSH1 0x80 PUSH1 0x40 MSTORE CALLVALUE DUP1 ISZERO PUSH2 0x10 JUMPI PUSH1 0x0 DUP1 REVERT JUMPDEST POP PUSH1 0x4 CALLDATASIZE LT PUSH2 0x2B JUMPI PUSH1 0x0 CALLDATALOAD PUSH1 0xE0 SHR DUP1 PUSH4 0xD622E5A4 EQ PUSH2 0x30 JUMPI JUMPDEST PUSH1 0x0 DUP1 REVERT JUMPDEST PUSH2 0x43 PUSH2 0x3E CALLDATASIZE PUSH1 0x4 PUSH2 0x1B3 JUMP JUMPDEST PUSH2 0x55 JUMP JUMPDEST PUSH1 0x40 MLOAD SWAP1 DUP2 MSTORE PUSH1 0x20 ADD PUSH1 0x40 MLOAD DUP1 SWAP2 SUB SWAP1 RETURN JUMPDEST PUSH1 0x0 DUP1 DUP1 DUP1 JUMPDEST PUSH1 0x2 DUP2 PUSH1 0xFF AND LT ISZERO PUSH2 0xB7 JUMPI PUSH1 0x0 SLOAD DUP1 PUSH2 0x77 JUMPI PUSH2 0x77 PUSH2 0x238 JUMP JUMPDEST DUP7 DUP3 PUSH1 0xFF AND PUSH1 0x2 DUP2 LT PUSH2 0x8C JUMPI PUSH2 0x8C PUSH2 0x24E JUMP JUMPDEST PUSH1 0x20 MUL ADD MLOAD DUP5 ADDMOD SWAP3 POP PUSH2 0xA0 DUP4 DUP4 DUP8 PUSH2 0xC1 JUMP JUMPDEST SWAP1 SWAP4 POP SWAP2 POP DUP1 PUSH2 0xAF DUP2 PUSH2 0x264 JUMP JUMPDEST SWAP2 POP POP PUSH2 0x5B JUMP JUMPDEST POP SWAP1 SWAP5 SWAP4 POP POP POP POP JUMP JUMPDEST PUSH1 0x0 DUP1 PUSH1 0x14 DUP6 DUP6 DUP4 DUP1 DUP1 DUP1 DUP1 JUMPDEST DUP8 PUSH1 0xFF AND DUP2 PUSH1 0xFF AND LT ISZERO PUSH2 0x18A JUMPI PUSH1 0x0 SLOAD DUP1 PUSH2 0xEC JUMPI PUSH2 0xEC PUSH2 0x238 JUMP JUMPDEST DUP12 DUP8 ADDMOD SWAP5 POP PUSH1 0x0 SLOAD DUP1 PUSH2 0x101 JUMPI PUSH2 0x101 PUSH2 0x238 JUMP JUMPDEST PUSH1 0x1 DUP3 PUSH1 0xFF AND PUSH1 0x14 DUP2 LT PUSH2 0x117 JUMPI PUSH2 0x117 PUSH2 0x24E JUMP JUMPDEST ADD SLOAD DUP7 ADDMOD SWAP5 POP PUSH1 0x0 SLOAD DUP1 PUSH2 0x12D JUMPI PUSH2 0x12D PUSH2 0x238 JUMP JUMPDEST DUP6 DUP7 MULMOD SWAP4 POP PUSH1 0x0 SLOAD DUP1 PUSH2 0x142 JUMPI PUSH2 0x142 PUSH2 0x238 JUMP JUMPDEST DUP5 DUP6 MULMOD SWAP3 POP PUSH1 0x0 SLOAD DUP1 PUSH2 0x157 JUMPI PUSH2 0x157 PUSH2 0x238 JUMP JUMPDEST DUP6 DUP5 MULMOD SWAP5 POP DUP6 SWAP2 POP PUSH1 0x0 SLOAD DUP1 PUSH2 0x16F JUMPI PUSH2 0x16F PUSH2 0x238 JUMP JUMPDEST DUP6 DUP9 ADDMOD SWAP6 POP DUP2 SWAP7 POP DUP1 DUP1 PUSH2 0x182 SWAP1 PUSH2 0x264 JUMP JUMPDEST SWAP2 POP POP PUSH2 0xCE JUMP JUMPDEST POP SWAP5 SWAP12 SWAP4 SWAP11 POP SWAP3 SWAP9 POP POP POP POP POP POP POP POP POP JUMP JUMPDEST PUSH4 0x4E487B71 PUSH1 0xE0 SHL PUSH1 0x0 MSTORE PUSH1 0x41 PUSH1 0x4 MSTORE PUSH1 0x24 PUSH1 0x0 REVERT JUMPDEST PUSH1 0x0 DUP1 PUSH1 0x60 DUP4 DUP6 SUB SLT ISZERO PUSH2 0x1C6 JUMPI PUSH1 0x0 DUP1 REVERT JUMPDEST DUP4 PUSH1 0x1F DUP5 ADD SLT PUSH2 0x1D5 JUMPI PUSH1 0x0 DUP1 REVERT JUMPDEST PUSH1 0x40 MLOAD PUSH1 0x40 DUP2 ADD DUP2 DUP2 LT PUSH8 0xFFFFFFFFFFFFFFFF DUP3 GT OR ISZERO PUSH2 0x1F8 JUMPI PUSH2 0x1F8 PUSH2 0x19D JUMP JUMPDEST DUP1 PUSH1 0x40 MSTORE POP DUP1 PUSH1 0x40 DUP6 ADD DUP7 DUP2 GT ISZERO PUSH2 0x20F JUMPI PUSH1 0x0 DUP1 REVERT JUMPDEST DUP6 JUMPDEST DUP2 DUP2 LT ISZERO PUSH2 0x229 JUMPI DUP1 CALLDATALOAD DUP4 MSTORE PUSH1 0x20 SWAP3 DUP4 ADD SWAP3 ADD PUSH2 0x211 JUMP JUMPDEST POP SWAP2 SWAP7 SWAP2 CALLDATALOAD SWAP6 POP SWAP1 SWAP4 POP POP POP POP JUMP JUMPDEST PUSH4 0x4E487B71 PUSH1 0xE0 SHL PUSH1 0x0 MSTORE PUSH1 0x12 PUSH1 0x4 MSTORE PUSH1 0x24 PUSH1 0x0 REVERT JUMPDEST PUSH4 0x4E487B71 PUSH1 0xE0 SHL PUSH1 0x0 MSTORE PUSH1 0x32 PUSH1 0x4 MSTORE PUSH1 0x24 PUSH1 0x0 REVERT JUMPDEST PUSH1 0x0 PUSH1 0xFF DUP3 AND PUSH1 0xFF DUP2 SUB PUSH2 0x288 JUMPI PUSH4 0x4E487B71 PUSH1 0xE0 SHL PUSH1 0x0 MSTORE PUSH1 0x11 PUSH1 0x4 MSTORE PUSH1 0x24 PUSH1 0x0 REVERT JUMPDEST PUSH1 0x1 ADD SWAP3 SWAP2 POP POP JUMP INVALID LOG2 PUSH5 0x6970667358 0x22 SLT KECCAK256 MULMOD SWAP2 0xDC 0xB3 DUP7 LOG1 PUSH20 0xA1E364AB6050079ADDD9D7BEB5E93402FDFF5128 PUSH8 0x25CFD15964736F6C PUSH4 0x43000814 STOP CALLER "},"methodIdentifiers":{"MiMC5Sponge(uint256[2],uint256)":"d622e5a4"}}}}}