{"contracts/Wishlist.sol":{"WishlistNFT":{"abi":[{"inputs":[{"internalType":"address","name":"_hasher","type":"address"},{"internalType":"address","name":"_plonkVerifier","type":"address"}],"stateMutability":"nonpayable","type":"constructor"},{"inputs":[{"internalType":"address","name":"sender","type":"address"},{"internalType":"uint256","name":"tokenId","type":"uint256"},{"internalType":"address","name":"owner","type":"address"}],"name":"ERC721IncorrectOwner","type":"error"},{"inputs":[{"internalType":"address","name":"operator","type":"address"},{"internalType":"uint256","name":"tokenId","type":"uint256"}],"name":"ERC721InsufficientApproval","type":"error"},{"inputs":[{"internalType":"address","name":"approver","type":"address"}],"name":"ERC721InvalidApprover","type":"error"},{"inputs":[{"internalType":"address","name":"operator","type":"address"}],"name":"ERC721InvalidOperator","type":"error"},{"inputs":[{"internalType":"address","name":"owner","type":"address"}],"name":"ERC721InvalidOwner","type":"error"},{"inputs":[{"internalType":"address","name":"receiver","type":"address"}],"name":"ERC721InvalidReceiver","type":"error"},{"inputs":[{"internalType":"address","name":"sender","type":"address"}],"name":"ERC721InvalidSender","type":"error"},{"inputs":[{"internalType":"uint256","name":"tokenId","type":"uint256"}],"name":"ERC721NonexistentToken","type":"error"},{"anonymous":false,"inputs":[{"indexed":true,"internalType":"address","name":"owner","type":"address"},{"indexed":true,"internalType":"address","name":"approved","type":"address"},{"indexed":true,"internalType":"uint256","name":"tokenId","type":"uint256"}],"name":"Approval","type":"event"},{"anonymous":false,"inputs":[{"indexed":true,"internalType":"address","name":"owner","type":"address"},{"indexed":true,"internalType":"address","name":"operator","type":"address"},{"indexed":false,"internalType":"bool","name":"approved","type":"bool"}],"name":"ApprovalForAll","type":"event"},{"anonymous":false,"inputs":[{"indexed":true,"internalType":"uint256","name":"itemId","type":"uint256"},{"indexed":true,"internalType":"address","name":"recipient","type":"address"}],"name":"NFTMinted","type":"event"},{"anonymous":false,"inputs":[{"indexed":true,"internalType":"address","name":"from","type":"address"},{"indexed":true,"internalType":"address","name":"to","type":"address"},{"indexed":true,"internalType":"uint256","name":"tokenId","type":"uint256"}],"name":"Transfer","type":"event"},{"anonymous":false,"inputs":[{"indexed":true,"internalType":"uint256","name":"itemId","type":"uint256"},{"indexed":false,"internalType":"uint8","name":"amount","type":"uint8"},{"indexed":true,"internalType":"address","name":"fulfiller","type":"address"}],"name":"WishlistFulfilled","type":"event"},{"anonymous":false,"inputs":[{"indexed":true,"internalType":"uint256","name":"itemId","type":"uint256"},{"indexed":false,"internalType":"uint8","name":"price","type":"uint8"},{"indexed":true,"internalType":"address","name":"recipient","type":"address"}],"name":"WishlistItemAdded","type":"event"},{"anonymous":false,"inputs":[{"indexed":false,"internalType":"uint256","name":"root","type":"uint256"},{"indexed":false,"internalType":"uint256[10]","name":"hashPairings","type":"uint256[10]"},{"indexed":false,"internalType":"uint8[10]","name":"pairDirection","type":"uint8[10]"},{"indexed":false,"internalType":"uint256","name":"denomination","type":"uint256"}],"name":"commitmentEvent","type":"event"},{"inputs":[{"internalType":"uint256","name":"itemId","type":"uint256"},{"internalType":"uint8","name":"price","type":"uint8"},{"internalType":"address","name":"recipient","type":"address"}],"name":"addWishlistItem","outputs":[],"stateMutability":"nonpayable","type":"function"},{"inputs":[{"internalType":"address","name":"to","type":"address"},{"internalType":"uint256","name":"tokenId","type":"uint256"}],"name":"approve","outputs":[],"stateMutability":"nonpayable","type":"function"},{"inputs":[{"internalType":"address","name":"owner","type":"address"}],"name":"balanceOf","outputs":[{"internalType":"uint256","name":"","type":"uint256"}],"stateMutability":"view","type":"function"},{"inputs":[{"internalType":"uint256","name":"_commitment","type":"uint256"}],"name":"commitmentStorage","outputs":[],"stateMutability":"payable","type":"function"},{"inputs":[{"internalType":"uint256","name":"","type":"uint256"}],"name":"commitments","outputs":[{"internalType":"bool","name":"","type":"bool"}],"stateMutability":"view","type":"function"},{"inputs":[],"name":"denomination","outputs":[{"internalType":"uint256","name":"","type":"uint256"}],"stateMutability":"view","type":"function"},{"inputs":[{"internalType":"uint256","name":"itemId","type":"uint256"},{"internalType":"uint8","name":"amount","type":"uint8"}],"name":"fulfillWishlist","outputs":[],"stateMutability":"payable","type":"function"},{"inputs":[{"internalType":"uint256","name":"","type":"uint256"}],"name":"fulfillmentAmounts","outputs":[{"internalType":"uint8","name":"","type":"uint8"}],"stateMutability":"view","type":"function"},{"inputs":[{"internalType":"uint256","name":"tokenId","type":"uint256"}],"name":"getApproved","outputs":[{"internalType":"address","name":"","type":"address"}],"stateMutability":"view","type":"function"},{"inputs":[{"internalType":"address","name":"owner","type":"address"},{"internalType":"address","name":"operator","type":"address"}],"name":"isApprovedForAll","outputs":[{"internalType":"bool","name":"","type":"bool"}],"stateMutability":"view","type":"function"},{"inputs":[{"internalType":"uint256","name":"","type":"uint256"}],"name":"itemRecipients","outputs":[{"internalType":"address","name":"","type":"address"}],"stateMutability":"view","type":"function"},{"inputs":[{"internalType":"uint256","name":"","type":"uint256"}],"name":"mintedItems","outputs":[{"internalType":"bool","name":"","type":"bool"}],"stateMutability":"view","type":"function"},{"inputs":[],"name":"name","outputs":[{"internalType":"string","name":"","type":"string"}],"stateMutability":"view","type":"function"},{"inputs":[],"name":"nextLeafIdx","outputs":[{"internalType":"uint256","name":"","type":"uint256"}],"stateMutability":"view","type":"function"},{"inputs":[{"internalType":"uint256","name":"","type":"uint256"}],"name":"nullifierHashes","outputs":[{"internalType":"bool","name":"","type":"bool"}],"stateMutability":"view","type":"function"},{"inputs":[{"internalType":"uint256","name":"tokenId","type":"uint256"}],"name":"ownerOf","outputs":[{"internalType":"address","name":"","type":"address"}],"stateMutability":"view","type":"function"},{"inputs":[{"internalType":"uint256","name":"","type":"uint256"}],"name":"roots","outputs":[{"internalType":"bool","name":"","type":"bool"}],"stateMutability":"view","type":"function"},{"inputs":[{"internalType":"address","name":"from","type":"address"},{"internalType":"address","name":"to","type":"address"},{"internalType":"uint256","name":"tokenId","type":"uint256"}],"name":"safeTransferFrom","outputs":[],"stateMutability":"nonpayable","type":"function"},{"inputs":[{"internalType":"address","name":"from","type":"address"},{"internalType":"address","name":"to","type":"address"},{"internalType":"uint256","name":"tokenId","type":"uint256"},{"internalType":"bytes","name":"data","type":"bytes"}],"name":"safeTransferFrom","outputs":[],"stateMutability":"nonpayable","type":"function"},{"inputs":[{"internalType":"address","name":"operator","type":"address"},{"internalType":"bool","name":"approved","type":"bool"}],"name":"setApprovalForAll","outputs":[],"stateMutability":"nonpayable","type":"function"},{"inputs":[{"internalType":"bytes4","name":"interfaceId","type":"bytes4"}],"name":"supportsInterface","outputs":[{"internalType":"bool","name":"","type":"bool"}],"stateMutability":"view","type":"function"},{"inputs":[],"name":"symbol","outputs":[{"internalType":"string","name":"","type":"string"}],"stateMutability":"view","type":"function"},{"inputs":[{"internalType":"uint256","name":"tokenId","type":"uint256"}],"name":"tokenURI","outputs":[{"internalType":"string","name":"","type":"string"}],"stateMutability":"view","type":"function"},{"inputs":[{"internalType":"address","name":"from","type":"address"},{"internalType":"address","name":"to","type":"address"},{"internalType":"uint256","name":"tokenId","type":"uint256"}],"name":"transferFrom","outputs":[],"stateMutability":"nonpayable","type":"function"},{"inputs":[],"name":"treeLevel","outputs":[{"internalType":"uint256","name":"","type":"uint256"}],"stateMutability":"view","type":"function"},{"inputs":[{"internalType":"uint256[24]","name":"_proof","type":"uint256[24]"},{"internalType":"uint256[3]","name":"_pubSignals","type":"uint256[3]"}],"name":"verifyPlonk","outputs":[],"stateMutability":"payable","type":"function"},{"inputs":[{"internalType":"uint256","name":"","type":"uint256"}],"name":"wishlistItems","outputs":[{"internalType":"uint8","name":"","type":"uint8"}],"stateMutability":"view","type":"function"}],"evm":{"bytecode":{"linkReferences":{},"object":"600a600d819055670de0b6b3a7640000600e556000600f556101c06040527f8cfd904a1564f728bad463e11678c335bbe7bb55e73a07588b14f8bd04545c3d60809081527f3a362132ff01c0f19143e7526b28c6fdcabecaad0dfcdfdf6d8f23483b99438460a0527fcafc0f3216abfccb1134117a825ba2e17388c9b09877b1fee9873697c41de04460c0527f52d21251f1b6967a0505130ebea06b9d8e8cb000abe492df5259d6678b0e215360e0527f1548db067f3cf9a942c70c5ce0b6048806dd74e2b709f1d30e7a191548943a9d610100527f1ea1a9099c5691137f1d3d1830867cdd75c536dff279663aefb7b49f7798f4cb610120527f772dac99aed444be6218c8da12c933163e165b31f1099b7869f4ec29ba4da1c7610140527fc1c6314026af83a766e1ad18d985ac243fadcf9c07932757904500e6cff80b98610160527fa23d32762958399632e9e0b52d049042041484a30974a83254af4e50893ad991610180527f7ae8404bbd3493825346a185473e48d1015672145bef4cd06002212e65ed18ce6101a0526200019c916014919062000267565b50348015620001aa57600080fd5b50604051620024c7380380620024c7833981016040819052620001cd91620002de565b6040518060400160405280600b81526020016a15da5cda1b1a5cdd13919560aa1b8152506040518060400160405280600481526020016315d3919560e21b81525081600090816200021f9190620003bb565b5060016200022e8282620003bb565b5050600a80546001600160a01b039485166001600160a01b031991821617909155600c8054939094169216919091179091555062000487565b82600a810192821562000298579160200282015b82811115620002985782518255916020019190600101906200027b565b50620002a6929150620002aa565b5090565b5b80821115620002a65760008155600101620002ab565b80516001600160a01b0381168114620002d957600080fd5b919050565b60008060408385031215620002f257600080fd5b620002fd83620002c1565b91506200030d60208401620002c1565b90509250929050565b634e487b7160e01b600052604160045260246000fd5b600181811c908216806200034157607f821691505b6020821081036200036257634e487b7160e01b600052602260045260246000fd5b50919050565b601f821115620003b657600081815260208120601f850160051c81016020861015620003915750805b601f850160051c820191505b81811015620003b2578281556001016200039d565b5050505b505050565b81516001600160401b03811115620003d757620003d762000316565b620003ef81620003e884546200032c565b8462000368565b602080601f8311600181146200042757600084156200040e5750858301515b600019600386901b1c1916600185901b178555620003b2565b600085815260208120601f198616915b82811015620004585788860151825594840194600190910190840162000437565b5085821015620004775787850151600019600388901b60f8161c191681555b5050505050600190811b01905550565b61203080620004976000396000f3fe60806040526004361061019c5760003560e01c80636352211e116100ec578063a22cb4651161008a578063c2b40ae411610064578063c2b40ae4146104d2578063c87b56dd14610502578063dad46ced14610522578063e985e9c51461055857600080fd5b8063a22cb4651461047c578063b88d4fde1461049c578063b8e79564146104bc57600080fd5b80636b5d45ae116100c65780636b5d45ae1461041157806370a08231146104315780638bca6d161461045157806395d89b411461046757600080fd5b80636352211e146103ae578063665bd421146103ce5780636a81beb3146103fe57600080fd5b806323b872dd1161015957806345e0523f1161013357806345e0523f146103055780634755c7461461032957806349ce89971461033c57806352d5d0ee1461036c57600080fd5b806323b872dd1461029557806340042a8e146102b557806342842e0e146102e557600080fd5b806301ffc9a7146101a157806306fdde03146101d6578063081812fc146101f8578063095ea7b3146102305780631db140ba146102525780631f79a1e914610265575b600080fd5b3480156101ad57600080fd5b506101c16101bc366004611904565b610578565b60405190151581526020015b60405180910390f35b3480156101e257600080fd5b506101eb6105ca565b6040516101cd9190611971565b34801561020457600080fd5b50610218610213366004611984565b61065c565b6040516001600160a01b0390911681526020016101cd565b34801561023c57600080fd5b5061025061024b3660046119b9565b610685565b005b6102506102603660046119e3565b610694565b34801561027157600080fd5b506101c1610280366004611984565b60126020526000908152604090205460ff1681565b3480156102a157600080fd5b506102506102b0366004611a28565b6108c4565b3480156102c157600080fd5b506101c16102d0366004611984565b60086020526000908152604090205460ff1681565b3480156102f157600080fd5b50610250610300366004611a28565b61094f565b34801561031157600080fd5b5061031b600f5481565b6040519081526020016101cd565b610250610337366004611a75565b61096f565b34801561034857600080fd5b506101c1610357366004611984565b60136020526000908152604090205460ff1681565b34801561037857600080fd5b5061039c610387366004611984565b60076020526000908152604090205460ff1681565b60405160ff90911681526020016101cd565b3480156103ba57600080fd5b506102186103c9366004611984565b610b33565b3480156103da57600080fd5b5061039c6103e9366004611984565b60066020526000908152604090205460ff1681565b61025061040c366004611984565b610b3e565b34801561041d57600080fd5b5061025061042c366004611aa1565b610e77565b34801561043d57600080fd5b5061031b61044c366004611add565b610fa0565b34801561045d57600080fd5b5061031b600e5481565b34801561047357600080fd5b506101eb610fe8565b34801561048857600080fd5b50610250610497366004611af8565b610ff7565b3480156104a857600080fd5b506102506104b7366004611b4a565b611002565b3480156104c857600080fd5b5061031b600d5481565b3480156104de57600080fd5b506101c16104ed366004611984565b60106020526000908152604090205460ff1681565b34801561050e57600080fd5b506101eb61051d366004611984565b61101a565b34801561052e57600080fd5b5061021861053d366004611984565b6009602052600090815260409020546001600160a01b031681565b34801561056457600080fd5b506101c1610573366004611c26565b61108f565b60006001600160e01b031982166380ac58cd60e01b14806105a957506001600160e01b03198216635b5e139f60e01b145b806105c457506301ffc9a760e01b6001600160e01b03198316145b92915050565b6060600080546105d990611c50565b80601f016020809104026020016040519081016040528092919081815260200182805461060590611c50565b80156106525780601f1061062757610100808354040283529160200191610652565b820191906000526020600020905b81548152906001019060200180831161063557829003601f168201915b5050505050905090565b6000610667826110bd565b506000828152600460205260409020546001600160a01b03166105c4565b6106908282336110f6565b5050565b60208082013560008181526012909252604091829020548335928401359060ff16156106f75760405162461bcd60e51b815260206004820152600d60248201526c185b1c9958591e4b5cdc195b9d609a1b60448201526064015b60405180910390fd5b60008381526010602052604090205460ff166107405760405162461bcd60e51b81526020600482015260086024820152671b9bdb8b5c9bdbdd60c21b60448201526064016106ee565b600c54604080516060810182528581526020810185905280820184905290516000926001600160a01b03169161077b91899190602401611ca0565b60408051601f198184030181529181526020820180516001600160e01b0316630eac01ff60e11b179052516107b09190611cdb565b6000604051808303816000865af19150503d80600081146107ed576040519150601f19603f3d011682016040523d82523d6000602084013e6107f2565b606091505b50509050806108435760405162461bcd60e51b815260206004820152601c60248201527f696e76616c6964207a65726f206b6e6f776c656467652070726f6f660000000060448201526064016106ee565b60008381526012602052604090819020805460ff19166001908117909155600e5491516323aae3a360e11b81526004810185905260248101919091523091634755c746916044016000604051808303818588803b1580156108a357600080fd5b505af11580156108b7573d6000803e3d6000fd5b5050505050505050505050565b6001600160a01b0382166108ee57604051633250574960e11b8152600060048201526024016106ee565b60006108fb838333611103565b9050836001600160a01b0316816001600160a01b031614610949576040516364283d7b60e01b81526001600160a01b03808616600483015260248201849052821660448201526064016106ee565b50505050565b61096a83838360405180602001604052806000815250611002565b505050565b60008281526006602052604090205460ff166109c45760405162461bcd60e51b8152602060048201526014602482015273125d195b481b9bdd081a5b881dda5cda1b1a5cdd60621b60448201526064016106ee565b60008281526008602052604090205460ff1615610a195760405162461bcd60e51b8152602060048201526013602482015272125d195b48185b1c9958591e481b5a5b9d1959606a1b60448201526064016106ee565b610a2e60ff8216670de0b6b3a7640000611d0d565b67ffffffffffffffff163414610a7f5760405162461bcd60e51b8152602060048201526016602482015275125b98dbdc9c9958dd08115d1a195c88185b5bdd5b9d60521b60448201526064016106ee565b60008281526007602052604081208054839290610aa090849060ff16611d39565b92506101000a81548160ff021916908360ff160217905550336001600160a01b0316827fa7b89af353380e12b2c4f0e865f9af5848bd917ea72978858a547bafb2c8cad483604051610afb919060ff91909116815260200190565b60405180910390a360008281526006602090815260408083205460079092529091205460ff91821691161061069057610690826111fc565b60006105c4826110bd565b60008181526013602052604090205460ff1615610b9d5760405162461bcd60e51b815260206004820152601960248201527f6475706c696361746520636f6d6d69746d656e7420686173680000000000000060448201526064016106ee565b600d54610bab906002611e36565b600f5410610bee5760405162461bcd60e51b815260206004820152601060248201526f1d1a19481d1c9959481a5cc8199d5b1b60821b60448201526064016106ee565b6000610bf86118ae565b610c006118ae565b600f5484600080610c0f6118cd565b60005b600d548160ff161015610ddb57610c2a600287611e58565b600003610ca95784935060148160ff16600a8110610c4a57610c4a611c8a565b0154925060148160ff16600a8110610c6457610c64611c8a565b0154888260ff16600a8110610c7b57610c7b611c8a565b602002015260008760ff8316600a8110610c9757610c97611c8a565b60ff9092166020929092020152610cff565b60ff8116600081815260116020526040902054945085935084908990600a8110610cd557610cd5611c8a565b602002015260018760ff8316600a8110610cf157610cf1611c8a565b60ff90921660209290920201525b60ff81166000908152601160205260408120869055849083906020020152828260016020020181815250506000600a60009054906101000a90046001600160a01b03166001600160a01b031663d622e5a4620249f0858e6040518463ffffffff1660e01b8152600401610d73929190611e6c565b6020604051808303818786fa158015610d90573d6000803e3d6000fd5b50505050506040513d601f19601f82011682018060405250810190610db59190611ea4565b9550859050610dc5600288611ebd565b9650508080610dd390611ed1565b915050610c12565b506000848152601060205260408120805460ff19166001908117909155600f8054969a508a9691929091610e10908490611ef0565b909155505060008981526013602052604090819020805460ff19166001179055517f896663b5db78d158499a6a38a2f114f6098cbe51422e4528677a4f0beb096e2f90610e64908a908a908a903490611f03565b60405180910390a1505050505050505050565b60008381526008602052604090205460ff1615610ecc5760405162461bcd60e51b81526020600482015260136024820152724974656d20616c72656164792065786973747360681b60448201526064016106ee565b6001600160a01b038116610f225760405162461bcd60e51b815260206004820152601960248201527f496e76616c696420726563697069656e7420616464726573730000000000000060448201526064016106ee565b6000838152600660209081526040808320805460ff191660ff8716908117909155600983529281902080546001600160a01b0319166001600160a01b03861690811790915590519283529185917f3c56e6863acfa01555065fd061b878cd3dbf54409e9f648f60254a945c805af591015b60405180910390a3505050565b60006001600160a01b038216610fcc576040516322718ad960e21b8152600060048201526024016106ee565b506001600160a01b031660009081526003602052604090205490565b6060600180546105d990611c50565b61069033838361131a565b61100d8484846108c4565b61094933858585856113b1565b6060611025826110bd565b50600061103d60408051602081019091526000815290565b9050600081511161105d5760405180602001604052806000815250611088565b80611067846114dc565b604051602001611078929190611f71565b6040516020818303038152906040525b9392505050565b6001600160a01b03918216600090815260056020908152604080832093909416825291909152205460ff1690565b6000818152600260205260408120546001600160a01b0316806105c457604051637e27328960e01b8152600481018490526024016106ee565b61096a838383600161156f565b6000828152600260205260408120546001600160a01b039081169083161561113057611130818486611675565b6001600160a01b0381161561116e5761114d60008560008061156f565b6001600160a01b038116600090815260036020526040902080546000190190555b6001600160a01b0385161561119d576001600160a01b0385166000908152600360205260409020805460010190555b60008481526002602052604080822080546001600160a01b0319166001600160a01b0389811691821790925591518793918516917fddf252ad1be2c89b69c2b068fc378daa952ba7f163c4a11628f55a4df523b3ef91a4949350505050565b60008181526008602052604090205460ff161561125b5760405162461bcd60e51b815260206004820181905260248201527f4e465420616c7265616479206d696e74656420666f722074686973206974656d60448201526064016106ee565b6000818152600960205260409020546001600160a01b0316806112c05760405162461bcd60e51b815260206004820152601f60248201527f526563697069656e74206e6f742073657420666f722074686973206974656d0060448201526064016106ee565b6112ca81836116d9565b600082815260086020526040808220805460ff19166001179055516001600160a01b0383169184917f0176f203df400d7bd5f1b1c9ef36c16709bf3b5d9fd35f000a6bae32393f66c39190a35050565b6001600160a01b03821661134c57604051630b61174360e31b81526001600160a01b03831660048201526024016106ee565b6001600160a01b03838116600081815260056020908152604080832094871680845294825291829020805460ff191686151590811790915591519182527f17307eab39ab6107e8899845ad3d59bd9653f200f220920489ca2b5937696c319101610f93565b6001600160a01b0383163b156114d557604051630a85bd0160e11b81526001600160a01b0384169063150b7a02906113f3908890889087908790600401611fa0565b6020604051808303816000875af192505050801561142e575060408051601f3d908101601f1916820190925261142b91810190611fdd565b60015b611497573d80801561145c576040519150601f19603f3d011682016040523d82523d6000602084013e611461565b606091505b50805160000361148f57604051633250574960e11b81526001600160a01b03851660048201526024016106ee565b805181602001fd5b6001600160e01b03198116630a85bd0160e11b146114d357604051633250574960e11b81526001600160a01b03851660048201526024016106ee565b505b5050505050565b606060006114e9836116f3565b600101905060008167ffffffffffffffff81111561150957611509611b34565b6040519080825280601f01601f191660200182016040528015611533576020820181803683370190505b5090508181016020015b600019016f181899199a1a9b1b9c1cb0b131b232b360811b600a86061a8153600a850494508461153d57509392505050565b808061158357506001600160a01b03821615155b15611645576000611593846110bd565b90506001600160a01b038316158015906115bf5750826001600160a01b0316816001600160a01b031614155b80156115d257506115d0818461108f565b155b156115fb5760405163a9fbf51f60e01b81526001600160a01b03841660048201526024016106ee565b81156116435783856001600160a01b0316826001600160a01b03167f8c5be1e5ebec7d5bd14f71427d1e84f3dd0314c0f7b2291e5b200ac8c7c3b92560405160405180910390a45b505b5050600090815260046020526040902080546001600160a01b0319166001600160a01b0392909216919091179055565b6116808383836117cb565b61096a576001600160a01b0383166116ae57604051637e27328960e01b8152600481018290526024016106ee565b60405163177e802f60e01b81526001600160a01b0383166004820152602481018290526044016106ee565b610690828260405180602001604052806000815250611831565b60008072184f03e93ff9f4daa797ed6e38ed64bf6a1f0160401b83106117325772184f03e93ff9f4daa797ed6e38ed64bf6a1f0160401b830492506040015b6d04ee2d6d415b85acef8100000000831061175e576d04ee2d6d415b85acef8100000000830492506020015b662386f26fc10000831061177c57662386f26fc10000830492506010015b6305f5e1008310611794576305f5e100830492506008015b61271083106117a857612710830492506004015b606483106117ba576064830492506002015b600a83106105c45760010192915050565b60006001600160a01b038316158015906118295750826001600160a01b0316846001600160a01b031614806118055750611805848461108f565b8061182957506000828152600460205260409020546001600160a01b038481169116145b949350505050565b61183b8383611849565b61096a3360008585856113b1565b6001600160a01b03821661187357604051633250574960e11b8152600060048201526024016106ee565b600061188183836000611103565b90506001600160a01b0381161561096a576040516339e3563760e11b8152600060048201526024016106ee565b604051806101400160405280600a906020820280368337509192915050565b60405180604001604052806002906020820280368337509192915050565b6001600160e01b03198116811461190157600080fd5b50565b60006020828403121561191657600080fd5b8135611088816118eb565b60005b8381101561193c578181015183820152602001611924565b50506000910152565b6000815180845261195d816020860160208601611921565b601f01601f19169290920160200192915050565b6020815260006110886020830184611945565b60006020828403121561199657600080fd5b5035919050565b80356001600160a01b03811681146119b457600080fd5b919050565b600080604083850312156119cc57600080fd5b6119d58361199d565b946020939093013593505050565b6000806103608084860312156119f857600080fd5b610300840185811115611a0a57600080fd5b849350858286011115611a1c57600080fd5b80925050509250929050565b600080600060608486031215611a3d57600080fd5b611a468461199d565b9250611a546020850161199d565b9150604084013590509250925092565b803560ff811681146119b457600080fd5b60008060408385031215611a8857600080fd5b82359150611a9860208401611a64565b90509250929050565b600080600060608486031215611ab657600080fd5b83359250611ac660208501611a64565b9150611ad46040850161199d565b90509250925092565b600060208284031215611aef57600080fd5b6110888261199d565b60008060408385031215611b0b57600080fd5b611b148361199d565b915060208301358015158114611b2957600080fd5b809150509250929050565b634e487b7160e01b600052604160045260246000fd5b60008060008060808587031215611b6057600080fd5b611b698561199d565b9350611b776020860161199d565b925060408501359150606085013567ffffffffffffffff80821115611b9b57600080fd5b818701915087601f830112611baf57600080fd5b813581811115611bc157611bc1611b34565b604051601f8201601f19908116603f01168101908382118183101715611be957611be9611b34565b816040528281528a6020848701011115611c0257600080fd5b82602086016020830137600060208483010152809550505050505092959194509250565b60008060408385031215611c3957600080fd5b611c428361199d565b9150611a986020840161199d565b600181811c90821680611c6457607f821691505b602082108103611c8457634e487b7160e01b600052602260045260246000fd5b50919050565b634e487b7160e01b600052603260045260246000fd5b61036081016103008085843782018360005b6003811015611cd1578151835260209283019290910190600101611cb2565b5050509392505050565b60008251611ced818460208701611921565b9190910192915050565b634e487b7160e01b600052601160045260246000fd5b67ffffffffffffffff818116838216028082169190828114611d3157611d31611cf7565b505092915050565b60ff81811683821601908111156105c4576105c4611cf7565b600181815b80851115611d8d578160001904821115611d7357611d73611cf7565b80851615611d8057918102915b93841c9390800290611d57565b509250929050565b600082611da4575060016105c4565b81611db1575060006105c4565b8160018114611dc75760028114611dd157611ded565b60019150506105c4565b60ff841115611de257611de2611cf7565b50506001821b6105c4565b5060208310610133831016604e8410600b8410161715611e10575081810a6105c4565b611e1a8383611d52565b8060001904821115611e2e57611e2e611cf7565b029392505050565b60006110888383611d95565b634e487b7160e01b600052601260045260246000fd5b600082611e6757611e67611e42565b500690565b60608101818460005b6002811015611e94578151835260209283019290910190600101611e75565b5050508260408301529392505050565b600060208284031215611eb657600080fd5b5051919050565b600082611ecc57611ecc611e42565b500490565b600060ff821660ff8103611ee757611ee7611cf7565b60010192915050565b808201808211156105c4576105c4611cf7565b8481526102c0810160208083018660005b600a811015611f3157815183529183019190830190600101611f14565b50505061016083018560005b600a811015611f5d57815160ff1683529183019190830190600101611f3d565b50505050826102a083015295945050505050565b60008351611f83818460208801611921565b835190830190611f97818360208801611921565b01949350505050565b6001600160a01b0385811682528416602082015260408101839052608060608201819052600090611fd390830184611945565b9695505050505050565b600060208284031215611fef57600080fd5b8151611088816118eb56fea2646970667358221220fcfc679b003a2f200833bca0a76741b243e4b3d764be6a594c3721de980a6a5364736f6c63430008140033","opcodes":"PUSH1 0xA PUSH1 0xD DUP2 SWAP1 SSTORE PUSH8 0xDE0B6B3A7640000 PUSH1 0xE SSTORE PUSH1 0x0 PUSH1 0xF SSTORE PUSH2 0x1C0 PUSH1 0x40 MSTORE PUSH32 0x8CFD904A1564F728BAD463E11678C335BBE7BB55E73A07588B14F8BD04545C3D PUSH1 0x80 SWAP1 DUP2 MSTORE PUSH32 0x3A362132FF01C0F19143E7526B28C6FDCABECAAD0DFCDFDF6D8F23483B994384 PUSH1 0xA0 MSTORE PUSH32 0xCAFC0F3216ABFCCB1134117A825BA2E17388C9B09877B1FEE9873697C41DE044 PUSH1 0xC0 MSTORE PUSH32 0x52D21251F1B6967A0505130EBEA06B9D8E8CB000ABE492DF5259D6678B0E2153 PUSH1 0xE0 MSTORE PUSH32 0x1548DB067F3CF9A942C70C5CE0B6048806DD74E2B709F1D30E7A191548943A9D PUSH2 0x100 MSTORE PUSH32 0x1EA1A9099C5691137F1D3D1830867CDD75C536DFF279663AEFB7B49F7798F4CB PUSH2 0x120 MSTORE PUSH32 0x772DAC99AED444BE6218C8DA12C933163E165B31F1099B7869F4EC29BA4DA1C7 PUSH2 0x140 MSTORE PUSH32 0xC1C6314026AF83A766E1AD18D985AC243FADCF9C07932757904500E6CFF80B98 PUSH2 0x160 MSTORE PUSH32 0xA23D32762958399632E9E0B52D049042041484A30974A83254AF4E50893AD991 PUSH2 0x180 MSTORE PUSH32 0x7AE8404BBD3493825346A185473E48D1015672145BEF4CD06002212E65ED18CE PUSH2 0x1A0 MSTORE PUSH3 0x19C SWAP2 PUSH1 0x14 SWAP2 SWAP1 PUSH3 0x267 JUMP JUMPDEST POP CALLVALUE DUP1 ISZERO PUSH3 0x1AA JUMPI PUSH1 0x0 DUP1 REVERT JUMPDEST POP PUSH1 0x40 MLOAD PUSH3 0x24C7 CODESIZE SUB DUP1 PUSH3 0x24C7 DUP4 CODECOPY DUP2 ADD PUSH1 0x40 DUP2 SWAP1 MSTORE PUSH3 0x1CD SWAP2 PUSH3 0x2DE JUMP JUMPDEST PUSH1 0x40 MLOAD DUP1 PUSH1 0x40 ADD PUSH1 0x40 MSTORE DUP1 PUSH1 0xB DUP2 MSTORE PUSH1 0x20 ADD PUSH11 0x15DA5CDA1B1A5CDD139195 PUSH1 0xAA SHL DUP2 MSTORE POP PUSH1 0x40 MLOAD DUP1 PUSH1 0x40 ADD PUSH1 0x40 MSTORE DUP1 PUSH1 0x4 DUP2 MSTORE PUSH1 0x20 ADD PUSH4 0x15D39195 PUSH1 0xE2 SHL DUP2 MSTORE POP DUP2 PUSH1 0x0 SWAP1 DUP2 PUSH3 0x21F SWAP2 SWAP1 PUSH3 0x3BB JUMP JUMPDEST POP PUSH1 0x1 PUSH3 0x22E DUP3 DUP3 PUSH3 0x3BB JUMP JUMPDEST POP POP PUSH1 0xA DUP1 SLOAD PUSH1 0x1 PUSH1 0x1 PUSH1 0xA0 SHL SUB SWAP5 DUP6 AND PUSH1 0x1 PUSH1 0x1 PUSH1 0xA0 SHL SUB NOT SWAP2 DUP3 AND OR SWAP1 SWAP2 SSTORE PUSH1 0xC DUP1 SLOAD SWAP4 SWAP1 SWAP5 AND SWAP3 AND SWAP2 SWAP1 SWAP2 OR SWAP1 SWAP2 SSTORE POP PUSH3 0x487 JUMP JUMPDEST DUP3 PUSH1 0xA DUP2 ADD SWAP3 DUP3 ISZERO PUSH3 0x298 JUMPI SWAP2 PUSH1 0x20 MUL DUP3 ADD JUMPDEST DUP3 DUP2 GT ISZERO PUSH3 0x298 JUMPI DUP3 MLOAD DUP3 SSTORE SWAP2 PUSH1 0x20 ADD SWAP2 SWAP1 PUSH1 0x1 ADD SWAP1 PUSH3 0x27B JUMP JUMPDEST POP PUSH3 0x2A6 SWAP3 SWAP2 POP PUSH3 0x2AA JUMP JUMPDEST POP SWAP1 JUMP JUMPDEST JUMPDEST DUP1 DUP3 GT ISZERO PUSH3 0x2A6 JUMPI PUSH1 0x0 DUP2 SSTORE PUSH1 0x1 ADD PUSH3 0x2AB JUMP JUMPDEST DUP1 MLOAD PUSH1 0x1 PUSH1 0x1 PUSH1 0xA0 SHL SUB DUP2 AND DUP2 EQ PUSH3 0x2D9 JUMPI PUSH1 0x0 DUP1 REVERT JUMPDEST SWAP2 SWAP1 POP JUMP JUMPDEST PUSH1 0x0 DUP1 PUSH1 0x40 DUP4 DUP6 SUB SLT ISZERO PUSH3 0x2F2 JUMPI PUSH1 0x0 DUP1 REVERT JUMPDEST PUSH3 0x2FD DUP4 PUSH3 0x2C1 JUMP JUMPDEST SWAP2 POP PUSH3 0x30D PUSH1 0x20 DUP5 ADD PUSH3 0x2C1 JUMP JUMPDEST SWAP1 POP SWAP3 POP SWAP3 SWAP1 POP JUMP JUMPDEST PUSH4 0x4E487B71 PUSH1 0xE0 SHL PUSH1 0x0 MSTORE PUSH1 0x41 PUSH1 0x4 MSTORE PUSH1 0x24 PUSH1 0x0 REVERT JUMPDEST PUSH1 0x1 DUP2 DUP2 SHR SWAP1 DUP3 AND DUP1 PUSH3 0x341 JUMPI PUSH1 0x7F DUP3 AND SWAP2 POP JUMPDEST PUSH1 0x20 DUP3 LT DUP2 SUB PUSH3 0x362 JUMPI PUSH4 0x4E487B71 PUSH1 0xE0 SHL PUSH1 0x0 MSTORE PUSH1 0x22 PUSH1 0x4 MSTORE PUSH1 0x24 PUSH1 0x0 REVERT JUMPDEST POP SWAP2 SWAP1 POP JUMP JUMPDEST PUSH1 0x1F DUP3 GT ISZERO PUSH3 0x3B6 JUMPI PUSH1 0x0 DUP2 DUP2 MSTORE PUSH1 0x20 DUP2 KECCAK256 PUSH1 0x1F DUP6 ADD PUSH1 0x5 SHR DUP2 ADD PUSH1 0x20 DUP7 LT ISZERO PUSH3 0x391 JUMPI POP DUP1 JUMPDEST PUSH1 0x1F DUP6 ADD PUSH1 0x5 SHR DUP3 ADD SWAP2 POP JUMPDEST DUP2 DUP2 LT ISZERO PUSH3 0x3B2 JUMPI DUP3 DUP2 SSTORE PUSH1 0x1 ADD PUSH3 0x39D JUMP JUMPDEST POP POP POP JUMPDEST POP POP POP JUMP JUMPDEST DUP2 MLOAD PUSH1 0x1 PUSH1 0x1 PUSH1 0x40 SHL SUB DUP2 GT ISZERO PUSH3 0x3D7 JUMPI PUSH3 0x3D7 PUSH3 0x316 JUMP JUMPDEST PUSH3 0x3EF DUP2 PUSH3 0x3E8 DUP5 SLOAD PUSH3 0x32C JUMP JUMPDEST DUP5 PUSH3 0x368 JUMP JUMPDEST PUSH1 0x20 DUP1 PUSH1 0x1F DUP4 GT PUSH1 0x1 DUP2 EQ PUSH3 0x427 JUMPI PUSH1 0x0 DUP5 ISZERO PUSH3 0x40E JUMPI POP DUP6 DUP4 ADD MLOAD JUMPDEST PUSH1 0x0 NOT PUSH1 0x3 DUP7 SWAP1 SHL SHR NOT AND PUSH1 0x1 DUP6 SWAP1 SHL OR DUP6 SSTORE PUSH3 0x3B2 JUMP JUMPDEST PUSH1 0x0 DUP6 DUP2 MSTORE PUSH1 0x20 DUP2 KECCAK256 PUSH1 0x1F NOT DUP7 AND SWAP2 JUMPDEST DUP3 DUP2 LT ISZERO PUSH3 0x458 JUMPI DUP9 DUP7 ADD MLOAD DUP3 SSTORE SWAP5 DUP5 ADD SWAP5 PUSH1 0x1 SWAP1 SWAP2 ADD SWAP1 DUP5 ADD PUSH3 0x437 JUMP JUMPDEST POP DUP6 DUP3 LT ISZERO PUSH3 0x477 JUMPI DUP8 DUP6 ADD MLOAD PUSH1 0x0 NOT PUSH1 0x3 DUP9 SWAP1 SHL PUSH1 0xF8 AND SHR NOT AND DUP2 SSTORE JUMPDEST POP POP POP POP POP PUSH1 0x1 SWAP1 DUP2 SHL ADD SWAP1 SSTORE POP JUMP JUMPDEST PUSH2 0x2030 DUP1 PUSH3 0x497 PUSH1 0x0 CODECOPY PUSH1 0x0 RETURN INVALID PUSH1 0x80 PUSH1 0x40 MSTORE PUSH1 0x4 CALLDATASIZE LT PUSH2 0x19C JUMPI PUSH1 0x0 CALLDATALOAD PUSH1 0xE0 SHR DUP1 PUSH4 0x6352211E GT PUSH2 0xEC JUMPI DUP1 PUSH4 0xA22CB465 GT PUSH2 0x8A JUMPI DUP1 PUSH4 0xC2B40AE4 GT PUSH2 0x64 JUMPI DUP1 PUSH4 0xC2B40AE4 EQ PUSH2 0x4D2 JUMPI DUP1 PUSH4 0xC87B56DD EQ PUSH2 0x502 JUMPI DUP1 PUSH4 0xDAD46CED EQ PUSH2 0x522 JUMPI DUP1 PUSH4 0xE985E9C5 EQ PUSH2 0x558 JUMPI PUSH1 0x0 DUP1 REVERT JUMPDEST DUP1 PUSH4 0xA22CB465 EQ PUSH2 0x47C JUMPI DUP1 PUSH4 0xB88D4FDE EQ PUSH2 0x49C JUMPI DUP1 PUSH4 0xB8E79564 EQ PUSH2 0x4BC JUMPI PUSH1 0x0 DUP1 REVERT JUMPDEST DUP1 PUSH4 0x6B5D45AE GT PUSH2 0xC6 JUMPI DUP1 PUSH4 0x6B5D45AE EQ PUSH2 0x411 JUMPI DUP1 PUSH4 0x70A08231 EQ PUSH2 0x431 JUMPI DUP1 PUSH4 0x8BCA6D16 EQ PUSH2 0x451 JUMPI DUP1 PUSH4 0x95D89B41 EQ PUSH2 0x467 JUMPI PUSH1 0x0 DUP1 REVERT JUMPDEST DUP1 PUSH4 0x6352211E EQ PUSH2 0x3AE JUMPI DUP1 PUSH4 0x665BD421 EQ PUSH2 0x3CE JUMPI DUP1 PUSH4 0x6A81BEB3 EQ PUSH2 0x3FE JUMPI PUSH1 0x0 DUP1 REVERT JUMPDEST DUP1 PUSH4 0x23B872DD GT PUSH2 0x159 JUMPI DUP1 PUSH4 0x45E0523F GT PUSH2 0x133 JUMPI DUP1 PUSH4 0x45E0523F EQ PUSH2 0x305 JUMPI DUP1 PUSH4 0x4755C746 EQ PUSH2 0x329 JUMPI DUP1 PUSH4 0x49CE8997 EQ PUSH2 0x33C JUMPI DUP1 PUSH4 0x52D5D0EE EQ PUSH2 0x36C JUMPI PUSH1 0x0 DUP1 REVERT JUMPDEST DUP1 PUSH4 0x23B872DD EQ PUSH2 0x295 JUMPI DUP1 PUSH4 0x40042A8E EQ PUSH2 0x2B5 JUMPI DUP1 PUSH4 0x42842E0E EQ PUSH2 0x2E5 JUMPI PUSH1 0x0 DUP1 REVERT JUMPDEST DUP1 PUSH4 0x1FFC9A7 EQ PUSH2 0x1A1 JUMPI DUP1 PUSH4 0x6FDDE03 EQ PUSH2 0x1D6 JUMPI DUP1 PUSH4 0x81812FC EQ PUSH2 0x1F8 JUMPI DUP1 PUSH4 0x95EA7B3 EQ PUSH2 0x230 JUMPI DUP1 PUSH4 0x1DB140BA EQ PUSH2 0x252 JUMPI DUP1 PUSH4 0x1F79A1E9 EQ PUSH2 0x265 JUMPI JUMPDEST PUSH1 0x0 DUP1 REVERT JUMPDEST CALLVALUE DUP1 ISZERO PUSH2 0x1AD JUMPI PUSH1 0x0 DUP1 REVERT JUMPDEST POP PUSH2 0x1C1 PUSH2 0x1BC CALLDATASIZE PUSH1 0x4 PUSH2 0x1904 JUMP JUMPDEST PUSH2 0x578 JUMP JUMPDEST PUSH1 0x40 MLOAD SWAP1 ISZERO ISZERO DUP2 MSTORE PUSH1 0x20 ADD JUMPDEST PUSH1 0x40 MLOAD DUP1 SWAP2 SUB SWAP1 RETURN JUMPDEST CALLVALUE DUP1 ISZERO PUSH2 0x1E2 JUMPI PUSH1 0x0 DUP1 REVERT JUMPDEST POP PUSH2 0x1EB PUSH2 0x5CA JUMP JUMPDEST PUSH1 0x40 MLOAD PUSH2 0x1CD SWAP2 SWAP1 PUSH2 0x1971 JUMP JUMPDEST CALLVALUE DUP1 ISZERO PUSH2 0x204 JUMPI PUSH1 0x0 DUP1 REVERT JUMPDEST POP PUSH2 0x218 PUSH2 0x213 CALLDATASIZE PUSH1 0x4 PUSH2 0x1984 JUMP JUMPDEST PUSH2 0x65C JUMP JUMPDEST PUSH1 0x40 MLOAD PUSH1 0x1 PUSH1 0x1 PUSH1 0xA0 SHL SUB SWAP1 SWAP2 AND DUP2 MSTORE PUSH1 0x20 ADD PUSH2 0x1CD JUMP JUMPDEST CALLVALUE DUP1 ISZERO PUSH2 0x23C JUMPI PUSH1 0x0 DUP1 REVERT JUMPDEST POP PUSH2 0x250 PUSH2 0x24B CALLDATASIZE PUSH1 0x4 PUSH2 0x19B9 JUMP JUMPDEST PUSH2 0x685 JUMP JUMPDEST STOP JUMPDEST PUSH2 0x250 PUSH2 0x260 CALLDATASIZE PUSH1 0x4 PUSH2 0x19E3 JUMP JUMPDEST PUSH2 0x694 JUMP JUMPDEST CALLVALUE DUP1 ISZERO PUSH2 0x271 JUMPI PUSH1 0x0 DUP1 REVERT JUMPDEST POP PUSH2 0x1C1 PUSH2 0x280 CALLDATASIZE PUSH1 0x4 PUSH2 0x1984 JUMP JUMPDEST PUSH1 0x12 PUSH1 0x20 MSTORE PUSH1 0x0 SWAP1 DUP2 MSTORE PUSH1 0x40 SWAP1 KECCAK256 SLOAD PUSH1 0xFF AND DUP2 JUMP JUMPDEST CALLVALUE DUP1 ISZERO PUSH2 0x2A1 JUMPI PUSH1 0x0 DUP1 REVERT JUMPDEST POP PUSH2 0x250 PUSH2 0x2B0 CALLDATASIZE PUSH1 0x4 PUSH2 0x1A28 JUMP JUMPDEST PUSH2 0x8C4 JUMP JUMPDEST CALLVALUE DUP1 ISZERO PUSH2 0x2C1 JUMPI PUSH1 0x0 DUP1 REVERT JUMPDEST POP PUSH2 0x1C1 PUSH2 0x2D0 CALLDATASIZE PUSH1 0x4 PUSH2 0x1984 JUMP JUMPDEST PUSH1 0x8 PUSH1 0x20 MSTORE PUSH1 0x0 SWAP1 DUP2 MSTORE PUSH1 0x40 SWAP1 KECCAK256 SLOAD PUSH1 0xFF AND DUP2 JUMP JUMPDEST CALLVALUE DUP1 ISZERO PUSH2 0x2F1 JUMPI PUSH1 0x0 DUP1 REVERT JUMPDEST POP PUSH2 0x250 PUSH2 0x300 CALLDATASIZE PUSH1 0x4 PUSH2 0x1A28 JUMP JUMPDEST PUSH2 0x94F JUMP JUMPDEST CALLVALUE DUP1 ISZERO PUSH2 0x311 JUMPI PUSH1 0x0 DUP1 REVERT JUMPDEST POP PUSH2 0x31B PUSH1 0xF SLOAD DUP2 JUMP JUMPDEST PUSH1 0x40 MLOAD SWAP1 DUP2 MSTORE PUSH1 0x20 ADD PUSH2 0x1CD JUMP JUMPDEST PUSH2 0x250 PUSH2 0x337 CALLDATASIZE PUSH1 0x4 PUSH2 0x1A75 JUMP JUMPDEST PUSH2 0x96F JUMP JUMPDEST CALLVALUE DUP1 ISZERO PUSH2 0x348 JUMPI PUSH1 0x0 DUP1 REVERT JUMPDEST POP PUSH2 0x1C1 PUSH2 0x357 CALLDATASIZE PUSH1 0x4 PUSH2 0x1984 JUMP JUMPDEST PUSH1 0x13 PUSH1 0x20 MSTORE PUSH1 0x0 SWAP1 DUP2 MSTORE PUSH1 0x40 SWAP1 KECCAK256 SLOAD PUSH1 0xFF AND DUP2 JUMP JUMPDEST CALLVALUE DUP1 ISZERO PUSH2 0x378 JUMPI PUSH1 0x0 DUP1 REVERT JUMPDEST POP PUSH2 0x39C PUSH2 0x387 CALLDATASIZE PUSH1 0x4 PUSH2 0x1984 JUMP JUMPDEST PUSH1 0x7 PUSH1 0x20 MSTORE PUSH1 0x0 SWAP1 DUP2 MSTORE PUSH1 0x40 SWAP1 KECCAK256 SLOAD PUSH1 0xFF AND DUP2 JUMP JUMPDEST PUSH1 0x40 MLOAD PUSH1 0xFF SWAP1 SWAP2 AND DUP2 MSTORE PUSH1 0x20 ADD PUSH2 0x1CD JUMP JUMPDEST CALLVALUE DUP1 ISZERO PUSH2 0x3BA JUMPI PUSH1 0x0 DUP1 REVERT JUMPDEST POP PUSH2 0x218 PUSH2 0x3C9 CALLDATASIZE PUSH1 0x4 PUSH2 0x1984 JUMP JUMPDEST PUSH2 0xB33 JUMP JUMPDEST CALLVALUE DUP1 ISZERO PUSH2 0x3DA JUMPI PUSH1 0x0 DUP1 REVERT JUMPDEST POP PUSH2 0x39C PUSH2 0x3E9 CALLDATASIZE PUSH1 0x4 PUSH2 0x1984 JUMP JUMPDEST PUSH1 0x6 PUSH1 0x20 MSTORE PUSH1 0x0 SWAP1 DUP2 MSTORE PUSH1 0x40 SWAP1 KECCAK256 SLOAD PUSH1 0xFF AND DUP2 JUMP JUMPDEST PUSH2 0x250 PUSH2 0x40C CALLDATASIZE PUSH1 0x4 PUSH2 0x1984 JUMP JUMPDEST PUSH2 0xB3E JUMP JUMPDEST CALLVALUE DUP1 ISZERO PUSH2 0x41D JUMPI PUSH1 0x0 DUP1 REVERT JUMPDEST POP PUSH2 0x250 PUSH2 0x42C CALLDATASIZE PUSH1 0x4 PUSH2 0x1AA1 JUMP JUMPDEST PUSH2 0xE77 JUMP JUMPDEST CALLVALUE DUP1 ISZERO PUSH2 0x43D JUMPI PUSH1 0x0 DUP1 REVERT JUMPDEST POP PUSH2 0x31B PUSH2 0x44C CALLDATASIZE PUSH1 0x4 PUSH2 0x1ADD JUMP JUMPDEST PUSH2 0xFA0 JUMP JUMPDEST CALLVALUE DUP1 ISZERO PUSH2 0x45D JUMPI PUSH1 0x0 DUP1 REVERT JUMPDEST POP PUSH2 0x31B PUSH1 0xE SLOAD DUP2 JUMP JUMPDEST CALLVALUE DUP1 ISZERO PUSH2 0x473 JUMPI PUSH1 0x0 DUP1 REVERT JUMPDEST POP PUSH2 0x1EB PUSH2 0xFE8 JUMP JUMPDEST CALLVALUE DUP1 ISZERO PUSH2 0x488 JUMPI PUSH1 0x0 DUP1 REVERT JUMPDEST POP PUSH2 0x250 PUSH2 0x497 CALLDATASIZE PUSH1 0x4 PUSH2 0x1AF8 JUMP JUMPDEST PUSH2 0xFF7 JUMP JUMPDEST CALLVALUE DUP1 ISZERO PUSH2 0x4A8 JUMPI PUSH1 0x0 DUP1 REVERT JUMPDEST POP PUSH2 0x250 PUSH2 0x4B7 CALLDATASIZE PUSH1 0x4 PUSH2 0x1B4A JUMP JUMPDEST PUSH2 0x1002 JUMP JUMPDEST CALLVALUE DUP1 ISZERO PUSH2 0x4C8 JUMPI PUSH1 0x0 DUP1 REVERT JUMPDEST POP PUSH2 0x31B PUSH1 0xD SLOAD DUP2 JUMP JUMPDEST CALLVALUE DUP1 ISZERO PUSH2 0x4DE JUMPI PUSH1 0x0 DUP1 REVERT JUMPDEST POP PUSH2 0x1C1 PUSH2 0x4ED CALLDATASIZE PUSH1 0x4 PUSH2 0x1984 JUMP JUMPDEST PUSH1 0x10 PUSH1 0x20 MSTORE PUSH1 0x0 SWAP1 DUP2 MSTORE PUSH1 0x40 SWAP1 KECCAK256 SLOAD PUSH1 0xFF AND DUP2 JUMP JUMPDEST CALLVALUE DUP1 ISZERO PUSH2 0x50E JUMPI PUSH1 0x0 DUP1 REVERT JUMPDEST POP PUSH2 0x1EB PUSH2 0x51D CALLDATASIZE PUSH1 0x4 PUSH2 0x1984 JUMP JUMPDEST PUSH2 0x101A JUMP JUMPDEST CALLVALUE DUP1 ISZERO PUSH2 0x52E JUMPI PUSH1 0x0 DUP1 REVERT JUMPDEST POP PUSH2 0x218 PUSH2 0x53D CALLDATASIZE PUSH1 0x4 PUSH2 0x1984 JUMP JUMPDEST PUSH1 0x9 PUSH1 0x20 MSTORE PUSH1 0x0 SWAP1 DUP2 MSTORE PUSH1 0x40 SWAP1 KECCAK256 SLOAD PUSH1 0x1 PUSH1 0x1 PUSH1 0xA0 SHL SUB AND DUP2 JUMP JUMPDEST CALLVALUE DUP1 ISZERO PUSH2 0x564 JUMPI PUSH1 0x0 DUP1 REVERT JUMPDEST POP PUSH2 0x1C1 PUSH2 0x573 CALLDATASIZE PUSH1 0x4 PUSH2 0x1C26 JUMP JUMPDEST PUSH2 0x108F JUMP JUMPDEST PUSH1 0x0 PUSH1 0x1 PUSH1 0x1 PUSH1 0xE0 SHL SUB NOT DUP3 AND PUSH4 0x80AC58CD PUSH1 0xE0 SHL EQ DUP1 PUSH2 0x5A9 JUMPI POP PUSH1 0x1 PUSH1 0x1 PUSH1 0xE0 SHL SUB NOT DUP3 AND PUSH4 0x5B5E139F PUSH1 0xE0 SHL EQ JUMPDEST DUP1 PUSH2 0x5C4 JUMPI POP PUSH4 0x1FFC9A7 PUSH1 0xE0 SHL PUSH1 0x1 PUSH1 0x1 PUSH1 0xE0 SHL SUB NOT DUP4 AND EQ JUMPDEST SWAP3 SWAP2 POP POP JUMP JUMPDEST PUSH1 0x60 PUSH1 0x0 DUP1 SLOAD PUSH2 0x5D9 SWAP1 PUSH2 0x1C50 JUMP JUMPDEST DUP1 PUSH1 0x1F ADD PUSH1 0x20 DUP1 SWAP2 DIV MUL PUSH1 0x20 ADD PUSH1 0x40 MLOAD SWAP1 DUP2 ADD PUSH1 0x40 MSTORE DUP1 SWAP3 SWAP2 SWAP1 DUP2 DUP2 MSTORE PUSH1 0x20 ADD DUP3 DUP1 SLOAD PUSH2 0x605 SWAP1 PUSH2 0x1C50 JUMP JUMPDEST DUP1 ISZERO PUSH2 0x652 JUMPI DUP1 PUSH1 0x1F LT PUSH2 0x627 JUMPI PUSH2 0x100 DUP1 DUP4 SLOAD DIV MUL DUP4 MSTORE SWAP2 PUSH1 0x20 ADD SWAP2 PUSH2 0x652 JUMP JUMPDEST DUP3 ADD SWAP2 SWAP1 PUSH1 0x0 MSTORE PUSH1 0x20 PUSH1 0x0 KECCAK256 SWAP1 JUMPDEST DUP2 SLOAD DUP2 MSTORE SWAP1 PUSH1 0x1 ADD SWAP1 PUSH1 0x20 ADD DUP1 DUP4 GT PUSH2 0x635 JUMPI DUP3 SWAP1 SUB PUSH1 0x1F AND DUP3 ADD SWAP2 JUMPDEST POP POP POP POP POP SWAP1 POP SWAP1 JUMP JUMPDEST PUSH1 0x0 PUSH2 0x667 DUP3 PUSH2 0x10BD JUMP JUMPDEST POP PUSH1 0x0 DUP3 DUP2 MSTORE PUSH1 0x4 PUSH1 0x20 MSTORE PUSH1 0x40 SWAP1 KECCAK256 SLOAD PUSH1 0x1 PUSH1 0x1 PUSH1 0xA0 SHL SUB AND PUSH2 0x5C4 JUMP JUMPDEST PUSH2 0x690 DUP3 DUP3 CALLER PUSH2 0x10F6 JUMP JUMPDEST POP POP JUMP JUMPDEST PUSH1 0x20 DUP1 DUP3 ADD CALLDATALOAD PUSH1 0x0 DUP2 DUP2 MSTORE PUSH1 0x12 SWAP1 SWAP3 MSTORE PUSH1 0x40 SWAP2 DUP3 SWAP1 KECCAK256 SLOAD DUP4 CALLDATALOAD SWAP3 DUP5 ADD CALLDATALOAD SWAP1 PUSH1 0xFF AND ISZERO PUSH2 0x6F7 JUMPI PUSH1 0x40 MLOAD PUSH3 0x461BCD PUSH1 0xE5 SHL DUP2 MSTORE PUSH1 0x20 PUSH1 0x4 DUP3 ADD MSTORE PUSH1 0xD PUSH1 0x24 DUP3 ADD MSTORE PUSH13 0x185B1C9958591E4B5CDC195B9D PUSH1 0x9A SHL PUSH1 0x44 DUP3 ADD MSTORE PUSH1 0x64 ADD JUMPDEST PUSH1 0x40 MLOAD DUP1 SWAP2 SUB SWAP1 REVERT JUMPDEST PUSH1 0x0 DUP4 DUP2 MSTORE PUSH1 0x10 PUSH1 0x20 MSTORE PUSH1 0x40 SWAP1 KECCAK256 SLOAD PUSH1 0xFF AND PUSH2 0x740 JUMPI PUSH1 0x40 MLOAD PUSH3 0x461BCD PUSH1 0xE5 SHL DUP2 MSTORE PUSH1 0x20 PUSH1 0x4 DUP3 ADD MSTORE PUSH1 0x8 PUSH1 0x24 DUP3 ADD MSTORE PUSH8 0x1B9BDB8B5C9BDBDD PUSH1 0xC2 SHL PUSH1 0x44 DUP3 ADD MSTORE PUSH1 0x64 ADD PUSH2 0x6EE JUMP JUMPDEST PUSH1 0xC SLOAD PUSH1 0x40 DUP1 MLOAD PUSH1 0x60 DUP2 ADD DUP3 MSTORE DUP6 DUP2 MSTORE PUSH1 0x20 DUP2 ADD DUP6 SWAP1 MSTORE DUP1 DUP3 ADD DUP5 SWAP1 MSTORE SWAP1 MLOAD PUSH1 0x0 SWAP3 PUSH1 0x1 PUSH1 0x1 PUSH1 0xA0 SHL SUB AND SWAP2 PUSH2 0x77B SWAP2 DUP10 SWAP2 SWAP1 PUSH1 0x24 ADD PUSH2 0x1CA0 JUMP JUMPDEST PUSH1 0x40 DUP1 MLOAD PUSH1 0x1F NOT DUP2 DUP5 SUB ADD DUP2 MSTORE SWAP2 DUP2 MSTORE PUSH1 0x20 DUP3 ADD DUP1 MLOAD PUSH1 0x1 PUSH1 0x1 PUSH1 0xE0 SHL SUB AND PUSH4 0xEAC01FF PUSH1 0xE1 SHL OR SWAP1 MSTORE MLOAD PUSH2 0x7B0 SWAP2 SWAP1 PUSH2 0x1CDB JUMP JUMPDEST PUSH1 0x0 PUSH1 0x40 MLOAD DUP1 DUP4 SUB DUP2 PUSH1 0x0 DUP7 GAS CALL SWAP2 POP POP RETURNDATASIZE DUP1 PUSH1 0x0 DUP2 EQ PUSH2 0x7ED JUMPI PUSH1 0x40 MLOAD SWAP2 POP PUSH1 0x1F NOT PUSH1 0x3F RETURNDATASIZE ADD AND DUP3 ADD PUSH1 0x40 MSTORE RETURNDATASIZE DUP3 MSTORE RETURNDATASIZE PUSH1 0x0 PUSH1 0x20 DUP5 ADD RETURNDATACOPY PUSH2 0x7F2 JUMP JUMPDEST PUSH1 0x60 SWAP2 POP JUMPDEST POP POP SWAP1 POP DUP1 PUSH2 0x843 JUMPI PUSH1 0x40 MLOAD PUSH3 0x461BCD PUSH1 0xE5 SHL DUP2 MSTORE PUSH1 0x20 PUSH1 0x4 DUP3 ADD MSTORE PUSH1 0x1C PUSH1 0x24 DUP3 ADD MSTORE PUSH32 0x696E76616C6964207A65726F206B6E6F776C656467652070726F6F6600000000 PUSH1 0x44 DUP3 ADD MSTORE PUSH1 0x64 ADD PUSH2 0x6EE JUMP JUMPDEST PUSH1 0x0 DUP4 DUP2 MSTORE PUSH1 0x12 PUSH1 0x20 MSTORE PUSH1 0x40 SWAP1 DUP2 SWAP1 KECCAK256 DUP1 SLOAD PUSH1 0xFF NOT AND PUSH1 0x1 SWAP1 DUP2 OR SWAP1 SWAP2 SSTORE PUSH1 0xE SLOAD SWAP2 MLOAD PUSH4 0x23AAE3A3 PUSH1 0xE1 SHL DUP2 MSTORE PUSH1 0x4 DUP2 ADD DUP6 SWAP1 MSTORE PUSH1 0x24 DUP2 ADD SWAP2 SWAP1 SWAP2 MSTORE ADDRESS SWAP2 PUSH4 0x4755C746 SWAP2 PUSH1 0x44 ADD PUSH1 0x0 PUSH1 0x40 MLOAD DUP1 DUP4 SUB DUP2 DUP6 DUP9 DUP1 EXTCODESIZE ISZERO DUP1 ISZERO PUSH2 0x8A3 JUMPI PUSH1 0x0 DUP1 REVERT JUMPDEST POP GAS CALL ISZERO DUP1 ISZERO PUSH2 0x8B7 JUMPI RETURNDATASIZE PUSH1 0x0 DUP1 RETURNDATACOPY RETURNDATASIZE PUSH1 0x0 REVERT JUMPDEST POP POP POP POP POP POP POP POP POP POP POP JUMP JUMPDEST PUSH1 0x1 PUSH1 0x1 PUSH1 0xA0 SHL SUB DUP3 AND PUSH2 0x8EE JUMPI PUSH1 0x40 MLOAD PUSH4 0x32505749 PUSH1 0xE1 SHL DUP2 MSTORE PUSH1 0x0 PUSH1 0x4 DUP3 ADD MSTORE PUSH1 0x24 ADD PUSH2 0x6EE JUMP JUMPDEST PUSH1 0x0 PUSH2 0x8FB DUP4 DUP4 CALLER PUSH2 0x1103 JUMP JUMPDEST SWAP1 POP DUP4 PUSH1 0x1 PUSH1 0x1 PUSH1 0xA0 SHL SUB AND DUP2 PUSH1 0x1 PUSH1 0x1 PUSH1 0xA0 SHL SUB AND EQ PUSH2 0x949 JUMPI PUSH1 0x40 MLOAD PUSH4 0x64283D7B PUSH1 0xE0 SHL DUP2 MSTORE PUSH1 0x1 PUSH1 0x1 PUSH1 0xA0 SHL SUB DUP1 DUP7 AND PUSH1 0x4 DUP4 ADD MSTORE PUSH1 0x24 DUP3 ADD DUP5 SWAP1 MSTORE DUP3 AND PUSH1 0x44 DUP3 ADD MSTORE PUSH1 0x64 ADD PUSH2 0x6EE JUMP JUMPDEST POP POP POP POP JUMP JUMPDEST PUSH2 0x96A DUP4 DUP4 DUP4 PUSH1 0x40 MLOAD DUP1 PUSH1 0x20 ADD PUSH1 0x40 MSTORE DUP1 PUSH1 0x0 DUP2 MSTORE POP PUSH2 0x1002 JUMP JUMPDEST POP POP POP JUMP JUMPDEST PUSH1 0x0 DUP3 DUP2 MSTORE PUSH1 0x6 PUSH1 0x20 MSTORE PUSH1 0x40 SWAP1 KECCAK256 SLOAD PUSH1 0xFF AND PUSH2 0x9C4 JUMPI PUSH1 0x40 MLOAD PUSH3 0x461BCD PUSH1 0xE5 SHL DUP2 MSTORE PUSH1 0x20 PUSH1 0x4 DUP3 ADD MSTORE PUSH1 0x14 PUSH1 0x24 DUP3 ADD MSTORE PUSH20 0x125D195B481B9BDD081A5B881DDA5CDA1B1A5CDD PUSH1 0x62 SHL PUSH1 0x44 DUP3 ADD MSTORE PUSH1 0x64 ADD PUSH2 0x6EE JUMP JUMPDEST PUSH1 0x0 DUP3 DUP2 MSTORE PUSH1 0x8 PUSH1 0x20 MSTORE PUSH1 0x40 SWAP1 KECCAK256 SLOAD PUSH1 0xFF AND ISZERO PUSH2 0xA19 JUMPI PUSH1 0x40 MLOAD PUSH3 0x461BCD PUSH1 0xE5 SHL DUP2 MSTORE PUSH1 0x20 PUSH1 0x4 DUP3 ADD MSTORE PUSH1 0x13 PUSH1 0x24 DUP3 ADD MSTORE PUSH19 0x125D195B48185B1C9958591E481B5A5B9D1959 PUSH1 0x6A SHL PUSH1 0x44 DUP3 ADD MSTORE PUSH1 0x64 ADD PUSH2 0x6EE JUMP JUMPDEST PUSH2 0xA2E PUSH1 0xFF DUP3 AND PUSH8 0xDE0B6B3A7640000 PUSH2 0x1D0D JUMP JUMPDEST PUSH8 0xFFFFFFFFFFFFFFFF AND CALLVALUE EQ PUSH2 0xA7F JUMPI PUSH1 0x40 MLOAD PUSH3 0x461BCD PUSH1 0xE5 SHL DUP2 MSTORE PUSH1 0x20 PUSH1 0x4 DUP3 ADD MSTORE PUSH1 0x16 PUSH1 0x24 DUP3 ADD MSTORE PUSH22 0x125B98DBDC9C9958DD08115D1A195C88185B5BDD5B9D PUSH1 0x52 SHL PUSH1 0x44 DUP3 ADD MSTORE PUSH1 0x64 ADD PUSH2 0x6EE JUMP JUMPDEST PUSH1 0x0 DUP3 DUP2 MSTORE PUSH1 0x7 PUSH1 0x20 MSTORE PUSH1 0x40 DUP2 KECCAK256 DUP1 SLOAD DUP4 SWAP3 SWAP1 PUSH2 0xAA0 SWAP1 DUP5 SWAP1 PUSH1 0xFF AND PUSH2 0x1D39 JUMP JUMPDEST SWAP3 POP PUSH2 0x100 EXP DUP2 SLOAD DUP2 PUSH1 0xFF MUL NOT AND SWAP1 DUP4 PUSH1 0xFF AND MUL OR SWAP1 SSTORE POP CALLER PUSH1 0x1 PUSH1 0x1 PUSH1 0xA0 SHL SUB AND DUP3 PUSH32 0xA7B89AF353380E12B2C4F0E865F9AF5848BD917EA72978858A547BAFB2C8CAD4 DUP4 PUSH1 0x40 MLOAD PUSH2 0xAFB SWAP2 SWAP1 PUSH1 0xFF SWAP2 SWAP1 SWAP2 AND DUP2 MSTORE PUSH1 0x20 ADD SWAP1 JUMP JUMPDEST PUSH1 0x40 MLOAD DUP1 SWAP2 SUB SWAP1 LOG3 PUSH1 0x0 DUP3 DUP2 MSTORE PUSH1 0x6 PUSH1 0x20 SWAP1 DUP2 MSTORE PUSH1 0x40 DUP1 DUP4 KECCAK256 SLOAD PUSH1 0x7 SWAP1 SWAP3 MSTORE SWAP1 SWAP2 KECCAK256 SLOAD PUSH1 0xFF SWAP2 DUP3 AND SWAP2 AND LT PUSH2 0x690 JUMPI PUSH2 0x690 DUP3 PUSH2 0x11FC JUMP JUMPDEST PUSH1 0x0 PUSH2 0x5C4 DUP3 PUSH2 0x10BD JUMP JUMPDEST PUSH1 0x0 DUP2 DUP2 MSTORE PUSH1 0x13 PUSH1 0x20 MSTORE PUSH1 0x40 SWAP1 KECCAK256 SLOAD PUSH1 0xFF AND ISZERO PUSH2 0xB9D JUMPI PUSH1 0x40 MLOAD PUSH3 0x461BCD PUSH1 0xE5 SHL DUP2 MSTORE PUSH1 0x20 PUSH1 0x4 DUP3 ADD MSTORE PUSH1 0x19 PUSH1 0x24 DUP3 ADD MSTORE PUSH32 0x6475706C696361746520636F6D6D69746D656E74206861736800000000000000 PUSH1 0x44 DUP3 ADD MSTORE PUSH1 0x64 ADD PUSH2 0x6EE JUMP JUMPDEST PUSH1 0xD SLOAD PUSH2 0xBAB SWAP1 PUSH1 0x2 PUSH2 0x1E36 JUMP JUMPDEST PUSH1 0xF SLOAD LT PUSH2 0xBEE JUMPI PUSH1 0x40 MLOAD PUSH3 0x461BCD PUSH1 0xE5 SHL DUP2 MSTORE PUSH1 0x20 PUSH1 0x4 DUP3 ADD MSTORE PUSH1 0x10 PUSH1 0x24 DUP3 ADD MSTORE PUSH16 0x1D1A19481D1C9959481A5CC8199D5B1B PUSH1 0x82 SHL PUSH1 0x44 DUP3 ADD MSTORE PUSH1 0x64 ADD PUSH2 0x6EE JUMP JUMPDEST PUSH1 0x0 PUSH2 0xBF8 PUSH2 0x18AE JUMP JUMPDEST PUSH2 0xC00 PUSH2 0x18AE JUMP JUMPDEST PUSH1 0xF SLOAD DUP5 PUSH1 0x0 DUP1 PUSH2 0xC0F PUSH2 0x18CD JUMP JUMPDEST PUSH1 0x0 JUMPDEST PUSH1 0xD SLOAD DUP2 PUSH1 0xFF AND LT ISZERO PUSH2 0xDDB JUMPI PUSH2 0xC2A PUSH1 0x2 DUP8 PUSH2 0x1E58 JUMP JUMPDEST PUSH1 0x0 SUB PUSH2 0xCA9 JUMPI DUP5 SWAP4 POP PUSH1 0x14 DUP2 PUSH1 0xFF AND PUSH1 0xA DUP2 LT PUSH2 0xC4A JUMPI PUSH2 0xC4A PUSH2 0x1C8A JUMP JUMPDEST ADD SLOAD SWAP3 POP PUSH1 0x14 DUP2 PUSH1 0xFF AND PUSH1 0xA DUP2 LT PUSH2 0xC64 JUMPI PUSH2 0xC64 PUSH2 0x1C8A JUMP JUMPDEST ADD SLOAD DUP9 DUP3 PUSH1 0xFF AND PUSH1 0xA DUP2 LT PUSH2 0xC7B JUMPI PUSH2 0xC7B PUSH2 0x1C8A JUMP JUMPDEST PUSH1 0x20 MUL ADD MSTORE PUSH1 0x0 DUP8 PUSH1 0xFF DUP4 AND PUSH1 0xA DUP2 LT PUSH2 0xC97 JUMPI PUSH2 0xC97 PUSH2 0x1C8A JUMP JUMPDEST PUSH1 0xFF SWAP1 SWAP3 AND PUSH1 0x20 SWAP3 SWAP1 SWAP3 MUL ADD MSTORE PUSH2 0xCFF JUMP JUMPDEST PUSH1 0xFF DUP2 AND PUSH1 0x0 DUP2 DUP2 MSTORE PUSH1 0x11 PUSH1 0x20 MSTORE PUSH1 0x40 SWAP1 KECCAK256 SLOAD SWAP5 POP DUP6 SWAP4 POP DUP5 SWAP1 DUP10 SWAP1 PUSH1 0xA DUP2 LT PUSH2 0xCD5 JUMPI PUSH2 0xCD5 PUSH2 0x1C8A JUMP JUMPDEST PUSH1 0x20 MUL ADD MSTORE PUSH1 0x1 DUP8 PUSH1 0xFF DUP4 AND PUSH1 0xA DUP2 LT PUSH2 0xCF1 JUMPI PUSH2 0xCF1 PUSH2 0x1C8A JUMP JUMPDEST PUSH1 0xFF SWAP1 SWAP3 AND PUSH1 0x20 SWAP3 SWAP1 SWAP3 MUL ADD MSTORE JUMPDEST PUSH1 0xFF DUP2 AND PUSH1 0x0 SWAP1 DUP2 MSTORE PUSH1 0x11 PUSH1 0x20 MSTORE PUSH1 0x40 DUP2 KECCAK256 DUP7 SWAP1 SSTORE DUP5 SWAP1 DUP4 SWAP1 PUSH1 0x20 MUL ADD MSTORE DUP3 DUP3 PUSH1 0x1 PUSH1 0x20 MUL ADD DUP2 DUP2 MSTORE POP POP PUSH1 0x0 PUSH1 0xA PUSH1 0x0 SWAP1 SLOAD SWAP1 PUSH2 0x100 EXP SWAP1 DIV PUSH1 0x1 PUSH1 0x1 PUSH1 0xA0 SHL SUB AND PUSH1 0x1 PUSH1 0x1 PUSH1 0xA0 SHL SUB AND PUSH4 0xD622E5A4 PUSH3 0x249F0 DUP6 DUP15 PUSH1 0x40 MLOAD DUP5 PUSH4 0xFFFFFFFF AND PUSH1 0xE0 SHL DUP2 MSTORE PUSH1 0x4 ADD PUSH2 0xD73 SWAP3 SWAP2 SWAP1 PUSH2 0x1E6C JUMP JUMPDEST PUSH1 0x20 PUSH1 0x40 MLOAD DUP1 DUP4 SUB DUP2 DUP8 DUP7 STATICCALL ISZERO DUP1 ISZERO PUSH2 0xD90 JUMPI RETURNDATASIZE PUSH1 0x0 DUP1 RETURNDATACOPY RETURNDATASIZE PUSH1 0x0 REVERT JUMPDEST POP POP POP POP POP PUSH1 0x40 MLOAD RETURNDATASIZE PUSH1 0x1F NOT PUSH1 0x1F DUP3 ADD AND DUP3 ADD DUP1 PUSH1 0x40 MSTORE POP DUP2 ADD SWAP1 PUSH2 0xDB5 SWAP2 SWAP1 PUSH2 0x1EA4 JUMP JUMPDEST SWAP6 POP DUP6 SWAP1 POP PUSH2 0xDC5 PUSH1 0x2 DUP9 PUSH2 0x1EBD JUMP JUMPDEST SWAP7 POP POP DUP1 DUP1 PUSH2 0xDD3 SWAP1 PUSH2 0x1ED1 JUMP JUMPDEST SWAP2 POP POP PUSH2 0xC12 JUMP JUMPDEST POP PUSH1 0x0 DUP5 DUP2 MSTORE PUSH1 0x10 PUSH1 0x20 MSTORE PUSH1 0x40 DUP2 KECCAK256 DUP1 SLOAD PUSH1 0xFF NOT AND PUSH1 0x1 SWAP1 DUP2 OR SWAP1 SWAP2 SSTORE PUSH1 0xF DUP1 SLOAD SWAP7 SWAP11 POP DUP11 SWAP7 SWAP2 SWAP3 SWAP1 SWAP2 PUSH2 0xE10 SWAP1 DUP5 SWAP1 PUSH2 0x1EF0 JUMP JUMPDEST SWAP1 SWAP2 SSTORE POP POP PUSH1 0x0 DUP10 DUP2 MSTORE PUSH1 0x13 PUSH1 0x20 MSTORE PUSH1 0x40 SWAP1 DUP2 SWAP1 KECCAK256 DUP1 SLOAD PUSH1 0xFF NOT AND PUSH1 0x1 OR SWAP1 SSTORE MLOAD PUSH32 0x896663B5DB78D158499A6A38A2F114F6098CBE51422E4528677A4F0BEB096E2F SWAP1 PUSH2 0xE64 SWAP1 DUP11 SWAP1 DUP11 SWAP1 DUP11 SWAP1 CALLVALUE SWAP1 PUSH2 0x1F03 JUMP JUMPDEST PUSH1 0x40 MLOAD DUP1 SWAP2 SUB SWAP1 LOG1 POP POP POP POP POP POP POP POP POP JUMP JUMPDEST PUSH1 0x0 DUP4 DUP2 MSTORE PUSH1 0x8 PUSH1 0x20 MSTORE PUSH1 0x40 SWAP1 KECCAK256 SLOAD PUSH1 0xFF AND ISZERO PUSH2 0xECC JUMPI PUSH1 0x40 MLOAD PUSH3 0x461BCD PUSH1 0xE5 SHL DUP2 MSTORE PUSH1 0x20 PUSH1 0x4 DUP3 ADD MSTORE PUSH1 0x13 PUSH1 0x24 DUP3 ADD MSTORE PUSH19 0x4974656D20616C726561647920657869737473 PUSH1 0x68 SHL PUSH1 0x44 DUP3 ADD MSTORE PUSH1 0x64 ADD PUSH2 0x6EE JUMP JUMPDEST PUSH1 0x1 PUSH1 0x1 PUSH1 0xA0 SHL SUB DUP2 AND PUSH2 0xF22 JUMPI PUSH1 0x40 MLOAD PUSH3 0x461BCD PUSH1 0xE5 SHL DUP2 MSTORE PUSH1 0x20 PUSH1 0x4 DUP3 ADD MSTORE PUSH1 0x19 PUSH1 0x24 DUP3 ADD MSTORE PUSH32 0x496E76616C696420726563697069656E74206164647265737300000000000000 PUSH1 0x44 DUP3 ADD MSTORE PUSH1 0x64 ADD PUSH2 0x6EE JUMP JUMPDEST PUSH1 0x0 DUP4 DUP2 MSTORE PUSH1 0x6 PUSH1 0x20 SWAP1 DUP2 MSTORE PUSH1 0x40 DUP1 DUP4 KECCAK256 DUP1 SLOAD PUSH1 0xFF NOT AND PUSH1 0xFF DUP8 AND SWAP1 DUP2 OR SWAP1 SWAP2 SSTORE PUSH1 0x9 DUP4 MSTORE SWAP3 DUP2 SWAP1 KECCAK256 DUP1 SLOAD PUSH1 0x1 PUSH1 0x1 PUSH1 0xA0 SHL SUB NOT AND PUSH1 0x1 PUSH1 0x1 PUSH1 0xA0 SHL SUB DUP7 AND SWAP1 DUP2 OR SWAP1 SWAP2 SSTORE SWAP1 MLOAD SWAP3 DUP4 MSTORE SWAP2 DUP6 SWAP2 PUSH32 0x3C56E6863ACFA01555065FD061B878CD3DBF54409E9F648F60254A945C805AF5 SWAP2 ADD JUMPDEST PUSH1 0x40 MLOAD DUP1 SWAP2 SUB SWAP1 LOG3 POP POP POP JUMP JUMPDEST PUSH1 0x0 PUSH1 0x1 PUSH1 0x1 PUSH1 0xA0 SHL SUB DUP3 AND PUSH2 0xFCC JUMPI PUSH1 0x40 MLOAD PUSH4 0x22718AD9 PUSH1 0xE2 SHL DUP2 MSTORE PUSH1 0x0 PUSH1 0x4 DUP3 ADD MSTORE PUSH1 0x24 ADD PUSH2 0x6EE JUMP JUMPDEST POP PUSH1 0x1 PUSH1 0x1 PUSH1 0xA0 SHL SUB AND PUSH1 0x0 SWAP1 DUP2 MSTORE PUSH1 0x3 PUSH1 0x20 MSTORE PUSH1 0x40 SWAP1 KECCAK256 SLOAD SWAP1 JUMP JUMPDEST PUSH1 0x60 PUSH1 0x1 DUP1 SLOAD PUSH2 0x5D9 SWAP1 PUSH2 0x1C50 JUMP JUMPDEST PUSH2 0x690 CALLER DUP4 DUP4 PUSH2 0x131A JUMP JUMPDEST PUSH2 0x100D DUP5 DUP5 DUP5 PUSH2 0x8C4 JUMP JUMPDEST PUSH2 0x949 CALLER DUP6 DUP6 DUP6 DUP6 PUSH2 0x13B1 JUMP JUMPDEST PUSH1 0x60 PUSH2 0x1025 DUP3 PUSH2 0x10BD JUMP JUMPDEST POP PUSH1 0x0 PUSH2 0x103D PUSH1 0x40 DUP1 MLOAD PUSH1 0x20 DUP2 ADD SWAP1 SWAP2 MSTORE PUSH1 0x0 DUP2 MSTORE SWAP1 JUMP JUMPDEST SWAP1 POP PUSH1 0x0 DUP2 MLOAD GT PUSH2 0x105D JUMPI PUSH1 0x40 MLOAD DUP1 PUSH1 0x20 ADD PUSH1 0x40 MSTORE DUP1 PUSH1 0x0 DUP2 MSTORE POP PUSH2 0x1088 JUMP JUMPDEST DUP1 PUSH2 0x1067 DUP5 PUSH2 0x14DC JUMP JUMPDEST PUSH1 0x40 MLOAD PUSH1 0x20 ADD PUSH2 0x1078 SWAP3 SWAP2 SWAP1 PUSH2 0x1F71 JUMP JUMPDEST PUSH1 0x40 MLOAD PUSH1 0x20 DUP2 DUP4 SUB SUB DUP2 MSTORE SWAP1 PUSH1 0x40 MSTORE JUMPDEST SWAP4 SWAP3 POP POP POP JUMP JUMPDEST PUSH1 0x1 PUSH1 0x1 PUSH1 0xA0 SHL SUB SWAP2 DUP3 AND PUSH1 0x0 SWAP1 DUP2 MSTORE PUSH1 0x5 PUSH1 0x20 SWAP1 DUP2 MSTORE PUSH1 0x40 DUP1 DUP4 KECCAK256 SWAP4 SWAP1 SWAP5 AND DUP3 MSTORE SWAP2 SWAP1 SWAP2 MSTORE KECCAK256 SLOAD PUSH1 0xFF AND SWAP1 JUMP JUMPDEST PUSH1 0x0 DUP2 DUP2 MSTORE PUSH1 0x2 PUSH1 0x20 MSTORE PUSH1 0x40 DUP2 KECCAK256 SLOAD PUSH1 0x1 PUSH1 0x1 PUSH1 0xA0 SHL SUB AND DUP1 PUSH2 0x5C4 JUMPI PUSH1 0x40 MLOAD PUSH4 0x7E273289 PUSH1 0xE0 SHL DUP2 MSTORE PUSH1 0x4 DUP2 ADD DUP5 SWAP1 MSTORE PUSH1 0x24 ADD PUSH2 0x6EE JUMP JUMPDEST PUSH2 0x96A DUP4 DUP4 DUP4 PUSH1 0x1 PUSH2 0x156F JUMP JUMPDEST PUSH1 0x0 DUP3 DUP2 MSTORE PUSH1 0x2 PUSH1 0x20 MSTORE PUSH1 0x40 DUP2 KECCAK256 SLOAD PUSH1 0x1 PUSH1 0x1 PUSH1 0xA0 SHL SUB SWAP1 DUP2 AND SWAP1 DUP4 AND ISZERO PUSH2 0x1130 JUMPI PUSH2 0x1130 DUP2 DUP5 DUP7 PUSH2 0x1675 JUMP JUMPDEST PUSH1 0x1 PUSH1 0x1 PUSH1 0xA0 SHL SUB DUP2 AND ISZERO PUSH2 0x116E JUMPI PUSH2 0x114D PUSH1 0x0 DUP6 PUSH1 0x0 DUP1 PUSH2 0x156F JUMP JUMPDEST PUSH1 0x1 PUSH1 0x1 PUSH1 0xA0 SHL SUB DUP2 AND PUSH1 0x0 SWAP1 DUP2 MSTORE PUSH1 0x3 PUSH1 0x20 MSTORE PUSH1 0x40 SWAP1 KECCAK256 DUP1 SLOAD PUSH1 0x0 NOT ADD SWAP1 SSTORE JUMPDEST PUSH1 0x1 PUSH1 0x1 PUSH1 0xA0 SHL SUB DUP6 AND ISZERO PUSH2 0x119D JUMPI PUSH1 0x1 PUSH1 0x1 PUSH1 0xA0 SHL SUB DUP6 AND PUSH1 0x0 SWAP1 DUP2 MSTORE PUSH1 0x3 PUSH1 0x20 MSTORE PUSH1 0x40 SWAP1 KECCAK256 DUP1 SLOAD PUSH1 0x1 ADD SWAP1 SSTORE JUMPDEST PUSH1 0x0 DUP5 DUP2 MSTORE PUSH1 0x2 PUSH1 0x20 MSTORE PUSH1 0x40 DUP1 DUP3 KECCAK256 DUP1 SLOAD PUSH1 0x1 PUSH1 0x1 PUSH1 0xA0 SHL SUB NOT AND PUSH1 0x1 PUSH1 0x1 PUSH1 0xA0 SHL SUB DUP10 DUP2 AND SWAP2 DUP3 OR SWAP1 SWAP3 SSTORE SWAP2 MLOAD DUP8 SWAP4 SWAP2 DUP6 AND SWAP2 PUSH32 0xDDF252AD1BE2C89B69C2B068FC378DAA952BA7F163C4A11628F55A4DF523B3EF SWAP2 LOG4 SWAP5 SWAP4 POP POP POP POP JUMP JUMPDEST PUSH1 0x0 DUP2 DUP2 MSTORE PUSH1 0x8 PUSH1 0x20 MSTORE PUSH1 0x40 SWAP1 KECCAK256 SLOAD PUSH1 0xFF AND ISZERO PUSH2 0x125B JUMPI PUSH1 0x40 MLOAD PUSH3 0x461BCD PUSH1 0xE5 SHL DUP2 MSTORE PUSH1 0x20 PUSH1 0x4 DUP3 ADD DUP2 SWAP1 MSTORE PUSH1 0x24 DUP3 ADD MSTORE PUSH32 0x4E465420616C7265616479206D696E74656420666F722074686973206974656D PUSH1 0x44 DUP3 ADD MSTORE PUSH1 0x64 ADD PUSH2 0x6EE JUMP JUMPDEST PUSH1 0x0 DUP2 DUP2 MSTORE PUSH1 0x9 PUSH1 0x20 MSTORE PUSH1 0x40 SWAP1 KECCAK256 SLOAD PUSH1 0x1 PUSH1 0x1 PUSH1 0xA0 SHL SUB AND DUP1 PUSH2 0x12C0 JUMPI PUSH1 0x40 MLOAD PUSH3 0x461BCD PUSH1 0xE5 SHL DUP2 MSTORE PUSH1 0x20 PUSH1 0x4 DUP3 ADD MSTORE PUSH1 0x1F PUSH1 0x24 DUP3 ADD MSTORE PUSH32 0x526563697069656E74206E6F742073657420666F722074686973206974656D00 PUSH1 0x44 DUP3 ADD MSTORE PUSH1 0x64 ADD PUSH2 0x6EE JUMP JUMPDEST PUSH2 0x12CA DUP2 DUP4 PUSH2 0x16D9 JUMP JUMPDEST PUSH1 0x0 DUP3 DUP2 MSTORE PUSH1 0x8 PUSH1 0x20 MSTORE PUSH1 0x40 DUP1 DUP3 KECCAK256 DUP1 SLOAD PUSH1 0xFF NOT AND PUSH1 0x1 OR SWAP1 SSTORE MLOAD PUSH1 0x1 PUSH1 0x1 PUSH1 0xA0 SHL SUB DUP4 AND SWAP2 DUP5 SWAP2 PUSH32 0x176F203DF400D7BD5F1B1C9EF36C16709BF3B5D9FD35F000A6BAE32393F66C3 SWAP2 SWAP1 LOG3 POP POP JUMP JUMPDEST PUSH1 0x1 PUSH1 0x1 PUSH1 0xA0 SHL SUB DUP3 AND PUSH2 0x134C JUMPI PUSH1 0x40 MLOAD PUSH4 0xB611743 PUSH1 0xE3 SHL DUP2 MSTORE PUSH1 0x1 PUSH1 0x1 PUSH1 0xA0 SHL SUB DUP4 AND PUSH1 0x4 DUP3 ADD MSTORE PUSH1 0x24 ADD PUSH2 0x6EE JUMP JUMPDEST PUSH1 0x1 PUSH1 0x1 PUSH1 0xA0 SHL SUB DUP4 DUP2 AND PUSH1 0x0 DUP2 DUP2 MSTORE PUSH1 0x5 PUSH1 0x20 SWAP1 DUP2 MSTORE PUSH1 0x40 DUP1 DUP4 KECCAK256 SWAP5 DUP8 AND DUP1 DUP5 MSTORE SWAP5 DUP3 MSTORE SWAP2 DUP3 SWAP1 KECCAK256 DUP1 SLOAD PUSH1 0xFF NOT AND DUP7 ISZERO ISZERO SWAP1 DUP2 OR SWAP1 SWAP2 SSTORE SWAP2 MLOAD SWAP2 DUP3 MSTORE PUSH32 0x17307EAB39AB6107E8899845AD3D59BD9653F200F220920489CA2B5937696C31 SWAP2 ADD PUSH2 0xF93 JUMP JUMPDEST PUSH1 0x1 PUSH1 0x1 PUSH1 0xA0 SHL SUB DUP4 AND EXTCODESIZE ISZERO PUSH2 0x14D5 JUMPI PUSH1 0x40 MLOAD PUSH4 0xA85BD01 PUSH1 0xE1 SHL DUP2 MSTORE PUSH1 0x1 PUSH1 0x1 PUSH1 0xA0 SHL SUB DUP5 AND SWAP1 PUSH4 0x150B7A02 SWAP1 PUSH2 0x13F3 SWAP1 DUP9 SWAP1 DUP9 SWAP1 DUP8 SWAP1 DUP8 SWAP1 PUSH1 0x4 ADD PUSH2 0x1FA0 JUMP JUMPDEST PUSH1 0x20 PUSH1 0x40 MLOAD DUP1 DUP4 SUB DUP2 PUSH1 0x0 DUP8 GAS CALL SWAP3 POP POP POP DUP1 ISZERO PUSH2 0x142E JUMPI POP PUSH1 0x40 DUP1 MLOAD PUSH1 0x1F RETURNDATASIZE SWAP1 DUP2 ADD PUSH1 0x1F NOT AND DUP3 ADD SWAP1 SWAP3 MSTORE PUSH2 0x142B SWAP2 DUP2 ADD SWAP1 PUSH2 0x1FDD JUMP JUMPDEST PUSH1 0x1 JUMPDEST PUSH2 0x1497 JUMPI RETURNDATASIZE DUP1 DUP1 ISZERO PUSH2 0x145C JUMPI PUSH1 0x40 MLOAD SWAP2 POP PUSH1 0x1F NOT PUSH1 0x3F RETURNDATASIZE ADD AND DUP3 ADD PUSH1 0x40 MSTORE RETURNDATASIZE DUP3 MSTORE RETURNDATASIZE PUSH1 0x0 PUSH1 0x20 DUP5 ADD RETURNDATACOPY PUSH2 0x1461 JUMP JUMPDEST PUSH1 0x60 SWAP2 POP JUMPDEST POP DUP1 MLOAD PUSH1 0x0 SUB PUSH2 0x148F JUMPI PUSH1 0x40 MLOAD PUSH4 0x32505749 PUSH1 0xE1 SHL DUP2 MSTORE PUSH1 0x1 PUSH1 0x1 PUSH1 0xA0 SHL SUB DUP6 AND PUSH1 0x4 DUP3 ADD MSTORE PUSH1 0x24 ADD PUSH2 0x6EE JUMP JUMPDEST DUP1 MLOAD DUP2 PUSH1 0x20 ADD REVERT JUMPDEST PUSH1 0x1 PUSH1 0x1 PUSH1 0xE0 SHL SUB NOT DUP2 AND PUSH4 0xA85BD01 PUSH1 0xE1 SHL EQ PUSH2 0x14D3 JUMPI PUSH1 0x40 MLOAD PUSH4 0x32505749 PUSH1 0xE1 SHL DUP2 MSTORE PUSH1 0x1 PUSH1 0x1 PUSH1 0xA0 SHL SUB DUP6 AND PUSH1 0x4 DUP3 ADD MSTORE PUSH1 0x24 ADD PUSH2 0x6EE JUMP JUMPDEST POP JUMPDEST POP POP POP POP POP JUMP JUMPDEST PUSH1 0x60 PUSH1 0x0 PUSH2 0x14E9 DUP4 PUSH2 0x16F3 JUMP JUMPDEST PUSH1 0x1 ADD SWAP1 POP PUSH1 0x0 DUP2 PUSH8 0xFFFFFFFFFFFFFFFF DUP2 GT ISZERO PUSH2 0x1509 JUMPI PUSH2 0x1509 PUSH2 0x1B34 JUMP JUMPDEST PUSH1 0x40 MLOAD SWAP1 DUP1 DUP3 MSTORE DUP1 PUSH1 0x1F ADD PUSH1 0x1F NOT AND PUSH1 0x20 ADD DUP3 ADD PUSH1 0x40 MSTORE DUP1 ISZERO PUSH2 0x1533 JUMPI PUSH1 0x20 DUP3 ADD DUP2 DUP1 CALLDATASIZE DUP4 CALLDATACOPY ADD SWAP1 POP JUMPDEST POP SWAP1 POP DUP2 DUP2 ADD PUSH1 0x20 ADD JUMPDEST PUSH1 0x0 NOT ADD PUSH16 0x181899199A1A9B1B9C1CB0B131B232B3 PUSH1 0x81 SHL PUSH1 0xA DUP7 MOD BYTE DUP2 MSTORE8 PUSH1 0xA DUP6 DIV SWAP5 POP DUP5 PUSH2 0x153D JUMPI POP SWAP4 SWAP3 POP POP POP JUMP JUMPDEST DUP1 DUP1 PUSH2 0x1583 JUMPI POP PUSH1 0x1 PUSH1 0x1 PUSH1 0xA0 SHL SUB DUP3 AND ISZERO ISZERO JUMPDEST ISZERO PUSH2 0x1645 JUMPI PUSH1 0x0 PUSH2 0x1593 DUP5 PUSH2 0x10BD JUMP JUMPDEST SWAP1 POP PUSH1 0x1 PUSH1 0x1 PUSH1 0xA0 SHL SUB DUP4 AND ISZERO DUP1 ISZERO SWAP1 PUSH2 0x15BF JUMPI POP DUP3 PUSH1 0x1 PUSH1 0x1 PUSH1 0xA0 SHL SUB AND DUP2 PUSH1 0x1 PUSH1 0x1 PUSH1 0xA0 SHL SUB AND EQ ISZERO JUMPDEST DUP1 ISZERO PUSH2 0x15D2 JUMPI POP PUSH2 0x15D0 DUP2 DUP5 PUSH2 0x108F JUMP JUMPDEST ISZERO JUMPDEST ISZERO PUSH2 0x15FB JUMPI PUSH1 0x40 MLOAD PUSH4 0xA9FBF51F PUSH1 0xE0 SHL DUP2 MSTORE PUSH1 0x1 PUSH1 0x1 PUSH1 0xA0 SHL SUB DUP5 AND PUSH1 0x4 DUP3 ADD MSTORE PUSH1 0x24 ADD PUSH2 0x6EE JUMP JUMPDEST DUP2 ISZERO PUSH2 0x1643 JUMPI DUP4 DUP6 PUSH1 0x1 PUSH1 0x1 PUSH1 0xA0 SHL SUB AND DUP3 PUSH1 0x1 PUSH1 0x1 PUSH1 0xA0 SHL SUB AND PUSH32 0x8C5BE1E5EBEC7D5BD14F71427D1E84F3DD0314C0F7B2291E5B200AC8C7C3B925 PUSH1 0x40 MLOAD PUSH1 0x40 MLOAD DUP1 SWAP2 SUB SWAP1 LOG4 JUMPDEST POP JUMPDEST POP POP PUSH1 0x0 SWAP1 DUP2 MSTORE PUSH1 0x4 PUSH1 0x20 MSTORE PUSH1 0x40 SWAP1 KECCAK256 DUP1 SLOAD PUSH1 0x1 PUSH1 0x1 PUSH1 0xA0 SHL SUB NOT AND PUSH1 0x1 PUSH1 0x1 PUSH1 0xA0 SHL SUB SWAP3 SWAP1 SWAP3 AND SWAP2 SWAP1 SWAP2 OR SWAP1 SSTORE JUMP JUMPDEST PUSH2 0x1680 DUP4 DUP4 DUP4 PUSH2 0x17CB JUMP JUMPDEST PUSH2 0x96A JUMPI PUSH1 0x1 PUSH1 0x1 PUSH1 0xA0 SHL SUB DUP4 AND PUSH2 0x16AE JUMPI PUSH1 0x40 MLOAD PUSH4 0x7E273289 PUSH1 0xE0 SHL DUP2 MSTORE PUSH1 0x4 DUP2 ADD DUP3 SWAP1 MSTORE PUSH1 0x24 ADD PUSH2 0x6EE JUMP JUMPDEST PUSH1 0x40 MLOAD PUSH4 0x177E802F PUSH1 0xE0 SHL DUP2 MSTORE PUSH1 0x1 PUSH1 0x1 PUSH1 0xA0 SHL SUB DUP4 AND PUSH1 0x4 DUP3 ADD MSTORE PUSH1 0x24 DUP2 ADD DUP3 SWAP1 MSTORE PUSH1 0x44 ADD PUSH2 0x6EE JUMP JUMPDEST PUSH2 0x690 DUP3 DUP3 PUSH1 0x40 MLOAD DUP1 PUSH1 0x20 ADD PUSH1 0x40 MSTORE DUP1 PUSH1 0x0 DUP2 MSTORE POP PUSH2 0x1831 JUMP JUMPDEST PUSH1 0x0 DUP1 PUSH19 0x184F03E93FF9F4DAA797ED6E38ED64BF6A1F01 PUSH1 0x40 SHL DUP4 LT PUSH2 0x1732 JUMPI PUSH19 0x184F03E93FF9F4DAA797ED6E38ED64BF6A1F01 PUSH1 0x40 SHL DUP4 DIV SWAP3 POP PUSH1 0x40 ADD JUMPDEST PUSH14 0x4EE2D6D415B85ACEF8100000000 DUP4 LT PUSH2 0x175E JUMPI PUSH14 0x4EE2D6D415B85ACEF8100000000 DUP4 DIV SWAP3 POP PUSH1 0x20 ADD JUMPDEST PUSH7 0x2386F26FC10000 DUP4 LT PUSH2 0x177C JUMPI PUSH7 0x2386F26FC10000 DUP4 DIV SWAP3 POP PUSH1 0x10 ADD JUMPDEST PUSH4 0x5F5E100 DUP4 LT PUSH2 0x1794 JUMPI PUSH4 0x5F5E100 DUP4 DIV SWAP3 POP PUSH1 0x8 ADD JUMPDEST PUSH2 0x2710 DUP4 LT PUSH2 0x17A8 JUMPI PUSH2 0x2710 DUP4 DIV SWAP3 POP PUSH1 0x4 ADD JUMPDEST PUSH1 0x64 DUP4 LT PUSH2 0x17BA JUMPI PUSH1 0x64 DUP4 DIV SWAP3 POP PUSH1 0x2 ADD JUMPDEST PUSH1 0xA DUP4 LT PUSH2 0x5C4 JUMPI PUSH1 0x1 ADD SWAP3 SWAP2 POP POP JUMP JUMPDEST PUSH1 0x0 PUSH1 0x1 PUSH1 0x1 PUSH1 0xA0 SHL SUB DUP4 AND ISZERO DUP1 ISZERO SWAP1 PUSH2 0x1829 JUMPI POP DUP3 PUSH1 0x1 PUSH1 0x1 PUSH1 0xA0 SHL SUB AND DUP5 PUSH1 0x1 PUSH1 0x1 PUSH1 0xA0 SHL SUB AND EQ DUP1 PUSH2 0x1805 JUMPI POP PUSH2 0x1805 DUP5 DUP5 PUSH2 0x108F JUMP JUMPDEST DUP1 PUSH2 0x1829 JUMPI POP PUSH1 0x0 DUP3 DUP2 MSTORE PUSH1 0x4 PUSH1 0x20 MSTORE PUSH1 0x40 SWAP1 KECCAK256 SLOAD PUSH1 0x1 PUSH1 0x1 PUSH1 0xA0 SHL SUB DUP5 DUP2 AND SWAP2 AND EQ JUMPDEST SWAP5 SWAP4 POP POP POP POP JUMP JUMPDEST PUSH2 0x183B DUP4 DUP4 PUSH2 0x1849 JUMP JUMPDEST PUSH2 0x96A CALLER PUSH1 0x0 DUP6 DUP6 DUP6 PUSH2 0x13B1 JUMP JUMPDEST PUSH1 0x1 PUSH1 0x1 PUSH1 0xA0 SHL SUB DUP3 AND PUSH2 0x1873 JUMPI PUSH1 0x40 MLOAD PUSH4 0x32505749 PUSH1 0xE1 SHL DUP2 MSTORE PUSH1 0x0 PUSH1 0x4 DUP3 ADD MSTORE PUSH1 0x24 ADD PUSH2 0x6EE JUMP JUMPDEST PUSH1 0x0 PUSH2 0x1881 DUP4 DUP4 PUSH1 0x0 PUSH2 0x1103 JUMP JUMPDEST SWAP1 POP PUSH1 0x1 PUSH1 0x1 PUSH1 0xA0 SHL SUB DUP2 AND ISZERO PUSH2 0x96A JUMPI PUSH1 0x40 MLOAD PUSH4 0x39E35637 PUSH1 0xE1 SHL DUP2 MSTORE PUSH1 0x0 PUSH1 0x4 DUP3 ADD MSTORE PUSH1 0x24 ADD PUSH2 0x6EE JUMP JUMPDEST PUSH1 0x40 MLOAD DUP1 PUSH2 0x140 ADD PUSH1 0x40 MSTORE DUP1 PUSH1 0xA SWAP1 PUSH1 0x20 DUP3 MUL DUP1 CALLDATASIZE DUP4 CALLDATACOPY POP SWAP2 SWAP3 SWAP2 POP POP JUMP JUMPDEST PUSH1 0x40 MLOAD DUP1 PUSH1 0x40 ADD PUSH1 0x40 MSTORE DUP1 PUSH1 0x2 SWAP1 PUSH1 0x20 DUP3 MUL DUP1 CALLDATASIZE DUP4 CALLDATACOPY POP SWAP2 SWAP3 SWAP2 POP POP JUMP JUMPDEST PUSH1 0x1 PUSH1 0x1 PUSH1 0xE0 SHL SUB NOT DUP2 AND DUP2 EQ PUSH2 0x1901 JUMPI PUSH1 0x0 DUP1 REVERT JUMPDEST POP JUMP JUMPDEST PUSH1 0x0 PUSH1 0x20 DUP3 DUP5 SUB SLT ISZERO PUSH2 0x1916 JUMPI PUSH1 0x0 DUP1 REVERT JUMPDEST DUP2 CALLDATALOAD PUSH2 0x1088 DUP2 PUSH2 0x18EB JUMP JUMPDEST PUSH1 0x0 JUMPDEST DUP4 DUP2 LT ISZERO PUSH2 0x193C JUMPI DUP2 DUP2 ADD MLOAD DUP4 DUP3 ADD MSTORE PUSH1 0x20 ADD PUSH2 0x1924 JUMP JUMPDEST POP POP PUSH1 0x0 SWAP2 ADD MSTORE JUMP JUMPDEST PUSH1 0x0 DUP2 MLOAD DUP1 DUP5 MSTORE PUSH2 0x195D DUP2 PUSH1 0x20 DUP7 ADD PUSH1 0x20 DUP7 ADD PUSH2 0x1921 JUMP JUMPDEST PUSH1 0x1F ADD PUSH1 0x1F NOT AND SWAP3 SWAP1 SWAP3 ADD PUSH1 0x20 ADD SWAP3 SWAP2 POP POP JUMP JUMPDEST PUSH1 0x20 DUP2 MSTORE PUSH1 0x0 PUSH2 0x1088 PUSH1 0x20 DUP4 ADD DUP5 PUSH2 0x1945 JUMP JUMPDEST PUSH1 0x0 PUSH1 0x20 DUP3 DUP5 SUB SLT ISZERO PUSH2 0x1996 JUMPI PUSH1 0x0 DUP1 REVERT JUMPDEST POP CALLDATALOAD SWAP2 SWAP1 POP JUMP JUMPDEST DUP1 CALLDATALOAD PUSH1 0x1 PUSH1 0x1 PUSH1 0xA0 SHL SUB DUP2 AND DUP2 EQ PUSH2 0x19B4 JUMPI PUSH1 0x0 DUP1 REVERT JUMPDEST SWAP2 SWAP1 POP JUMP JUMPDEST PUSH1 0x0 DUP1 PUSH1 0x40 DUP4 DUP6 SUB SLT ISZERO PUSH2 0x19CC JUMPI PUSH1 0x0 DUP1 REVERT JUMPDEST PUSH2 0x19D5 DUP4 PUSH2 0x199D JUMP JUMPDEST SWAP5 PUSH1 0x20 SWAP4 SWAP1 SWAP4 ADD CALLDATALOAD SWAP4 POP POP POP JUMP JUMPDEST PUSH1 0x0 DUP1 PUSH2 0x360 DUP1 DUP5 DUP7 SUB SLT ISZERO PUSH2 0x19F8 JUMPI PUSH1 0x0 DUP1 REVERT JUMPDEST PUSH2 0x300 DUP5 ADD DUP6 DUP2 GT ISZERO PUSH2 0x1A0A JUMPI PUSH1 0x0 DUP1 REVERT JUMPDEST DUP5 SWAP4 POP DUP6 DUP3 DUP7 ADD GT ISZERO PUSH2 0x1A1C JUMPI PUSH1 0x0 DUP1 REVERT JUMPDEST DUP1 SWAP3 POP POP POP SWAP3 POP SWAP3 SWAP1 POP JUMP JUMPDEST PUSH1 0x0 DUP1 PUSH1 0x0 PUSH1 0x60 DUP5 DUP7 SUB SLT ISZERO PUSH2 0x1A3D JUMPI PUSH1 0x0 DUP1 REVERT JUMPDEST PUSH2 0x1A46 DUP5 PUSH2 0x199D JUMP JUMPDEST SWAP3 POP PUSH2 0x1A54 PUSH1 0x20 DUP6 ADD PUSH2 0x199D JUMP JUMPDEST SWAP2 POP PUSH1 0x40 DUP5 ADD CALLDATALOAD SWAP1 POP SWAP3 POP SWAP3 POP SWAP3 JUMP JUMPDEST DUP1 CALLDATALOAD PUSH1 0xFF DUP2 AND DUP2 EQ PUSH2 0x19B4 JUMPI PUSH1 0x0 DUP1 REVERT JUMPDEST PUSH1 0x0 DUP1 PUSH1 0x40 DUP4 DUP6 SUB SLT ISZERO PUSH2 0x1A88 JUMPI PUSH1 0x0 DUP1 REVERT JUMPDEST DUP3 CALLDATALOAD SWAP2 POP PUSH2 0x1A98 PUSH1 0x20 DUP5 ADD PUSH2 0x1A64 JUMP JUMPDEST SWAP1 POP SWAP3 POP SWAP3 SWAP1 POP JUMP JUMPDEST PUSH1 0x0 DUP1 PUSH1 0x0 PUSH1 0x60 DUP5 DUP7 SUB SLT ISZERO PUSH2 0x1AB6 JUMPI PUSH1 0x0 DUP1 REVERT JUMPDEST DUP4 CALLDATALOAD SWAP3 POP PUSH2 0x1AC6 PUSH1 0x20 DUP6 ADD PUSH2 0x1A64 JUMP JUMPDEST SWAP2 POP PUSH2 0x1AD4 PUSH1 0x40 DUP6 ADD PUSH2 0x199D JUMP JUMPDEST SWAP1 POP SWAP3 POP SWAP3 POP SWAP3 JUMP JUMPDEST PUSH1 0x0 PUSH1 0x20 DUP3 DUP5 SUB SLT ISZERO PUSH2 0x1AEF JUMPI PUSH1 0x0 DUP1 REVERT JUMPDEST PUSH2 0x1088 DUP3 PUSH2 0x199D JUMP JUMPDEST PUSH1 0x0 DUP1 PUSH1 0x40 DUP4 DUP6 SUB SLT ISZERO PUSH2 0x1B0B JUMPI PUSH1 0x0 DUP1 REVERT JUMPDEST PUSH2 0x1B14 DUP4 PUSH2 0x199D JUMP JUMPDEST SWAP2 POP PUSH1 0x20 DUP4 ADD CALLDATALOAD DUP1 ISZERO ISZERO DUP2 EQ PUSH2 0x1B29 JUMPI PUSH1 0x0 DUP1 REVERT JUMPDEST DUP1 SWAP2 POP POP SWAP3 POP SWAP3 SWAP1 POP JUMP JUMPDEST PUSH4 0x4E487B71 PUSH1 0xE0 SHL PUSH1 0x0 MSTORE PUSH1 0x41 PUSH1 0x4 MSTORE PUSH1 0x24 PUSH1 0x0 REVERT JUMPDEST PUSH1 0x0 DUP1 PUSH1 0x0 DUP1 PUSH1 0x80 DUP6 DUP8 SUB SLT ISZERO PUSH2 0x1B60 JUMPI PUSH1 0x0 DUP1 REVERT JUMPDEST PUSH2 0x1B69 DUP6 PUSH2 0x199D JUMP JUMPDEST SWAP4 POP PUSH2 0x1B77 PUSH1 0x20 DUP7 ADD PUSH2 0x199D JUMP JUMPDEST SWAP3 POP PUSH1 0x40 DUP6 ADD CALLDATALOAD SWAP2 POP PUSH1 0x60 DUP6 ADD CALLDATALOAD PUSH8 0xFFFFFFFFFFFFFFFF DUP1 DUP3 GT ISZERO PUSH2 0x1B9B JUMPI PUSH1 0x0 DUP1 REVERT JUMPDEST DUP2 DUP8 ADD SWAP2 POP DUP8 PUSH1 0x1F DUP4 ADD SLT PUSH2 0x1BAF JUMPI PUSH1 0x0 DUP1 REVERT JUMPDEST DUP2 CALLDATALOAD DUP2 DUP2 GT ISZERO PUSH2 0x1BC1 JUMPI PUSH2 0x1BC1 PUSH2 0x1B34 JUMP JUMPDEST PUSH1 0x40 MLOAD PUSH1 0x1F DUP3 ADD PUSH1 0x1F NOT SWAP1 DUP2 AND PUSH1 0x3F ADD AND DUP2 ADD SWAP1 DUP4 DUP3 GT DUP2 DUP4 LT OR ISZERO PUSH2 0x1BE9 JUMPI PUSH2 0x1BE9 PUSH2 0x1B34 JUMP JUMPDEST DUP2 PUSH1 0x40 MSTORE DUP3 DUP2 MSTORE DUP11 PUSH1 0x20 DUP5 DUP8 ADD ADD GT ISZERO PUSH2 0x1C02 JUMPI PUSH1 0x0 DUP1 REVERT JUMPDEST DUP3 PUSH1 0x20 DUP7 ADD PUSH1 0x20 DUP4 ADD CALLDATACOPY PUSH1 0x0 PUSH1 0x20 DUP5 DUP4 ADD ADD MSTORE DUP1 SWAP6 POP POP POP POP POP POP SWAP3 SWAP6 SWAP2 SWAP5 POP SWAP3 POP JUMP JUMPDEST PUSH1 0x0 DUP1 PUSH1 0x40 DUP4 DUP6 SUB SLT ISZERO PUSH2 0x1C39 JUMPI PUSH1 0x0 DUP1 REVERT JUMPDEST PUSH2 0x1C42 DUP4 PUSH2 0x199D JUMP JUMPDEST SWAP2 POP PUSH2 0x1A98 PUSH1 0x20 DUP5 ADD PUSH2 0x199D JUMP JUMPDEST PUSH1 0x1 DUP2 DUP2 SHR SWAP1 DUP3 AND DUP1 PUSH2 0x1C64 JUMPI PUSH1 0x7F DUP3 AND SWAP2 POP JUMPDEST PUSH1 0x20 DUP3 LT DUP2 SUB PUSH2 0x1C84 JUMPI PUSH4 0x4E487B71 PUSH1 0xE0 SHL PUSH1 0x0 MSTORE PUSH1 0x22 PUSH1 0x4 MSTORE PUSH1 0x24 PUSH1 0x0 REVERT JUMPDEST POP SWAP2 SWAP1 POP JUMP JUMPDEST PUSH4 0x4E487B71 PUSH1 0xE0 SHL PUSH1 0x0 MSTORE PUSH1 0x32 PUSH1 0x4 MSTORE PUSH1 0x24 PUSH1 0x0 REVERT JUMPDEST PUSH2 0x360 DUP2 ADD PUSH2 0x300 DUP1 DUP6 DUP5 CALLDATACOPY DUP3 ADD DUP4 PUSH1 0x0 JUMPDEST PUSH1 0x3 DUP2 LT ISZERO PUSH2 0x1CD1 JUMPI DUP2 MLOAD DUP4 MSTORE PUSH1 0x20 SWAP3 DUP4 ADD SWAP3 SWAP1 SWAP2 ADD SWAP1 PUSH1 0x1 ADD PUSH2 0x1CB2 JUMP JUMPDEST POP POP POP SWAP4 SWAP3 POP POP POP JUMP JUMPDEST PUSH1 0x0 DUP3 MLOAD PUSH2 0x1CED DUP2 DUP5 PUSH1 0x20 DUP8 ADD PUSH2 0x1921 JUMP JUMPDEST SWAP2 SWAP1 SWAP2 ADD SWAP3 SWAP2 POP POP JUMP JUMPDEST PUSH4 0x4E487B71 PUSH1 0xE0 SHL PUSH1 0x0 MSTORE PUSH1 0x11 PUSH1 0x4 MSTORE PUSH1 0x24 PUSH1 0x0 REVERT JUMPDEST PUSH8 0xFFFFFFFFFFFFFFFF DUP2 DUP2 AND DUP4 DUP3 AND MUL DUP1 DUP3 AND SWAP2 SWAP1 DUP3 DUP2 EQ PUSH2 0x1D31 JUMPI PUSH2 0x1D31 PUSH2 0x1CF7 JUMP JUMPDEST POP POP SWAP3 SWAP2 POP POP JUMP JUMPDEST PUSH1 0xFF DUP2 DUP2 AND DUP4 DUP3 AND ADD SWAP1 DUP2 GT ISZERO PUSH2 0x5C4 JUMPI PUSH2 0x5C4 PUSH2 0x1CF7 JUMP JUMPDEST PUSH1 0x1 DUP2 DUP2 JUMPDEST DUP1 DUP6 GT ISZERO PUSH2 0x1D8D JUMPI DUP2 PUSH1 0x0 NOT DIV DUP3 GT ISZERO PUSH2 0x1D73 JUMPI PUSH2 0x1D73 PUSH2 0x1CF7 JUMP JUMPDEST DUP1 DUP6 AND ISZERO PUSH2 0x1D80 JUMPI SWAP2 DUP2 MUL SWAP2 JUMPDEST SWAP4 DUP5 SHR SWAP4 SWAP1 DUP1 MUL SWAP1 PUSH2 0x1D57 JUMP JUMPDEST POP SWAP3 POP SWAP3 SWAP1 POP JUMP JUMPDEST PUSH1 0x0 DUP3 PUSH2 0x1DA4 JUMPI POP PUSH1 0x1 PUSH2 0x5C4 JUMP JUMPDEST DUP2 PUSH2 0x1DB1 JUMPI POP PUSH1 0x0 PUSH2 0x5C4 JUMP JUMPDEST DUP2 PUSH1 0x1 DUP2 EQ PUSH2 0x1DC7 JUMPI PUSH1 0x2 DUP2 EQ PUSH2 0x1DD1 JUMPI PUSH2 0x1DED JUMP JUMPDEST PUSH1 0x1 SWAP2 POP POP PUSH2 0x5C4 JUMP JUMPDEST PUSH1 0xFF DUP5 GT ISZERO PUSH2 0x1DE2 JUMPI PUSH2 0x1DE2 PUSH2 0x1CF7 JUMP JUMPDEST POP POP PUSH1 0x1 DUP3 SHL PUSH2 0x5C4 JUMP JUMPDEST POP PUSH1 0x20 DUP4 LT PUSH2 0x133 DUP4 LT AND PUSH1 0x4E DUP5 LT PUSH1 0xB DUP5 LT AND OR ISZERO PUSH2 0x1E10 JUMPI POP DUP2 DUP2 EXP PUSH2 0x5C4 JUMP JUMPDEST PUSH2 0x1E1A DUP4 DUP4 PUSH2 0x1D52 JUMP JUMPDEST DUP1 PUSH1 0x0 NOT DIV DUP3 GT ISZERO PUSH2 0x1E2E JUMPI PUSH2 0x1E2E PUSH2 0x1CF7 JUMP JUMPDEST MUL SWAP4 SWAP3 POP POP POP JUMP JUMPDEST PUSH1 0x0 PUSH2 0x1088 DUP4 DUP4 PUSH2 0x1D95 JUMP JUMPDEST PUSH4 0x4E487B71 PUSH1 0xE0 SHL PUSH1 0x0 MSTORE PUSH1 0x12 PUSH1 0x4 MSTORE PUSH1 0x24 PUSH1 0x0 REVERT JUMPDEST PUSH1 0x0 DUP3 PUSH2 0x1E67 JUMPI PUSH2 0x1E67 PUSH2 0x1E42 JUMP JUMPDEST POP MOD SWAP1 JUMP JUMPDEST PUSH1 0x60 DUP2 ADD DUP2 DUP5 PUSH1 0x0 JUMPDEST PUSH1 0x2 DUP2 LT ISZERO PUSH2 0x1E94 JUMPI DUP2 MLOAD DUP4 MSTORE PUSH1 0x20 SWAP3 DUP4 ADD SWAP3 SWAP1 SWAP2 ADD SWAP1 PUSH1 0x1 ADD PUSH2 0x1E75 JUMP JUMPDEST POP POP POP DUP3 PUSH1 0x40 DUP4 ADD MSTORE SWAP4 SWAP3 POP POP POP JUMP JUMPDEST PUSH1 0x0 PUSH1 0x20 DUP3 DUP5 SUB SLT ISZERO PUSH2 0x1EB6 JUMPI PUSH1 0x0 DUP1 REVERT JUMPDEST POP MLOAD SWAP2 SWAP1 POP JUMP JUMPDEST PUSH1 0x0 DUP3 PUSH2 0x1ECC JUMPI PUSH2 0x1ECC PUSH2 0x1E42 JUMP JUMPDEST POP DIV SWAP1 JUMP JUMPDEST PUSH1 0x0 PUSH1 0xFF DUP3 AND PUSH1 0xFF DUP2 SUB PUSH2 0x1EE7 JUMPI PUSH2 0x1EE7 PUSH2 0x1CF7 JUMP JUMPDEST PUSH1 0x1 ADD SWAP3 SWAP2 POP POP JUMP JUMPDEST DUP1 DUP3 ADD DUP1 DUP3 GT ISZERO PUSH2 0x5C4 JUMPI PUSH2 0x5C4 PUSH2 0x1CF7 JUMP JUMPDEST DUP5 DUP2 MSTORE PUSH2 0x2C0 DUP2 ADD PUSH1 0x20 DUP1 DUP4 ADD DUP7 PUSH1 0x0 JUMPDEST PUSH1 0xA DUP2 LT ISZERO PUSH2 0x1F31 JUMPI DUP2 MLOAD DUP4 MSTORE SWAP2 DUP4 ADD SWAP2 SWAP1 DUP4 ADD SWAP1 PUSH1 0x1 ADD PUSH2 0x1F14 JUMP JUMPDEST POP POP POP PUSH2 0x160 DUP4 ADD DUP6 PUSH1 0x0 JUMPDEST PUSH1 0xA DUP2 LT ISZERO PUSH2 0x1F5D JUMPI DUP2 MLOAD PUSH1 0xFF AND DUP4 MSTORE SWAP2 DUP4 ADD SWAP2 SWAP1 DUP4 ADD SWAP1 PUSH1 0x1 ADD PUSH2 0x1F3D JUMP JUMPDEST POP POP POP POP DUP3 PUSH2 0x2A0 DUP4 ADD MSTORE SWAP6 SWAP5 POP POP POP POP POP JUMP JUMPDEST PUSH1 0x0 DUP4 MLOAD PUSH2 0x1F83 DUP2 DUP5 PUSH1 0x20 DUP9 ADD PUSH2 0x1921 JUMP JUMPDEST DUP4 MLOAD SWAP1 DUP4 ADD SWAP1 PUSH2 0x1F97 DUP2 DUP4 PUSH1 0x20 DUP9 ADD PUSH2 0x1921 JUMP JUMPDEST ADD SWAP5 SWAP4 POP POP POP POP JUMP JUMPDEST PUSH1 0x1 PUSH1 0x1 PUSH1 0xA0 SHL SUB DUP6 DUP2 AND DUP3 MSTORE DUP5 AND PUSH1 0x20 DUP3 ADD MSTORE PUSH1 0x40 DUP2 ADD DUP4 SWAP1 MSTORE PUSH1 0x80 PUSH1 0x60 DUP3 ADD DUP2 SWAP1 MSTORE PUSH1 0x0 SWAP1 PUSH2 0x1FD3 SWAP1 DUP4 ADD DUP5 PUSH2 0x1945 JUMP JUMPDEST SWAP7 SWAP6 POP POP POP POP POP POP JUMP JUMPDEST PUSH1 0x0 PUSH1 0x20 DUP3 DUP5 SUB SLT ISZERO PUSH2 0x1FEF JUMPI PUSH1 0x0 DUP1 REVERT JUMPDEST DUP2 MLOAD PUSH2 0x1088 DUP2 PUSH2 0x18EB JUMP INVALID LOG2 PUSH5 0x6970667358 0x22 SLT KECCAK256 0xFC 0xFC PUSH8 0x9B003A2F200833BC LOG0 0xA7 PUSH8 0x41B243E4B3D764BE PUSH11 0x594C3721DE980A6A536473 PUSH16 0x6C634300081400330000000000000000 "},"methodIdentifiers":{"addWishlistItem(uint256,uint8,address)":"6b5d45ae","approve(address,uint256)":"095ea7b3","balanceOf(address)":"70a08231","commitmentStorage(uint256)":"6a81beb3","commitments(uint256)":"49ce8997","denomination()":"8bca6d16","fulfillWishlist(uint256,uint8)":"4755c746","fulfillmentAmounts(uint256)":"52d5d0ee","getApproved(uint256)":"081812fc","isApprovedForAll(address,address)":"e985e9c5","itemRecipients(uint256)":"dad46ced","mintedItems(uint256)":"40042a8e","name()":"06fdde03","nextLeafIdx()":"45e0523f","nullifierHashes(uint256)":"1f79a1e9","ownerOf(uint256)":"6352211e","roots(uint256)":"c2b40ae4","safeTransferFrom(address,address,uint256)":"42842e0e","safeTransferFrom(address,address,uint256,bytes)":"b88d4fde","setApprovalForAll(address,bool)":"a22cb465","supportsInterface(bytes4)":"01ffc9a7","symbol()":"95d89b41","tokenURI(uint256)":"c87b56dd","transferFrom(address,address,uint256)":"23b872dd","treeLevel()":"b8e79564","verifyPlonk(uint256[24],uint256[3])":"1db140ba","wishlistItems(uint256)":"665bd421"}}}}}