{
  "_format": "hh-sol-artifact-1",
  "contractName": "WishlistNFT",
  "sourceName": "contracts/ERC721.sol",
  "abi": [
    {
      "inputs": [],
      "stateMutability": "nonpayable",
      "type": "constructor"
    },
    {
      "inputs": [
        {
          "internalType": "address",
          "name": "sender",
          "type": "address"
        },
        {
          "internalType": "uint256",
          "name": "tokenId",
          "type": "uint256"
        },
        {
          "internalType": "address",
          "name": "owner",
          "type": "address"
        }
      ],
      "name": "ERC721IncorrectOwner",
      "type": "error"
    },
    {
      "inputs": [
        {
          "internalType": "address",
          "name": "operator",
          "type": "address"
        },
        {
          "internalType": "uint256",
          "name": "tokenId",
          "type": "uint256"
        }
      ],
      "name": "ERC721InsufficientApproval",
      "type": "error"
    },
    {
      "inputs": [
        {
          "internalType": "address",
          "name": "approver",
          "type": "address"
        }
      ],
      "name": "ERC721InvalidApprover",
      "type": "error"
    },
    {
      "inputs": [
        {
          "internalType": "address",
          "name": "operator",
          "type": "address"
        }
      ],
      "name": "ERC721InvalidOperator",
      "type": "error"
    },
    {
      "inputs": [
        {
          "internalType": "address",
          "name": "owner",
          "type": "address"
        }
      ],
      "name": "ERC721InvalidOwner",
      "type": "error"
    },
    {
      "inputs": [
        {
          "internalType": "address",
          "name": "receiver",
          "type": "address"
        }
      ],
      "name": "ERC721InvalidReceiver",
      "type": "error"
    },
    {
      "inputs": [
        {
          "internalType": "address",
          "name": "sender",
          "type": "address"
        }
      ],
      "name": "ERC721InvalidSender",
      "type": "error"
    },
    {
      "inputs": [
        {
          "internalType": "uint256",
          "name": "tokenId",
          "type": "uint256"
        }
      ],
      "name": "ERC721NonexistentToken",
      "type": "error"
    },
    {
      "anonymous": false,
      "inputs": [
        {
          "indexed": true,
          "internalType": "address",
          "name": "owner",
          "type": "address"
        },
        {
          "indexed": true,
          "internalType": "address",
          "name": "approved",
          "type": "address"
        },
        {
          "indexed": true,
          "internalType": "uint256",
          "name": "tokenId",
          "type": "uint256"
        }
      ],
      "name": "Approval",
      "type": "event"
    },
    {
      "anonymous": false,
      "inputs": [
        {
          "indexed": true,
          "internalType": "address",
          "name": "owner",
          "type": "address"
        },
        {
          "indexed": true,
          "internalType": "address",
          "name": "operator",
          "type": "address"
        },
        {
          "indexed": false,
          "internalType": "bool",
          "name": "approved",
          "type": "bool"
        }
      ],
      "name": "ApprovalForAll",
      "type": "event"
    },
    {
      "anonymous": false,
      "inputs": [
        {
          "indexed": true,
          "internalType": "address",
          "name": "from",
          "type": "address"
        },
        {
          "indexed": true,
          "internalType": "address",
          "name": "to",
          "type": "address"
        },
        {
          "indexed": true,
          "internalType": "uint256",
          "name": "tokenId",
          "type": "uint256"
        }
      ],
      "name": "Transfer",
      "type": "event"
    },
    {
      "inputs": [
        {
          "internalType": "uint256",
          "name": "itemId",
          "type": "uint256"
        },
        {
          "internalType": "uint8",
          "name": "price",
          "type": "uint8"
        },
        {
          "internalType": "address",
          "name": "recipient",
          "type": "address"
        }
      ],
      "name": "addWishlistItem",
      "outputs": [],
      "stateMutability": "nonpayable",
      "type": "function"
    },
    {
      "inputs": [
        {
          "internalType": "address",
          "name": "to",
          "type": "address"
        },
        {
          "internalType": "uint256",
          "name": "tokenId",
          "type": "uint256"
        }
      ],
      "name": "approve",
      "outputs": [],
      "stateMutability": "nonpayable",
      "type": "function"
    },
    {
      "inputs": [
        {
          "internalType": "address",
          "name": "owner",
          "type": "address"
        }
      ],
      "name": "balanceOf",
      "outputs": [
        {
          "internalType": "uint256",
          "name": "",
          "type": "uint256"
        }
      ],
      "stateMutability": "view",
      "type": "function"
    },
    {
      "inputs": [
        {
          "internalType": "uint256",
          "name": "itemId",
          "type": "uint256"
        },
        {
          "internalType": "uint8",
          "name": "amount",
          "type": "uint8"
        }
      ],
      "name": "fulfilWishlist",
      "outputs": [],
      "stateMutability": "nonpayable",
      "type": "function"
    },
    {
      "inputs": [
        {
          "internalType": "uint256",
          "name": "",
          "type": "uint256"
        }
      ],
      "name": "fulfilmentAmounts",
      "outputs": [
        {
          "internalType": "uint8",
          "name": "",
          "type": "uint8"
        }
      ],
      "stateMutability": "view",
      "type": "function"
    },
    {
      "inputs": [
        {
          "internalType": "uint256",
          "name": "tokenId",
          "type": "uint256"
        }
      ],
      "name": "getApproved",
      "outputs": [
        {
          "internalType": "address",
          "name": "",
          "type": "address"
        }
      ],
      "stateMutability": "view",
      "type": "function"
    },
    {
      "inputs": [
        {
          "internalType": "address",
          "name": "owner",
          "type": "address"
        },
        {
          "internalType": "address",
          "name": "operator",
          "type": "address"
        }
      ],
      "name": "isApprovedForAll",
      "outputs": [
        {
          "internalType": "bool",
          "name": "",
          "type": "bool"
        }
      ],
      "stateMutability": "view",
      "type": "function"
    },
    {
      "inputs": [
        {
          "internalType": "uint256",
          "name": "",
          "type": "uint256"
        }
      ],
      "name": "itemRecipients",
      "outputs": [
        {
          "internalType": "address",
          "name": "",
          "type": "address"
        }
      ],
      "stateMutability": "view",
      "type": "function"
    },
    {
      "inputs": [
        {
          "internalType": "uint256",
          "name": "",
          "type": "uint256"
        }
      ],
      "name": "mintedItems",
      "outputs": [
        {
          "internalType": "bool",
          "name": "",
          "type": "bool"
        }
      ],
      "stateMutability": "view",
      "type": "function"
    },
    {
      "inputs": [],
      "name": "name",
      "outputs": [
        {
          "internalType": "string",
          "name": "",
          "type": "string"
        }
      ],
      "stateMutability": "view",
      "type": "function"
    },
    {
      "inputs": [
        {
          "internalType": "uint256",
          "name": "tokenId",
          "type": "uint256"
        }
      ],
      "name": "ownerOf",
      "outputs": [
        {
          "internalType": "address",
          "name": "",
          "type": "address"
        }
      ],
      "stateMutability": "view",
      "type": "function"
    },
    {
      "inputs": [
        {
          "internalType": "address",
          "name": "from",
          "type": "address"
        },
        {
          "internalType": "address",
          "name": "to",
          "type": "address"
        },
        {
          "internalType": "uint256",
          "name": "tokenId",
          "type": "uint256"
        }
      ],
      "name": "safeTransferFrom",
      "outputs": [],
      "stateMutability": "nonpayable",
      "type": "function"
    },
    {
      "inputs": [
        {
          "internalType": "address",
          "name": "from",
          "type": "address"
        },
        {
          "internalType": "address",
          "name": "to",
          "type": "address"
        },
        {
          "internalType": "uint256",
          "name": "tokenId",
          "type": "uint256"
        },
        {
          "internalType": "bytes",
          "name": "data",
          "type": "bytes"
        }
      ],
      "name": "safeTransferFrom",
      "outputs": [],
      "stateMutability": "nonpayable",
      "type": "function"
    },
    {
      "inputs": [
        {
          "internalType": "address",
          "name": "operator",
          "type": "address"
        },
        {
          "internalType": "bool",
          "name": "approved",
          "type": "bool"
        }
      ],
      "name": "setApprovalForAll",
      "outputs": [],
      "stateMutability": "nonpayable",
      "type": "function"
    },
    {
      "inputs": [
        {
          "internalType": "bytes4",
          "name": "interfaceId",
          "type": "bytes4"
        }
      ],
      "name": "supportsInterface",
      "outputs": [
        {
          "internalType": "bool",
          "name": "",
          "type": "bool"
        }
      ],
      "stateMutability": "view",
      "type": "function"
    },
    {
      "inputs": [],
      "name": "symbol",
      "outputs": [
        {
          "internalType": "string",
          "name": "",
          "type": "string"
        }
      ],
      "stateMutability": "view",
      "type": "function"
    },
    {
      "inputs": [
        {
          "internalType": "uint256",
          "name": "tokenId",
          "type": "uint256"
        }
      ],
      "name": "tokenURI",
      "outputs": [
        {
          "internalType": "string",
          "name": "",
          "type": "string"
        }
      ],
      "stateMutability": "view",
      "type": "function"
    },
    {
      "inputs": [
        {
          "internalType": "address",
          "name": "from",
          "type": "address"
        },
        {
          "internalType": "address",
          "name": "to",
          "type": "address"
        },
        {
          "internalType": "uint256",
          "name": "tokenId",
          "type": "uint256"
        }
      ],
      "name": "transferFrom",
      "outputs": [],
      "stateMutability": "nonpayable",
      "type": "function"
    },
    {
      "inputs": [
        {
          "internalType": "uint256",
          "name": "",
          "type": "uint256"
        }
      ],
      "name": "wishlistItems",
      "outputs": [
        {
          "internalType": "uint8",
          "name": "",
          "type": "uint8"
        }
      ],
      "stateMutability": "view",
      "type": "function"
    }
  ],
  "bytecode": "0x60806040523480156200001157600080fd5b506040518060400160405280600b81526020016a15da5cda1b1a5cdd13919560aa1b8152506040518060400160405280600481526020016315d3919560e21b815250816000908162000064919062000121565b50600162000073828262000121565b505050620001ed565b634e487b7160e01b600052604160045260246000fd5b600181811c90821680620000a757607f821691505b602082108103620000c857634e487b7160e01b600052602260045260246000fd5b50919050565b601f8211156200011c57600081815260208120601f850160051c81016020861015620000f75750805b601f850160051c820191505b81811015620001185782815560010162000103565b5050505b505050565b81516001600160401b038111156200013d576200013d6200007c565b62000155816200014e845462000092565b84620000ce565b602080601f8311600181146200018d5760008415620001745750858301515b600019600386901b1c1916600185901b17855562000118565b600085815260208120601f198616915b82811015620001be578886015182559484019460019091019084016200019d565b5085821015620001dd5787850151600019600388901b60f8161c191681555b5050505050600190811b01905550565b61141d80620001fd6000396000f3fe608060405234801561001057600080fd5b50600436106101215760003560e01c8063665bd421116100ad578063b88d4fde11610071578063b88d4fde146102a6578063bc352dbf146102b9578063c87b56dd146102cc578063dad46ced146102df578063e985e9c51461030857600080fd5b8063665bd421146102345780636b5d45ae1461025757806370a082311461026a57806395d89b411461028b578063a22cb4651461029357600080fd5b806323b872dd116100f457806323b872dd146101a35780632a7c8a04146101b657806340042a8e146101eb57806342842e0e1461020e5780636352211e1461022157600080fd5b806301ffc9a71461012657806306fdde031461014e578063081812fc14610163578063095ea7b31461018e575b600080fd5b610139610134366004610ff6565b61031b565b60405190151581526020015b60405180910390f35b61015661036d565b6040516101459190611063565b610176610171366004611076565b6103ff565b6040516001600160a01b039091168152602001610145565b6101a161019c3660046110ab565b610428565b005b6101a16101b13660046110d5565b610437565b6101d96101c4366004611076565b60076020526000908152604090205460ff1681565b60405160ff9091168152602001610145565b6101396101f9366004611076565b60086020526000908152604090205460ff1681565b6101a161021c3660046110d5565b6104c7565b61017661022f366004611076565b6104e7565b6101d9610242366004611076565b60066020526000908152604090205460ff1681565b6101a1610265366004611122565b6104f2565b61027d61027836600461115e565b6105e6565b604051908152602001610145565b61015661062e565b6101a16102a1366004611179565b61063d565b6101a16102b43660046111cb565b610648565b6101a16102c73660046112a7565b610660565b6101566102da366004611076565b610775565b6101766102ed366004611076565b6009602052600090815260409020546001600160a01b031681565b6101396103163660046112d3565b6107ea565b60006001600160e01b031982166380ac58cd60e01b148061034c57506001600160e01b03198216635b5e139f60e01b145b8061036757506301ffc9a760e01b6001600160e01b03198316145b92915050565b60606000805461037c906112fd565b80601f01602080910402602001604051908101604052809291908181526020018280546103a8906112fd565b80156103f55780601f106103ca576101008083540402835291602001916103f5565b820191906000526020600020905b8154815290600101906020018083116103d857829003601f168201915b5050505050905090565b600061040a82610818565b506000828152600460205260409020546001600160a01b0316610367565b610433828233610851565b5050565b6001600160a01b03821661046657604051633250574960e11b8152600060048201526024015b60405180910390fd5b600061047383833361085e565b9050836001600160a01b0316816001600160a01b0316146104c1576040516364283d7b60e01b81526001600160a01b038086166004830152602482018490528216604482015260640161045d565b50505050565b6104e283838360405180602001604052806000815250610648565b505050565b600061036782610818565b60008381526008602052604090205460ff16156105475760405162461bcd60e51b81526020600482015260136024820152724974656d20616c72656164792065786973747360681b604482015260640161045d565b6001600160a01b03811661059d5760405162461bcd60e51b815260206004820152601960248201527f496e76616c696420726563697069656e74206164647265737300000000000000604482015260640161045d565b6000928352600660209081526040808520805460ff191660ff959095169490941790935560099052912080546001600160a01b0319166001600160a01b03909216919091179055565b60006001600160a01b038216610612576040516322718ad960e21b81526000600482015260240161045d565b506001600160a01b031660009081526003602052604090205490565b60606001805461037c906112fd565b610433338383610957565b610653848484610437565b6104c133858585856109f6565b60008281526006602052604090205460ff166106b55760405162461bcd60e51b8152602060048201526014602482015273125d195b481b9bdd081a5b881dda5cda1b1a5cdd60621b604482015260640161045d565b60008281526008602052604090205460ff161561070a5760405162461bcd60e51b8152602060048201526013602482015272125d195b48185b1c9958591e481b5a5b9d1959606a1b604482015260640161045d565b6000828152600760205260408120805483929061072b90849060ff16611337565b82546101009290920a60ff81810219909316918316021790915560008481526006602090815260408083205460079092529091205490821691161090506104335761043382610b21565b606061078082610818565b50600061079860408051602081019091526000815290565b905060008151116107b857604051806020016040528060008152506107e3565b806107c284610c0b565b6040516020016107d392919061135e565b6040516020818303038152906040525b9392505050565b6001600160a01b03918216600090815260056020908152604080832093909416825291909152205460ff1690565b6000818152600260205260408120546001600160a01b03168061036757604051637e27328960e01b81526004810184905260240161045d565b6104e28383836001610c9e565b6000828152600260205260408120546001600160a01b039081169083161561088b5761088b818486610da4565b6001600160a01b038116156108c9576108a8600085600080610c9e565b6001600160a01b038116600090815260036020526040902080546000190190555b6001600160a01b038516156108f8576001600160a01b0385166000908152600360205260409020805460010190555b60008481526002602052604080822080546001600160a01b0319166001600160a01b0389811691821790925591518793918516917fddf252ad1be2c89b69c2b068fc378daa952ba7f163c4a11628f55a4df523b3ef91a4949350505050565b6001600160a01b03821661098957604051630b61174360e31b81526001600160a01b038316600482015260240161045d565b6001600160a01b03838116600081815260056020908152604080832094871680845294825291829020805460ff191686151590811790915591519182527f17307eab39ab6107e8899845ad3d59bd9653f200f220920489ca2b5937696c31910160405180910390a3505050565b6001600160a01b0383163b15610b1a57604051630a85bd0160e11b81526001600160a01b0384169063150b7a0290610a3890889088908790879060040161138d565b6020604051808303816000875af1925050508015610a73575060408051601f3d908101601f19168201909252610a70918101906113ca565b60015b610adc573d808015610aa1576040519150601f19603f3d011682016040523d82523d6000602084013e610aa6565b606091505b508051600003610ad457604051633250574960e11b81526001600160a01b038516600482015260240161045d565b805181602001fd5b6001600160e01b03198116630a85bd0160e11b14610b1857604051633250574960e11b81526001600160a01b038516600482015260240161045d565b505b5050505050565b60008181526008602052604090205460ff1615610b805760405162461bcd60e51b815260206004820181905260248201527f4e465420616c7265616479206d696e74656420666f722074686973206974656d604482015260640161045d565b6000818152600960205260409020546001600160a01b031680610be55760405162461bcd60e51b815260206004820152601f60248201527f526563697069656e74206e6f742073657420666f722074686973206974656d00604482015260640161045d565b610bef8183610e08565b506000908152600860205260409020805460ff19166001179055565b60606000610c1883610e22565b600101905060008167ffffffffffffffff811115610c3857610c386111b5565b6040519080825280601f01601f191660200182016040528015610c62576020820181803683370190505b5090508181016020015b600019016f181899199a1a9b1b9c1cb0b131b232b360811b600a86061a8153600a8504945084610c6c57509392505050565b8080610cb257506001600160a01b03821615155b15610d74576000610cc284610818565b90506001600160a01b03831615801590610cee5750826001600160a01b0316816001600160a01b031614155b8015610d015750610cff81846107ea565b155b15610d2a5760405163a9fbf51f60e01b81526001600160a01b038416600482015260240161045d565b8115610d725783856001600160a01b0316826001600160a01b03167f8c5be1e5ebec7d5bd14f71427d1e84f3dd0314c0f7b2291e5b200ac8c7c3b92560405160405180910390a45b505b5050600090815260046020526040902080546001600160a01b0319166001600160a01b0392909216919091179055565b610daf838383610efa565b6104e2576001600160a01b038316610ddd57604051637e27328960e01b81526004810182905260240161045d565b60405163177e802f60e01b81526001600160a01b03831660048201526024810182905260440161045d565b610433828260405180602001604052806000815250610f60565b60008072184f03e93ff9f4daa797ed6e38ed64bf6a1f0160401b8310610e615772184f03e93ff9f4daa797ed6e38ed64bf6a1f0160401b830492506040015b6d04ee2d6d415b85acef81000000008310610e8d576d04ee2d6d415b85acef8100000000830492506020015b662386f26fc100008310610eab57662386f26fc10000830492506010015b6305f5e1008310610ec3576305f5e100830492506008015b6127108310610ed757612710830492506004015b60648310610ee9576064830492506002015b600a83106103675760010192915050565b60006001600160a01b03831615801590610f585750826001600160a01b0316846001600160a01b03161480610f345750610f3484846107ea565b80610f5857506000828152600460205260409020546001600160a01b038481169116145b949350505050565b610f6a8383610f78565b6104e23360008585856109f6565b6001600160a01b038216610fa257604051633250574960e11b81526000600482015260240161045d565b6000610fb08383600061085e565b90506001600160a01b038116156104e2576040516339e3563760e11b81526000600482015260240161045d565b6001600160e01b031981168114610ff357600080fd5b50565b60006020828403121561100857600080fd5b81356107e381610fdd565b60005b8381101561102e578181015183820152602001611016565b50506000910152565b6000815180845261104f816020860160208601611013565b601f01601f19169290920160200192915050565b6020815260006107e36020830184611037565b60006020828403121561108857600080fd5b5035919050565b80356001600160a01b03811681146110a657600080fd5b919050565b600080604083850312156110be57600080fd5b6110c78361108f565b946020939093013593505050565b6000806000606084860312156110ea57600080fd5b6110f38461108f565b92506111016020850161108f565b9150604084013590509250925092565b803560ff811681146110a657600080fd5b60008060006060848603121561113757600080fd5b8335925061114760208501611111565b91506111556040850161108f565b90509250925092565b60006020828403121561117057600080fd5b6107e38261108f565b6000806040838503121561118c57600080fd5b6111958361108f565b9150602083013580151581146111aa57600080fd5b809150509250929050565b634e487b7160e01b600052604160045260246000fd5b600080600080608085870312156111e157600080fd5b6111ea8561108f565b93506111f86020860161108f565b925060408501359150606085013567ffffffffffffffff8082111561121c57600080fd5b818701915087601f83011261123057600080fd5b813581811115611242576112426111b5565b604051601f8201601f19908116603f0116810190838211818310171561126a5761126a6111b5565b816040528281528a602084870101111561128357600080fd5b82602086016020830137600060208483010152809550505050505092959194509250565b600080604083850312156112ba57600080fd5b823591506112ca60208401611111565b90509250929050565b600080604083850312156112e657600080fd5b6112ef8361108f565b91506112ca6020840161108f565b600181811c9082168061131157607f821691505b60208210810361133157634e487b7160e01b600052602260045260246000fd5b50919050565b60ff818116838216019081111561036757634e487b7160e01b600052601160045260246000fd5b60008351611370818460208801611013565b835190830190611384818360208801611013565b01949350505050565b6001600160a01b03858116825284166020820152604081018390526080606082018190526000906113c090830184611037565b9695505050505050565b6000602082840312156113dc57600080fd5b81516107e381610fdd56fea26469706673582212204a8ea45c17dcd1fce11fb8fbb94f6b2006feba6728adf8420d8a515dfe98914364736f6c63430008140033",
  "linkReferences": {},
  "deployedLinkReferences": {}
}