{
  "_format": "hh-sol-artifact-1",
  "contractName": "WishlistNFT",
  "sourceName": "contracts/ERC721.sol",
  "abi": [
    {
      "inputs": [],
      "stateMutability": "nonpayable",
      "type": "constructor"
    },
    {
      "inputs": [
        {
          "internalType": "address",
          "name": "sender",
          "type": "address"
        },
        {
          "internalType": "uint256",
          "name": "tokenId",
          "type": "uint256"
        },
        {
          "internalType": "address",
          "name": "owner",
          "type": "address"
        }
      ],
      "name": "ERC721IncorrectOwner",
      "type": "error"
    },
    {
      "inputs": [
        {
          "internalType": "address",
          "name": "operator",
          "type": "address"
        },
        {
          "internalType": "uint256",
          "name": "tokenId",
          "type": "uint256"
        }
      ],
      "name": "ERC721InsufficientApproval",
      "type": "error"
    },
    {
      "inputs": [
        {
          "internalType": "address",
          "name": "approver",
          "type": "address"
        }
      ],
      "name": "ERC721InvalidApprover",
      "type": "error"
    },
    {
      "inputs": [
        {
          "internalType": "address",
          "name": "operator",
          "type": "address"
        }
      ],
      "name": "ERC721InvalidOperator",
      "type": "error"
    },
    {
      "inputs": [
        {
          "internalType": "address",
          "name": "owner",
          "type": "address"
        }
      ],
      "name": "ERC721InvalidOwner",
      "type": "error"
    },
    {
      "inputs": [
        {
          "internalType": "address",
          "name": "receiver",
          "type": "address"
        }
      ],
      "name": "ERC721InvalidReceiver",
      "type": "error"
    },
    {
      "inputs": [
        {
          "internalType": "address",
          "name": "sender",
          "type": "address"
        }
      ],
      "name": "ERC721InvalidSender",
      "type": "error"
    },
    {
      "inputs": [
        {
          "internalType": "uint256",
          "name": "tokenId",
          "type": "uint256"
        }
      ],
      "name": "ERC721NonexistentToken",
      "type": "error"
    },
    {
      "anonymous": false,
      "inputs": [
        {
          "indexed": true,
          "internalType": "address",
          "name": "owner",
          "type": "address"
        },
        {
          "indexed": true,
          "internalType": "address",
          "name": "approved",
          "type": "address"
        },
        {
          "indexed": true,
          "internalType": "uint256",
          "name": "tokenId",
          "type": "uint256"
        }
      ],
      "name": "Approval",
      "type": "event"
    },
    {
      "anonymous": false,
      "inputs": [
        {
          "indexed": true,
          "internalType": "address",
          "name": "owner",
          "type": "address"
        },
        {
          "indexed": true,
          "internalType": "address",
          "name": "operator",
          "type": "address"
        },
        {
          "indexed": false,
          "internalType": "bool",
          "name": "approved",
          "type": "bool"
        }
      ],
      "name": "ApprovalForAll",
      "type": "event"
    },
    {
      "anonymous": false,
      "inputs": [
        {
          "indexed": true,
          "internalType": "uint256",
          "name": "itemId",
          "type": "uint256"
        },
        {
          "indexed": true,
          "internalType": "address",
          "name": "recipient",
          "type": "address"
        }
      ],
      "name": "NFTMinted",
      "type": "event"
    },
    {
      "anonymous": false,
      "inputs": [
        {
          "indexed": true,
          "internalType": "address",
          "name": "from",
          "type": "address"
        },
        {
          "indexed": true,
          "internalType": "address",
          "name": "to",
          "type": "address"
        },
        {
          "indexed": true,
          "internalType": "uint256",
          "name": "tokenId",
          "type": "uint256"
        }
      ],
      "name": "Transfer",
      "type": "event"
    },
    {
      "anonymous": false,
      "inputs": [
        {
          "indexed": true,
          "internalType": "uint256",
          "name": "itemId",
          "type": "uint256"
        },
        {
          "indexed": false,
          "internalType": "uint8",
          "name": "amount",
          "type": "uint8"
        },
        {
          "indexed": true,
          "internalType": "address",
          "name": "fulfiller",
          "type": "address"
        }
      ],
      "name": "WishlistFulfilled",
      "type": "event"
    },
    {
      "anonymous": false,
      "inputs": [
        {
          "indexed": true,
          "internalType": "uint256",
          "name": "itemId",
          "type": "uint256"
        },
        {
          "indexed": false,
          "internalType": "uint8",
          "name": "price",
          "type": "uint8"
        },
        {
          "indexed": true,
          "internalType": "address",
          "name": "recipient",
          "type": "address"
        }
      ],
      "name": "WishlistItemAdded",
      "type": "event"
    },
    {
      "inputs": [
        {
          "internalType": "uint256",
          "name": "itemId",
          "type": "uint256"
        },
        {
          "internalType": "uint8",
          "name": "price",
          "type": "uint8"
        },
        {
          "internalType": "address",
          "name": "recipient",
          "type": "address"
        }
      ],
      "name": "addWishlistItem",
      "outputs": [],
      "stateMutability": "nonpayable",
      "type": "function"
    },
    {
      "inputs": [
        {
          "internalType": "address",
          "name": "to",
          "type": "address"
        },
        {
          "internalType": "uint256",
          "name": "tokenId",
          "type": "uint256"
        }
      ],
      "name": "approve",
      "outputs": [],
      "stateMutability": "nonpayable",
      "type": "function"
    },
    {
      "inputs": [
        {
          "internalType": "address",
          "name": "owner",
          "type": "address"
        }
      ],
      "name": "balanceOf",
      "outputs": [
        {
          "internalType": "uint256",
          "name": "",
          "type": "uint256"
        }
      ],
      "stateMutability": "view",
      "type": "function"
    },
    {
      "inputs": [
        {
          "internalType": "uint256",
          "name": "itemId",
          "type": "uint256"
        },
        {
          "internalType": "uint8",
          "name": "amount",
          "type": "uint8"
        }
      ],
      "name": "fulfillWishlist",
      "outputs": [],
      "stateMutability": "nonpayable",
      "type": "function"
    },
    {
      "inputs": [
        {
          "internalType": "uint256",
          "name": "",
          "type": "uint256"
        }
      ],
      "name": "fulfillmentAmounts",
      "outputs": [
        {
          "internalType": "uint8",
          "name": "",
          "type": "uint8"
        }
      ],
      "stateMutability": "view",
      "type": "function"
    },
    {
      "inputs": [
        {
          "internalType": "uint256",
          "name": "tokenId",
          "type": "uint256"
        }
      ],
      "name": "getApproved",
      "outputs": [
        {
          "internalType": "address",
          "name": "",
          "type": "address"
        }
      ],
      "stateMutability": "view",
      "type": "function"
    },
    {
      "inputs": [
        {
          "internalType": "address",
          "name": "owner",
          "type": "address"
        },
        {
          "internalType": "address",
          "name": "operator",
          "type": "address"
        }
      ],
      "name": "isApprovedForAll",
      "outputs": [
        {
          "internalType": "bool",
          "name": "",
          "type": "bool"
        }
      ],
      "stateMutability": "view",
      "type": "function"
    },
    {
      "inputs": [
        {
          "internalType": "uint256",
          "name": "",
          "type": "uint256"
        }
      ],
      "name": "itemRecipients",
      "outputs": [
        {
          "internalType": "address",
          "name": "",
          "type": "address"
        }
      ],
      "stateMutability": "view",
      "type": "function"
    },
    {
      "inputs": [
        {
          "internalType": "uint256",
          "name": "",
          "type": "uint256"
        }
      ],
      "name": "mintedItems",
      "outputs": [
        {
          "internalType": "bool",
          "name": "",
          "type": "bool"
        }
      ],
      "stateMutability": "view",
      "type": "function"
    },
    {
      "inputs": [],
      "name": "name",
      "outputs": [
        {
          "internalType": "string",
          "name": "",
          "type": "string"
        }
      ],
      "stateMutability": "view",
      "type": "function"
    },
    {
      "inputs": [
        {
          "internalType": "uint256",
          "name": "tokenId",
          "type": "uint256"
        }
      ],
      "name": "ownerOf",
      "outputs": [
        {
          "internalType": "address",
          "name": "",
          "type": "address"
        }
      ],
      "stateMutability": "view",
      "type": "function"
    },
    {
      "inputs": [
        {
          "internalType": "address",
          "name": "from",
          "type": "address"
        },
        {
          "internalType": "address",
          "name": "to",
          "type": "address"
        },
        {
          "internalType": "uint256",
          "name": "tokenId",
          "type": "uint256"
        }
      ],
      "name": "safeTransferFrom",
      "outputs": [],
      "stateMutability": "nonpayable",
      "type": "function"
    },
    {
      "inputs": [
        {
          "internalType": "address",
          "name": "from",
          "type": "address"
        },
        {
          "internalType": "address",
          "name": "to",
          "type": "address"
        },
        {
          "internalType": "uint256",
          "name": "tokenId",
          "type": "uint256"
        },
        {
          "internalType": "bytes",
          "name": "data",
          "type": "bytes"
        }
      ],
      "name": "safeTransferFrom",
      "outputs": [],
      "stateMutability": "nonpayable",
      "type": "function"
    },
    {
      "inputs": [
        {
          "internalType": "address",
          "name": "operator",
          "type": "address"
        },
        {
          "internalType": "bool",
          "name": "approved",
          "type": "bool"
        }
      ],
      "name": "setApprovalForAll",
      "outputs": [],
      "stateMutability": "nonpayable",
      "type": "function"
    },
    {
      "inputs": [
        {
          "internalType": "bytes4",
          "name": "interfaceId",
          "type": "bytes4"
        }
      ],
      "name": "supportsInterface",
      "outputs": [
        {
          "internalType": "bool",
          "name": "",
          "type": "bool"
        }
      ],
      "stateMutability": "view",
      "type": "function"
    },
    {
      "inputs": [],
      "name": "symbol",
      "outputs": [
        {
          "internalType": "string",
          "name": "",
          "type": "string"
        }
      ],
      "stateMutability": "view",
      "type": "function"
    },
    {
      "inputs": [
        {
          "internalType": "uint256",
          "name": "tokenId",
          "type": "uint256"
        }
      ],
      "name": "tokenURI",
      "outputs": [
        {
          "internalType": "string",
          "name": "",
          "type": "string"
        }
      ],
      "stateMutability": "view",
      "type": "function"
    },
    {
      "inputs": [
        {
          "internalType": "address",
          "name": "from",
          "type": "address"
        },
        {
          "internalType": "address",
          "name": "to",
          "type": "address"
        },
        {
          "internalType": "uint256",
          "name": "tokenId",
          "type": "uint256"
        }
      ],
      "name": "transferFrom",
      "outputs": [],
      "stateMutability": "nonpayable",
      "type": "function"
    },
    {
      "inputs": [
        {
          "internalType": "uint256",
          "name": "",
          "type": "uint256"
        }
      ],
      "name": "wishlistItems",
      "outputs": [
        {
          "internalType": "uint8",
          "name": "",
          "type": "uint8"
        }
      ],
      "stateMutability": "view",
      "type": "function"
    }
  ],
  "bytecode": "0x60806040523480156200001157600080fd5b506040518060400160405280600b81526020016a15da5cda1b1a5cdd13919560aa1b8152506040518060400160405280600481526020016315d3919560e21b815250816000908162000064919062000121565b50600162000073828262000121565b505050620001ed565b634e487b7160e01b600052604160045260246000fd5b600181811c90821680620000a757607f821691505b602082108103620000c857634e487b7160e01b600052602260045260246000fd5b50919050565b601f8211156200011c57600081815260208120601f850160051c81016020861015620000f75750805b601f850160051c820191505b81811015620001185782815560010162000103565b5050505b505050565b81516001600160401b038111156200013d576200013d6200007c565b62000155816200014e845462000092565b84620000ce565b602080601f8311600181146200018d5760008415620001745750858301515b600019600386901b1c1916600185901b17855562000118565b600085815260208120601f198616915b82811015620001be578886015182559484019460019091019084016200019d565b5085821015620001dd5787850151600019600388901b60f8161c191681555b5050505050600190811b01905550565b6114c780620001fd6000396000f3fe608060405234801561001057600080fd5b50600436106101215760003560e01c80636352211e116100ad578063a22cb46511610071578063a22cb465146102a6578063b88d4fde146102b9578063c87b56dd146102cc578063dad46ced146102df578063e985e9c51461030857600080fd5b80636352211e14610234578063665bd421146102475780636b5d45ae1461026a57806370a082311461027d57806395d89b411461029e57600080fd5b806323b872dd116100f457806323b872dd146101a357806340042a8e146101b657806342842e0e146101d95780634755c746146101ec57806352d5d0ee146101ff57600080fd5b806301ffc9a71461012657806306fdde031461014e578063081812fc14610163578063095ea7b31461018e575b600080fd5b6101396101343660046110a0565b61031b565b60405190151581526020015b60405180910390f35b61015661036d565b604051610145919061110d565b610176610171366004611120565b6103ff565b6040516001600160a01b039091168152602001610145565b6101a161019c366004611155565b610428565b005b6101a16101b136600461117f565b610437565b6101396101c4366004611120565b60086020526000908152604090205460ff1681565b6101a16101e736600461117f565b6104c7565b6101a16101fa3660046111cc565b6104e7565b61022261020d366004611120565b60076020526000908152604090205460ff1681565b60405160ff9091168152602001610145565b610176610242366004611120565b610645565b610222610255366004611120565b60066020526000908152604090205460ff1681565b6101a16102783660046111f8565b610650565b61029061028b366004611234565b610779565b604051908152602001610145565b6101566107c1565b6101a16102b436600461124f565b6107d0565b6101a16102c73660046112a1565b6107db565b6101566102da366004611120565b6107f3565b6101766102ed366004611120565b6009602052600090815260409020546001600160a01b031681565b61013961031636600461137d565b610868565b60006001600160e01b031982166380ac58cd60e01b148061034c57506001600160e01b03198216635b5e139f60e01b145b8061036757506301ffc9a760e01b6001600160e01b03198316145b92915050565b60606000805461037c906113a7565b80601f01602080910402602001604051908101604052809291908181526020018280546103a8906113a7565b80156103f55780601f106103ca576101008083540402835291602001916103f5565b820191906000526020600020905b8154815290600101906020018083116103d857829003601f168201915b5050505050905090565b600061040a82610896565b506000828152600460205260409020546001600160a01b0316610367565b6104338282336108cf565b5050565b6001600160a01b03821661046657604051633250574960e11b8152600060048201526024015b60405180910390fd5b60006104738383336108dc565b9050836001600160a01b0316816001600160a01b0316146104c1576040516364283d7b60e01b81526001600160a01b038086166004830152602482018490528216604482015260640161045d565b50505050565b6104e2838383604051806020016040528060008152506107db565b505050565b60008281526006602052604090205460ff1661053c5760405162461bcd60e51b8152602060048201526014602482015273125d195b481b9bdd081a5b881dda5cda1b1a5cdd60621b604482015260640161045d565b60008281526008602052604090205460ff16156105915760405162461bcd60e51b8152602060048201526013602482015272125d195b48185b1c9958591e481b5a5b9d1959606a1b604482015260640161045d565b600082815260076020526040812080548392906105b290849060ff166113e1565b92506101000a81548160ff021916908360ff160217905550336001600160a01b0316827fa7b89af353380e12b2c4f0e865f9af5848bd917ea72978858a547bafb2c8cad48360405161060d919060ff91909116815260200190565b60405180910390a360008281526006602090815260408083205460079092529091205460ff91821691161061043357610433826109d5565b600061036782610896565b60008381526008602052604090205460ff16156106a55760405162461bcd60e51b81526020600482015260136024820152724974656d20616c72656164792065786973747360681b604482015260640161045d565b6001600160a01b0381166106fb5760405162461bcd60e51b815260206004820152601960248201527f496e76616c696420726563697069656e74206164647265737300000000000000604482015260640161045d565b6000838152600660209081526040808320805460ff191660ff8716908117909155600983529281902080546001600160a01b0319166001600160a01b03861690811790915590519283529185917f3c56e6863acfa01555065fd061b878cd3dbf54409e9f648f60254a945c805af591015b60405180910390a3505050565b60006001600160a01b0382166107a5576040516322718ad960e21b81526000600482015260240161045d565b506001600160a01b031660009081526003602052604090205490565b60606001805461037c906113a7565b610433338383610af3565b6107e6848484610437565b6104c13385858585610b8a565b60606107fe82610896565b50600061081660408051602081019091526000815290565b905060008151116108365760405180602001604052806000815250610861565b8061084084610cb5565b604051602001610851929190611408565b6040516020818303038152906040525b9392505050565b6001600160a01b03918216600090815260056020908152604080832093909416825291909152205460ff1690565b6000818152600260205260408120546001600160a01b03168061036757604051637e27328960e01b81526004810184905260240161045d565b6104e28383836001610d48565b6000828152600260205260408120546001600160a01b039081169083161561090957610909818486610e4e565b6001600160a01b0381161561094757610926600085600080610d48565b6001600160a01b038116600090815260036020526040902080546000190190555b6001600160a01b03851615610976576001600160a01b0385166000908152600360205260409020805460010190555b60008481526002602052604080822080546001600160a01b0319166001600160a01b0389811691821790925591518793918516917fddf252ad1be2c89b69c2b068fc378daa952ba7f163c4a11628f55a4df523b3ef91a4949350505050565b60008181526008602052604090205460ff1615610a345760405162461bcd60e51b815260206004820181905260248201527f4e465420616c7265616479206d696e74656420666f722074686973206974656d604482015260640161045d565b6000818152600960205260409020546001600160a01b031680610a995760405162461bcd60e51b815260206004820152601f60248201527f526563697069656e74206e6f742073657420666f722074686973206974656d00604482015260640161045d565b610aa38183610eb2565b600082815260086020526040808220805460ff19166001179055516001600160a01b0383169184917f0176f203df400d7bd5f1b1c9ef36c16709bf3b5d9fd35f000a6bae32393f66c39190a35050565b6001600160a01b038216610b2557604051630b61174360e31b81526001600160a01b038316600482015260240161045d565b6001600160a01b03838116600081815260056020908152604080832094871680845294825291829020805460ff191686151590811790915591519182527f17307eab39ab6107e8899845ad3d59bd9653f200f220920489ca2b5937696c31910161076c565b6001600160a01b0383163b15610cae57604051630a85bd0160e11b81526001600160a01b0384169063150b7a0290610bcc908890889087908790600401611437565b6020604051808303816000875af1925050508015610c07575060408051601f3d908101601f19168201909252610c0491810190611474565b60015b610c70573d808015610c35576040519150601f19603f3d011682016040523d82523d6000602084013e610c3a565b606091505b508051600003610c6857604051633250574960e11b81526001600160a01b038516600482015260240161045d565b805181602001fd5b6001600160e01b03198116630a85bd0160e11b14610cac57604051633250574960e11b81526001600160a01b038516600482015260240161045d565b505b5050505050565b60606000610cc283610ecc565b600101905060008167ffffffffffffffff811115610ce257610ce261128b565b6040519080825280601f01601f191660200182016040528015610d0c576020820181803683370190505b5090508181016020015b600019016f181899199a1a9b1b9c1cb0b131b232b360811b600a86061a8153600a8504945084610d1657509392505050565b8080610d5c57506001600160a01b03821615155b15610e1e576000610d6c84610896565b90506001600160a01b03831615801590610d985750826001600160a01b0316816001600160a01b031614155b8015610dab5750610da98184610868565b155b15610dd45760405163a9fbf51f60e01b81526001600160a01b038416600482015260240161045d565b8115610e1c5783856001600160a01b0316826001600160a01b03167f8c5be1e5ebec7d5bd14f71427d1e84f3dd0314c0f7b2291e5b200ac8c7c3b92560405160405180910390a45b505b5050600090815260046020526040902080546001600160a01b0319166001600160a01b0392909216919091179055565b610e59838383610fa4565b6104e2576001600160a01b038316610e8757604051637e27328960e01b81526004810182905260240161045d565b60405163177e802f60e01b81526001600160a01b03831660048201526024810182905260440161045d565b61043382826040518060200160405280600081525061100a565b60008072184f03e93ff9f4daa797ed6e38ed64bf6a1f0160401b8310610f0b5772184f03e93ff9f4daa797ed6e38ed64bf6a1f0160401b830492506040015b6d04ee2d6d415b85acef81000000008310610f37576d04ee2d6d415b85acef8100000000830492506020015b662386f26fc100008310610f5557662386f26fc10000830492506010015b6305f5e1008310610f6d576305f5e100830492506008015b6127108310610f8157612710830492506004015b60648310610f93576064830492506002015b600a83106103675760010192915050565b60006001600160a01b038316158015906110025750826001600160a01b0316846001600160a01b03161480610fde5750610fde8484610868565b8061100257506000828152600460205260409020546001600160a01b038481169116145b949350505050565b6110148383611022565b6104e2336000858585610b8a565b6001600160a01b03821661104c57604051633250574960e11b81526000600482015260240161045d565b600061105a838360006108dc565b90506001600160a01b038116156104e2576040516339e3563760e11b81526000600482015260240161045d565b6001600160e01b03198116811461109d57600080fd5b50565b6000602082840312156110b257600080fd5b813561086181611087565b60005b838110156110d85781810151838201526020016110c0565b50506000910152565b600081518084526110f98160208601602086016110bd565b601f01601f19169290920160200192915050565b60208152600061086160208301846110e1565b60006020828403121561113257600080fd5b5035919050565b80356001600160a01b038116811461115057600080fd5b919050565b6000806040838503121561116857600080fd5b61117183611139565b946020939093013593505050565b60008060006060848603121561119457600080fd5b61119d84611139565b92506111ab60208501611139565b9150604084013590509250925092565b803560ff8116811461115057600080fd5b600080604083850312156111df57600080fd5b823591506111ef602084016111bb565b90509250929050565b60008060006060848603121561120d57600080fd5b8335925061121d602085016111bb565b915061122b60408501611139565b90509250925092565b60006020828403121561124657600080fd5b61086182611139565b6000806040838503121561126257600080fd5b61126b83611139565b91506020830135801515811461128057600080fd5b809150509250929050565b634e487b7160e01b600052604160045260246000fd5b600080600080608085870312156112b757600080fd5b6112c085611139565b93506112ce60208601611139565b925060408501359150606085013567ffffffffffffffff808211156112f257600080fd5b818701915087601f83011261130657600080fd5b8135818111156113185761131861128b565b604051601f8201601f19908116603f011681019083821181831017156113405761134061128b565b816040528281528a602084870101111561135957600080fd5b82602086016020830137600060208483010152809550505050505092959194509250565b6000806040838503121561139057600080fd5b61139983611139565b91506111ef60208401611139565b600181811c908216806113bb57607f821691505b6020821081036113db57634e487b7160e01b600052602260045260246000fd5b50919050565b60ff818116838216019081111561036757634e487b7160e01b600052601160045260246000fd5b6000835161141a8184602088016110bd565b83519083019061142e8183602088016110bd565b01949350505050565b6001600160a01b038581168252841660208201526040810183905260806060820181905260009061146a908301846110e1565b9695505050505050565b60006020828403121561148657600080fd5b81516108618161108756fea2646970667358221220cfca63a61b3a2eda4bba458f29b7075a19feeabdab802dfee9f26e13ce90fe0564736f6c63430008140033",
  "linkReferences": {},
  "deployedLinkReferences": {}
}