{
  "_format": "hh-sol-artifact-1",
  "contractName": "PlonkVerifier",
  "sourceName": "contracts/PlonkVerifier.sol",
  "abi": [
    {
      "inputs": [
        {
          "internalType": "uint256[24]",
          "name": "_proof",
          "type": "uint256[24]"
        },
        {
          "internalType": "uint256[3]",
          "name": "_pubSignals",
          "type": "uint256[3]"
        }
      ],
      "name": "verifyProof",
      "outputs": [
        {
          "internalType": "bool",
          "name": "",
          "type": "bool"
        }
      ],
      "stateMutability": "view",
      "type": "function"
    }
  ],
  "bytecode": "0x608060405234801561001057600080fd5b50611699806100206000396000f3fe608060405234801561001057600080fd5b506004361061002b5760003560e01c80631d5803fe14610030575b600080fd5b61004361003e3660046115be565b610057565b604051901515815260200160405180910390f35b600061154f565b600080600184846000805b821561008b575092938183058581029091039350909181830290039081610069565b505050600181111561009c57600080fd5b505060008112156100aa5783015b9392505050565b60405181602084028301815160208301925060005b828410156100f7578185526000805160206116248339815191528451830991506020850194506020840193506100c6565b61010f6000805160206116248339815191528361005e565b91506020850394506020840393508592505b828411156101665760008051602061162483398151915285518309905060008051602061162483398151915284518309818552601f1995860195909401939150610121565b5090915250505050565b600080516020611624833981519152811061018f576000805260206000f35b50565b61019e61024435610170565b6101aa61026435610170565b6101b661028435610170565b6101c26102a435610170565b6101ce6102c435610170565b6101da6102e435610170565b565b604080517f078aee29c2d491508ad9e85c6e2f370c5feef3c87b3040c6896e38d6073fff1a81527f16d95e3c9cac35714d7d14eace8721eb155ae3df0c11ef8a6dde64b30e8a3a2160208083019182527f12d0c23feb5a79992276df8545e2adf5b25da13943b467d5fa64834da975cdaf8385019081527f1fe33f4cbbbffc02f982595707a91d8c4184132b6ec71795e0a21246f739801e606085019081527f0e363253319f1cff8a98dc9cbee4fa399fc9eb773d2c1fc831fd7e776e14dae36080808701919091527ede5e5af4a05792b0a26c54725e59813f96d1152c05cedf14286c66132fe83560a08701527f27f19877b57d62d703a2eab653fef3a216e51cf2fde40b5d69c6735ceb5f99dd60c08701527f158844b456c28ae28b139d1a1352162366b77cd182f0b2ead776fce874107cf260e08701527f14b1b0ed8623e7fa1424fc0154962962ef7924aeb175d0b2f1e112af9d6653df6101008701527f2aab49b0893da539e52ef4b4499f1d2a1fc428df775e2015146e42d465eaceaa6101208701527f305ee94f6735cdc0ee5d823526227e40fea3c67e0656be269e63db0e96fd2eb86101408701527f2b2f9dc82d7ea98a2124112f0e01fe494cc80095084f4758ff9852f7a9bd3ee16101608701527f0fbdf0441ba745557d6d2a93088b4972d414805d6e0bca9e5d558c6002aa80116101808701527f1828fe134f7ed9375752b02aaa06bf5435c4352500221990c25192f96f7f0dc36101a08701527f1037b05695357029391af4b0e071bfeb960a1c42a4f646db583f4ba69676bd736101c08701527f17b3b81528a9791fc17b04f39cd27e7012eef75192bbbdc0f669b9ef1a14079e6101e0870152883561020087015288840135610220870152888701356102408701526004356102608701526024356102808701526044356102a08701526064356102c08701526084356102e087015260a43561030087015261032086206000805160206116248339815191529081900689860181815295909520819006978901978852848752965190945260c43590915260e435905290822083900680855290929091908280096102c08501528181526101043560208201526020610104013560408201526101443560608201526020610144013560808201526101843560a08201526020610184013560c082015260008051602061162483398151915260e082200691508160608501528181526102443560208201526102643560408201526102843560608201526102a43560808201526102c43560a08201526102e43560c082015260008051602061162483398151915260e08220068060c086015260008051602061162483398151915283850960a0860152600080516020611624833981519152838409925060008051602061162483398151915283840992506000805160206116248339815191528384099250600080516020611624833981519152838409925060008051602061162483398151915283840992506000805160206116248339815191528384099250600080516020611624833981519152838409925060008051602061162483398151915283840992506000805160206116248339815191528384099250600080516020611624833981519152838409925060008051602061162483398151915283840992506000805160206116248339815191528384099250826080860152600080516020611624833981519152806001850301069250826102e08601528261030086015260008051602061162483398151915281820992508260e0860152600080516020611624833981519152818409925082610100860152600080516020611624833981519152818409925082610120860152600080516020611624833981519152818409610140860152506101c43581526101e435602082015261020435604082015261022435606082015260809020600080516020611624833981519152900661016090930192909252505050565b60016000805160206116248339815191528060008051602061162483398151915283606086015103010661100009610320830152600080516020611624833981519152600080516020611644833981519152820990506000805160206116248339815191528060008051602061162483398151915283606086015103010661100009610340830152600080516020611624833981519152600080516020611644833981519152820990506000805160206116248339815191528060008051602061162483398151915283606086015103010661100009610360830152610872600461030084016100b1565b6102e0820151600191506000805160206116248339815191528161032085015109610320840152600080516020611624833981519152600080516020611644833981519152830991506000805160206116248339815191528082610340860151098309610340840152600080516020611624833981519152600080516020611644833981519152830991506000805160206116248339815191528082610360860151098309610360840152505050565b600060008051602061162483398151915280600080516020611624833981519152600086013561032086015109830301069050600080516020611624833981519152806000805160206116248339815191526020860135610340860151098303010690506000805160206116248339815191528060008051602061162483398151915260408601356103608601510983030106905080610180830152505050565b6101808101516000805160206116248339815191526102c083015161032084015109600080516020611624833981519152806102a4356020860151096102443508600080516020611624833981519152604085015182089050600080516020611624833981519152806102c4356020870151096102643508600080516020611624833981519152604086015182089050600080516020611624833981519152604086015161028435086000805160206116248339815191528160008051602061162483398151915284860909925050506000805160206116248339815191526102e43582099050600080516020611624833981519152600085015182099050600080516020611624833981519152808360008051602061162483398151915203068408925060008051602061162483398151915280826000805160206116248339815191520306840892505050806101a08301525050565b6040518151815260208201516020820152825160408201526020830151606082015260408260808360066107d05a03fa905080610b5c576000805260206000f35b505050565b50505050565b600060405183815284602082015285604082015260408160608360076107d05a03fa915081610b9a576000805260206000f35b825160408201526020830151606082015260408360808360066107d05a03fa91505080610bcb576000805260206000f35b5050505050565b600060405183815284602082015285604082015260408360608360076107d05a03fa91505080610bcb576000805260206000f35b610b5c836020840151845184610bd2565b6101c0810160408201516040516101008101604052610c7b7f2aab49b0893da539e52ef4b4499f1d2a1fc428df775e2015146e42d465eaceaa7f14b1b0ed8623e7fa1424fc0154962962ef7924aeb175d0b2f1e112af9d6653df8590815260200152565b610cde6000805160206116248339815191526102643561024435097f16d95e3c9cac35714d7d14eace8721eb155ae3df0c11ef8a6dde64b30e8a3a217f078aee29c2d491508ad9e85c6e2f370c5feef3c87b3040c6896e38d6073fff1a86610b67565b610d2d610244357f1fe33f4cbbbffc02f982595707a91d8c4184132b6ec71795e0a21246f739801e7f12d0c23feb5a79992276df8545e2adf5b25da13943b467d5fa64834da975cdaf86610b67565b610d7b610264357ede5e5af4a05792b0a26c54725e59813f96d1152c05cedf14286c66132fe8357f0e363253319f1cff8a98dc9cbee4fa399fc9eb773d2c1fc831fd7e776e14dae386610b67565b610dca610284357f158844b456c28ae28b139d1a1352162366b77cd182f0b2ead776fce874107cf27f27f19877b57d62d703a2eab653fef3a216e51cf2fde40b5d69c6735ceb5f99dd86610b67565b60a08401516000805160206116248339815191528360008051602061162483398151915283610244350808600080516020611624833981519152846000805160206116248339815191528060028609610264350808600080516020611624833981519152856000805160206116248339815191528060038709610284350808925060008051602061162483398151915260008801516000805160206116248339815191528560008051602061162483398151915285870909096000805160206116248339815191526102c08901516103208a01510960c43560c087015260e43560e0870152610ee46000805160206116248339815191526101608b01516000805160206116248339815191528486080860c0880188610c06565b505060008051602061162483398151915285600080516020611624833981519152806102a43560208c015109610244350808915060008051602061162483398151915285600080516020611624833981519152806102c43560208c01510961026435080890506000805160206116248339815191526102e43560008051602061162483398151915260208a015160008b015109099250610feb60008051602061162483398151915284600080516020611624833981519152848609097f17b3b81528a9791fc17b04f39cd27e7012eef75192bbbdc0f669b9ef1a14079e7f1037b05695357029391af4b0e071bfeb960a1c42a4f646db583f4ba69676bd7360408801610bd2565b5050506101043560808201526101243560a082015261101c6080850151602061014401356101443560808501610b67565b6080840151600080516020611624833981519152908009915061104a826101a4356101843560808501610b67565b6110666102e085015160a0830151608084015160808501610bd2565b60008051602061160483398151915260206040830101516000805160206116048339815191520306602060408301015260008051602061160483398151915260a0820151600080516020611604833981519152030660a08201526110ca8184610b1b565b6110d76040820184610b1b565b610b616080820184610b1b565b6101c081015161020082019081526101e082015161022083015260c08201516111139060243560043584610b67565b60e08201516111289060643560443584610b67565b61010082015161113e9060a43560843584610b67565b61118f6101208301517f2b2f9dc82d7ea98a2124112f0e01fe494cc80095084f4758ff9852f7a9bd3ee17f305ee94f6735cdc0ee5d823526227e40fea3c67e0656be269e63db0e96fd2eb884610b67565b6111e06101408301517f1828fe134f7ed9375752b02aaa06bf5435c4352500221990c25192f96f7f0dc37f0fbdf0441ba745557d6d2a93088b4972d414805d6e0bca9e5d558c6002aa801184610b67565b5050565b6000805160206116248339815191526101a082015160008051602061162483398151915203066000805160206116248339815191528060c08401516102443509820890506000805160206116248339815191528060e084015161026435098208905060008051602061162483398151915280610100840151610284350982089050600080516020611624833981519152806101208401516102a4350982089050600080516020611624833981519152806101408401516102c4350982089050600080516020611624833981519152806101608401516102e43509820890506111e081600260016102408601610bd2565b6000604051610240810160405261018081016101c0820161020083016113066101c48481358152602091820135910152565b6102043582526102243560208301526113256101608701518386610c06565b61132f8385610b1b565b6000805160206116048339815191526020850151600080516020611604833981519152030660208501527f0740b53fca626942bd02a8f1fad4fa5e7f5f4e1e3c3333d40320279792200e7160408501527f0d5d891207c890a1973217abfc68f60a487a6bbbb3c3a6449fd527e08ed5d80e60608501527f07506314691a8fb33acfd543f138bad018b405d9cd9ea8686e668ea0ef87cb5c60808501527f2640ec0df7ab25b1e5c3d05ad749dde45f169fe2a365c5c93bc95d16efef22ff60a085015261140360608701518460c08701610c06565b60008051602061162483398151915260608701516101608801510992506000805160206116248339815191526000805160206116448339815191528409925061144d838383610c06565b61145a8160c08601610b1b565b50505061146e610200840160c08301610b1b565b6102608301805160008051602061160483398151915290810306905261149b610240840160c08301610b1b565b7f198e9393920d483a7260bfb731fb5d25f1aa493335a9e71297e485b7aef312c26101008201527f1800deef121f1e76426a00665e5c4479674322d4f75edadd46debd5cd992f6ed6101208201527f090689d0585ff075ec9e99ad690c3395bc4b313370b38ef355acdadcd122975b6101408201527f12c85ea5db8c6deb4aab71808dcb408fe3d1e7690c43d37b4ce6cc0166fa7daa6101608201526020816101808360086107d05a03fa90511692915050565b6040516103808101604052611562610192565b61156c83826101dc565b61157581610787565b61157f8382610922565b611588816109c3565b61159181610c17565b61159a816110e4565b6115a3816111e4565b6115ac816112d4565b61038082036040528060005260206000f35b6000806103608084860312156115d357600080fd5b6103008401858111156115e557600080fd5b8493508582860111156115f757600080fd5b8092505050925092905056fe30644e72e131a029b85045b68181585d97816a916871ca8d3c208c16d87cfd4730644e72e131a029b85045b68181585d2833e84879b9709143e1f593f00000010931d596de2fd10f01ddd073fd5a90a976f169c76f039bb91c4775720042d43aa264697066735822122037ee392ba3202b17515887c8a2867f9c6464c9ea1bc080de1560867d4361b7fd64736f6c63430008140033",
  "linkReferences": {},
  "deployedLinkReferences": {}
}